:100000000C94850B0C94B60B0C94B60B0C94B60B9D
:100010000C94B60B0C94B60B0C94B60B0C94B60B5C
:100020000C94B60B0C94B60B0C94B60B0C94B60B4C
:100030000C94B60B0C94BE500C94B60B0C94B60BEF
:100040000C94B60B0C94B60B0C94B60B0C94B60B2C
:100050000C94B60B0C94B60B0C94B60B0C94745019
:100060000C94B60B0C9448510C941E510C94B60B86
:100070000C94B60B0C94B60B0C94B60B0C94B60BFC
:100080000C94B60B0C94B60B0C94B60B0C94B60BEC
:100090000C94B60B0C94B60B0C94B60B0C947E51CE
:1000A0000C94B60B0C94B60B0C94B60B0C94B60BCC
:1000B0000C94B60B0C94B60B0C94B60B0C94B60BBC
:1000C0000C94B60B0C94B60B0C94B60B0C94B60BAC
:1000D0000C94B60B0C94B60B0C94B60B0C94B60B9C
:1000E0000C94B60B0C9488250C94AC100C94310C29
:1000F0000C9423120C94F60B0C94EF370C94DD1037
:100100000C94771F0C94E5610C940E100C94F20B78
:100110000C94B9290C94F72F0C94CF210C94D1375F
:100120000C9460130C94CE370C9468240C94DC244B
:100130000C940F2A0C94DA370C94ED520C946162F3
:100140000C94E31C0C94C02F0C94792F0C947823FE
:100150000C94FE250C94CB370C94A6610C94C837F4
:100160000C94270C0C94B6610C94C6610C94FA0B99
:100170000C9445260C94882F0C94A9130C94ED1C18
:100180000C94E0370C94571D0C94AE610C949C2F8A
:100190000C94150C0C9433120C940B640C941F0CDF
:1001A0000C942D0C0C947F100C94CD0B0C942362AA
:1001B0000C94E6370C94ED2F0C940B300C94070C38
:1001C0000C94110C0C94C21D0C940D100C94BE6177
:1001D0000C9418260C9442620C94EF250C94E32F97
:1001E0000C942C0C0C9404620C94DD370C94E337C3
:1001F0000C9411260C94EC0B0C94712F0C94B62FCC
:100200000C949E610C9403120C94190C0C94010C28
:100210000C94D7370C94661F0C945C240C949F624A
:100220000C947E2F0C9415110C94BE620C94D43750
:100230000C94A1220C94EC370C94AC2F0C94CA2F84
:100240000C9495230C940B0C0C94CF100C94F0137D
:100250000C9401300C94C5370C9462110C94230C4F
:100260000C9480620C94FE0B0C94922F0C9496616B
:100270000C9474240C94C2370C9400230C94BB107F
:100280000C94D92F0C9486610C944C240C948E61A0
:100290000C94951F0C94F2370C94E9370C94A42F0E
:1002A0004E414E494E495459494E46CDCCCC3D0A5B
:1002B000D7233C17B7D13877CC2B329595E6241F3E
:1002C000B14F0A000020410000C84200401C4620F7
:1002D000BCBE4CCA1B0E5AAEC59D744120005420B2
:1002E0000043200050415553410050415553412097
:1002F0000052554E200020286D6D3A73732900502E
:10030000534E2D50524553455045004369636C6F21
:10031000206665726D6F004369636C6F20696E20A3
:1003200065736563757A696F6E65005465737420D3
:1003300075736369746520696E20636F72736F00F3
:10034000466173653A200020286D6D3A7373290069
:1003500056454C4F4349544100544553540041566F
:10036000414E544900524950524553410050415565
:10037000534100544553543D6176616E7469205376
:10038000544152543D65736369004772705F005475
:100390005554544F20494E5349454D450043415310
:1003A0004554544520575332383131004341534569
:1003B00054544520424C5500434153455454452024
:1003C0005645524449004341534554544520524FE9
:1003D000535345005354454C4C4520575332383104
:1003E00031005354454C4C4520424C550053544524
:1003F0004C4C45205645524449005354454C4C45BD
:1004000020524F53534500414C424120424C55002D
:10041000414C424120564552444500414C42412006
:10042000524F53534F005452414D4F4E544F204260
:100430004C55005452414D4F4E544F205645524456
:1004400045005452414D4F4E544F20524F53534F3D
:10045000004349454C4F20424C55004349454C4FC1
:10046000205645524445004349454C4F20524F5376
:10047000534F002F3334005465737420004D4F44A4
:10048000414C49544127205445535400496E697AE0
:1004900069616C697A7A617A696F6E650050534E52
:1004A0002D505245534550450000000000003E5B72
:1004B0004F5B3E3E6B4F6B3E1C3E7C3E1C183C7EB1
:1004C0003C181C577D571C1C5E7F5E1C00183C1896
:1004D00000FFE7C3E7FF0018241800FFE7DBE7FF92
:1004E00030483A060E2629792926407F050507401F
:1004F0007F05253F5A3CE73C5A7F3E1C1C08081CE0
:100500001C3E7F14227F22145F5F005F5F06097F1D
:10051000017F006689956A606060606094A2FFA2B6
:100520009408047E040810207E201008082A1C0865
:10053000081C2A08081E101010100C1E0C1E0C306F
:10054000383E3830060E3E0E060000000000000067
:100550005F00000007000700147F147F14242A7F27
:100560002A122313086462364956205000080703F4
:1005700000001C2241000041221C002A1C7F1C2A72
:1005800008083E08080080703000080808080800C5
:100590000060600020100804023E5149453E0042C0
:1005A0007F400072494949462141494D3318141290
:1005B0007F1027454545393C4A49493141211109B8
:1005C000073649494936464949291E0000140000AA
:1005D00000403400000008142241141414141400C4
:1005E0004122140802015909063E415D594E7C1210
:1005F00011127C7F494949363E414141227F4141A8
:10060000413E7F494949417F090909013E41415124
:10061000737F0808087F00417F41002040413F016F
:100620007F081422417F404040407F021C027F7FB0
:100630000408107F3E4141413E7F090909063E41C1
:1006400051215E7F09192946264949493203017F14
:1006500001033F4040403F1F2040201F3F403840A3
:100660003F631408146303047804036159494D433C
:10067000007F4141410204081020004141417F04B4
:10068000020102044040404040000307080020549B
:100690005478407F284444383844444428384444FB
:1006A000287F385454541800087E090218A4A49CCA
:1006B000787F0804047800447D40002040403D00DD
:1006C0007F1028440000417F40007C047804787C3F
:1006D000080404783844444438FC182424181824A6
:1006E0002418FC7C08040408485454542404043F8F
:1006F00044243C4040207C1C2040201C3C40304096
:100700003C44281028444C9090907C4464544C44C1
:100710000008364100000077000000413608000262
:10072000010204023C2623263C1EA1A161123A408C
:1007300040207A3854545559215555794122545402
:100740007842215554784020545579400C1E5272FD
:1007500012395555555939545454593955545458DA
:100760000000457C410002457D420001457C407D02
:100770001211127DF0282528F07C54554500205494
:10078000547C547C0A097F4932494949323A4444ED
:10079000443A324A4848303A4141217A3A4240206C
:1007A00078009DA0A07D3D4242423D3D4040403DFD
:1007B0003C24FF2424487E4943662B2FFC2F2BFF2B
:1007C0000929F620C0887E0903205454794100008D
:1007D000447D413048484A32384040227A007A0A03
:1007E0000A727D0D19317D2629292F2826292929CC
:1007F0002630484D402038080808080808080838FE
:100800002F10C8ACBA2F102834FA00007B00000863
:10081000142A142222142A14085500550055AA55EA
:10082000AA55AAFF55FF55FF000000FF0010101049
:10083000FF00141414FF001010FF00FF1010F01040
:10084000F0141414FC001414F700FF0000FF00FF64
:100850001414F404FC141417101F10101F101F148C
:1008600014141F00101010F0000000001F101010D2
:10087000101F10101010F010000000FF10101010CA
:100880001010101010FF10000000FF140000FF00F7
:10089000FF00001F10170000FC04F41414171017B9
:1008A0001414F404F40000FF00F7141414141414C6
:1008B00014F700F7141414171410101F101F141439
:1008C00014F4141010F010F000001F101F000000AE
:1008D0001F14000000FC140000F010F01010FF10B6
:1008E000FF141414FF141010101F00000000F0106B
:1008F000FFFFFFFFFFF0F0F0F0F0FFFFFF00000050
:100900000000FFFF0F0F0F0F0F3844443844FC4A1C
:100910004A4A347E02020606027E027E026355497E
:1009200041633844443C04407E201E2006027E027F
:100930000299A5E7A5991C2A492A1C4C7201724C00
:10094000304A4D4D303048784830BC625A463D3EC2
:10095000494949007E0101017E2A2A2A2A2A444463
:100960005F444440514A444040444A51400000FFE3
:100970000103E080FF000008086B6B083612362484
:1009800036060F090F0600001818000000101000AE
:100990003040FF0101001F01011E00191D17120048
:1009A0003C3C3C3C0000000000000103070F1F3FDF
:1009B0007F0080C0E0F0F8FCFEDB40A4A62EAF2054
:1009C00000A1C8D300408DAED580A8000060000013
:1009D000000000000000000000000000E000000037
:1009E0000000000000000000000001E00000000026
:1009F00000000000000000000001F0000000000006
:100A0000000000000000000003F0000000000000F3
:100A10000000000000000007F000000000000000DF
:100A200000000000000007F80000000000000000C7
:100A300000000000000FF800000003C0007E00006E
:100A400001E0007F0FF800000003C000FE0000017D
:100A5000E000FFEFF800000003C000FE000001E02E
:100A600000FFFFF800000003C000F00000000F00CE
:100A70007FFE7FC0000003C000F00000000F003FB9
:100A8000FE7FF83FF1FBCFFCFEF3BC3DEFE01FFE25
:100A90007FFF7FFBFFDFFEFEFFBC3DEFE01FC6FFD9
:100AA000FF7FFBFFDFFEFEFFBC3DEFE00FE3C7FE75
:100AB000787BC3DE1EF0FFBC3DEF0007FF87FC78AC
:100AC0007BC3DE1EF0F83C3DEF0001FFFFF0007B32
:100AD000C3C01EF0F03C3DEF0001F37FE03FFBC3DD
:100AE000CFFEF0F03C3DEF0003E33F807FFBC3DF30
:100AF000FEF0F03C3DEF0007E73C00787BC3DE1ED4
:100B0000F0F03C3DEF0007FFBE00787BC3DE1EF037
:100B1000F03C3DEF0007FFFE00787BC3DE1EF0F0E7
:100B20003C3DEF000FFFFE007FFBFFDFFEF0F03FDC
:100B3000FDEFE00FFFFF007FFBFFDFFEF0F03FFD6A
:100B4000EFE00FF9FF003E79F9CF9EF0F01F3DE78F
:100B5000E01FF1FF000000000000000000000000A6
:100B60001F80FF007FFFFFFFFFFFFFFFFFFFE01C75
:100B7000007F007FFFFFFFFEB46D888D18E000004E
:100B80001F007FFFFFFFFE95AD7DB577E000000FF2
:100B9000007FFFFFFFFEA5AD9D8D19E00000060060
:100BA0007FFFFFFFFEB5ADEDB57EE0000000000069
:100BB0000180000000000000000000038000000031
:100BC00000000000000007C000000000000000005E
:100BD0000007C00000000000000000000FC000007F
:100BE000000000000000001FE00000000000000006
:100BF00000001FE00000000000000000003FE000D7
:100C000000000000000000003FF0000000000000B5
:100C10000000007FF0000000000000001FF87FF0DF
:100C2000000000000000003FFE7FF0000000000018
:100C300000003FFF7FF0000000000000001FFFFBEE
:100C4000E0000000000000000FFFF9FFC0000000FE
:100C50000000000FFFF9FFF800000000000007FF90
:100C6000F1FFFF00000000000003FC73FFFF8000A5
:100C70000000000001FE3FFFFF80000000000000B8
:100C8000FF1E0FFF000000000000007FFE1FFC00A1
:100C90000000000000003FFFFFF80000000000001F
:100CA000000FDFFFE0000000000000001F19FFC080
:100CB000000000000000003F3CFF000000000000BA
:100CC00000007E7CF800000000000000007FFE7C39
:100CD0000000000000000000FFFFFC00000000001A
:100CE000000000FFFFFE0000000000000000FFFF0A
:100CF000FE0000000000000001FFEFFE0000000009
:100D000000000001FFCFFE0000000000000003FF14
:100D100007FE0000000000000003FC07FE000000CA
:100D20000000000003F003FE0000000000000001CE
:100D30008000FE000000000000000000007E0000B7
:100D400000000000000000003E0000000000000065
:100D50000000000C000000000000078000FC000004
:100D600003C0000000078001FC000003C000000079
:100D7000078001FC000003C0000000078001E000C4
:100D800000001E000000078001E00000001E007F40
:100D9000E3F79FF9FDE7787BDFC0FFF7FFBFFDFDBD
:100DA000FF787BDFC0FFF7FFBFFDFDFF787BDFC073
:100DB000F0F787BC3DE1FF787BDE00F0F787BC3DB4
:100DC000E1F0787BDE0000F787803DE1E0787BDEB4
:100DD000007FF7879FFDE1E0787BDE00FFF787BFAC
:100DE000FDE1E0787BDE00F0F787BC3DE1E0787B59
:100DF000DE00F0F787BC3DE1E0787BDE00F0F787AE
:100E0000BC3DE1E0787BDE00FFF7FFBFFDE1E07F66
:100E1000FBDFC0FFF7FFBFFDE1E07FFBDFC07CF33E
:100E2000F39F3DE1E03E7BCFC000000000000000EA
:100E300000000000FFFFFFFFFFFFFFFFFFFFC0FFFD
:100E4000FFFFFFFD68DB111A31C0FFFFFFFFFD2B25
:100E50005AFB6AEFC0FFFFFFFFFD4B5B3B1A33C03D
:100E6000FFFFFFFFFD6B5BDB6AFDC020286D6D3A65
:100E70007373290062792056616E6E6920303337B2
:100E80000050534E2D50726573657065210070726D
:100E9000696D612072696761200076616C6F7269AB
:100EA00020696E636F6572656E7469004572726F5A
:100EB0007269200055736F2076616C6F72692064CF
:100EC000656661756C7400206576656E74692000D6
:100ED00052696768652000534420415353454E547E
:100EE00045004D414E434120505245534550452EFB
:100EF000494E4900494E4920434F4E204552524FDA
:100F0000524900204F4B004D4943524F205344005B
:100F1000424F4F543A20636F6D706C657461746F0B
:100F20000050524F4E544F004341534554544500D6
:100F30005354454C4C45005452414D4F4E544F0074
:100F40004349454C4F00414C424100424F4F543AB7
:100F5000206175746F746573742076697369766F38
:100F600020757363697465202B206D656C6F6469EF
:100F7000612062757A7A6572206F707A696F6E612E
:100F80006C6500252061200020706978656C2C203C
:100F900061636365736520646120004361736574F8
:100FA00074653A200020706978656C2C2061747437
:100FB00069766520005374656C6C653A2000204F9B
:100FC000464600204F4E00202800252072656C65A3
:100FD00027200020002020006E6F2F636F6E746149
:100FE00074746F20617373656E7465007369004576
:100FF00076656E74692072656C65273A20004661DB
:10100000736920253A200044757261746520287345
:10101000293A200053636865646120696E736572C4
:101020006974612028443439293A2000617373655A
:101030006E7465206F206E6F6E206C6567676962E5
:10104000696C65202D3E2064656661756C74007363
:1010500063686564612070726573656E7465206D88
:101060006120505245534550452E494E49202F206E
:10107000505245534550452E545854206D616E636F
:10108000616E7465202D3E2064656661756C740028
:10109000290020287072696D613A2000206C657407
:1010A000746F2C2072696768652069676E6F726162
:1010B00074653A2000206C6574746F2073656E7AD5
:1010C00061206572726F7269006D6963726F53445B
:1010D0003A20004F4C45443A206E6F6E2070726586
:1010E00073656E74652C20636F6E74696E756F2006
:1010F00073656E7A6120646973706C6179004F4C1E
:1011000045443A204F4B00506F73697A696F6E65A2
:1011100020706F74656E7A696F6D6574726F2041AF
:10112000303A2000207365636F6E64690044757205
:10113000617461206369636C6F20696D706F737493
:1011400061746120616C6C27617676696F3A20006A
:101150004435302D443533203D206D6963726F5323
:1011600044205350492028435320443533292C2010
:10117000443439203D2073636865646120696E736F
:10118000657269746100413020203D204455524110
:101190005441204349434C4F2028332073636167F7
:1011A0006C696F6E69206461205B4349434C4F5DFD
:1011B00029004432302F443231203D204F4C4544E9
:1011C00020493243203078334320286F707A696F8A
:1011D0006E616C652900443234203D2054455354DF
:1011E00000443233203D204156414E5449004432A0
:1011F00032203D2053544152542F53544F500044F9
:1012000034342F4434352F443436203D2052474265
:1012100020444553545241202F20414C4241004428
:10122000372F4431312F443132203D205247422064
:1012300053494E4953545241202F205452414D4F4F
:101240004E544F00443620203D2042555A5A4552B4
:10125000207061737369766F206F707A696F6E6149
:101260006C65004438203D2044415441205753329E
:1012700038313120434153455454450044352020F2
:101280003D204441544120575332383131202835D4
:1012900030207374656C6C652900443420203D2037
:1012A00052474220426C7500443320203D20524773
:1012B0004220566572646500443220203D2052472A
:1012C0004220526F73736F003D3D3D3D3D3D3D3DBE
:1012D0003D3D3D3D3D3D3D3D3D3D3D3D3D3D3D3D3E
:1012E0003D3D3D3D3D3D3D3D3D3D3D3D3D3D3D3D2E
:1012F00000205052455345504520434F4E54524FC5
:101300004C4C4552202D2052657620442028706197
:1013100072616D65747269206461206D6963726FBA
:10132000534429003D3D3D3D3D3D3D3D3D3D3D3D21
:101330003D3D3D3D3D3D3D3D3D3D3D3D3D3D3D3DDD
:101340003D3D3D3D3D3D3D3D3D3D3D3D00524950D6
:101350005245534100504155534100555343495460
:1013600041204D4F44414C4954412720544553544A
:10137000004156414E5449202D3E200054455354BF
:101380002031382F3334202D20545554544F2049C8
:101390004E5349454D4500544553542031372F3362
:1013A00034202D205455545445204C45204341535E
:1013B0004554544500544553542031362F3334207E
:1013C0002D204341534554544520424C550054452B
:1013D00053542031352F3334202D2043415345546D
:1013E0005445205645524449005445535420313405
:1013F0002F3334202D204341534554544520524F20
:1014000053534500544553542031332F3334202D4A
:10141000205455545445204C4520353020535445D4
:101420004C4C4500544553542031322F3334202D39
:10143000205354454C4C4520424C55005445535480
:101440002031312F3334202D205354454C4C45202E
:10145000564552444900544553542031302F3334BB
:10146000202D205354454C4C4520524F535345009A
:101470005445535420392F3334202D20414C4241C0
:1014800020424C55005445535420382F3334202DDE
:1014900020414C4241205645524445005445535446
:1014A00020372F3334202D20414C424120524F53BE
:1014B000534F005445535420362F3334202D20549D
:1014C00052414D4F4E544F20424C550054455354B9
:1014D00020352F3334202D205452414D4F4E544F40
:1014E000205645524445005445535420342F33343C
:1014F000202D205452414D4F4E544F20524F5353A4
:101500004F005445535420332F3334202D2043496A
:10151000454C4F20424C55005445535420322F33F4
:1015200034202D204349454C4F2056455244450018
:101530005445535420312F3334202D204349454CFA
:101540004F20524F53534F00202D20005F30002F6B
:101550003334202D204772705F300054455354209F
:101560000054455354203D20746573742073756393
:101570006365737369766F2C205354415254203D38
:101580002065736369003D3D3D204D4F44414C490A
:101590005441272054455354203D3D3D0050415572
:1015A00053410052554E00207C2000207C204130C9
:1015B0003A2000206D696E00207C206369636C6FA7
:1015C0003A20002500207C2000466173653A200007
:1015D00000002100240027002A002D0030003300E5
:1015E00001010000040107010A010000200023009E
:1015F000260029002C002F0032000001000003010A
:101600000601090100000A0B02090C0D0E08070370
:1016100004010000000000000000000000000000C5
:1016200000000000000000000000000000000000BA
:101630001211100000000000000000000000000077
:10164000000000000000000000007C3C3E5E2B3DDE
:101650003F2F5B5D3B2C2A225C002200FF21020110
:1016600002102020080810204010204080020102B3
:10167000010804020101020408102040808040207B
:1016800010080402018004020180402010080402B6
:101690000108040201010204081020408001020434
:1016A000081020408000002200250028002B002E7A
:1016B000003100340002010000050108010B0105A2
:1016C000050505070508080808020202020A0A08BB
:1016D00008040404040101010101010101030303E1
:1016E0000303030303040707070C0C0C0C0C0C0C7E
:1016F0000C0202020206060606060606060B0B0B85
:101700000B0B0B0B0B00ED520B6411241FBECFEF24
:10171000D1E2DEBFCDBF00E00CBF15E0A0E0B2E03B
:10172000ECE1F8ED00E00BBF02C007900D92A23B88
:10173000B107D9F72EE0A2EBB5E001C01D92A639A2
:10174000B207E1F71BE0C4E8DBE000E006C0219748
:101750000109802FFE010E946A6AC338D10780E028
:101760000807A9F70E9497530C94FC6B0C94000097
:1017700020912B0D30912C0D2F5F3F4F30932C0D6E
:1017800020932B0D20912D0D30912E0D232B21F424
:1017900090932E0D80932D0D0895089581508231E0
:1017A00008F05AC0E82FF0E08827E652F44F8F4F38
:1017B0000C946A6AFA0BFE0BEC0BF20BF60B2C0C7A
:1017C000010C070C0B0C110C150C190C1F0C230C25
:1017D0002C0C270C2D0C310C809180008F7780937E
:1017E00080000895809180008F7DF9CF80918000E6
:1017F000877FF5CF84B58F7784BD089584B58F7DBD
:10180000FBCF8091B0008F778093B00008958091D6
:10181000B0008F7DF9CF809190008F7780939000FA
:101820000895809190008F7DF9CF80919000877FFF
:10183000F5CF8091A0008F778093A00008958091CC
:10184000A0008F7DF9CF8091A000877FF5CF809198
:1018500020018F77809320010895809120018F7D52
:10186000F9CF80912001877FF5CFCF93DF93282F89
:1018700030E0F901EC5FF94E8491F901E15AF94E3B
:10188000D491F901E154F94EC491CC23A1F0811116
:101890000E94CE0BEC2FF0E0EE0FFF1FE651FA4E48
:1018A000A591B491EC91ED2381E090E009F480E002
:1018B000DF91CF91089580E090E0FACF1F93CF930E
:1018C000DF93282F30E0F901EC5FF94E8491F901A4
:1018D000E15AF94ED491F901E154F94EC491CC2367
:1018E000A9F0162F81110E94CE0BEC2FF0E0EE0F25
:1018F000FF1FEB55F94EA591B4918FB7F894EC9179
:10190000111108C0D095DE23DC938FBFDF91CF91FA
:101910001F910895DE2BF8CFCF93DF9390E0FC0169
:10192000E15AF94E24918154994EFC018491882307
:10193000C9F090E0880F991FFC01E053FA4EA59181
:10194000B491FC01EB55F94EC591D49161110DC0D4
:101950009FB7F8948C91209582238C9388812823BB
:1019600028839FBFDF91CF910895623051F49FB7D4
:10197000F8943C91822F809583238C93E8812E2BC1
:10198000EFCF8FB7F894EC912E2B2C938FBFEACF2B
:101990008F929F92AF92BF92CF92DF92EF92FF927F
:1019A000CF936C0180911A02863069F08F3F09F461
:1019B00077C0CF91FF90EF90DF90CF90BF90AF9026
:1019C0009F908F900895EEE5F6E1C491C7FDF1CFA9
:1019D00061E086E00E948C0CCC2319F0C23009F043
:1019E000C8C1F12CE12C60E072E18AE790E0A70128
:1019F00096010E94E26849015A01BA01A9014150C9
:101A00005109610971094F3F51056105710509F0DF
:101A10000CF494C160E472E48FE090E0A7019601B9
:101A20000E94E268BA01A901415051096109710996
:101A3000C23009F009C182E04F3F510561057105CF
:101A400009F00CF446C160E970ED83E090E0A70175
:101A500096010E94E268BA01A90141505109610949
:101A6000710983E04F3F51056105710509F00CF4E0
:101A700030C168E478EE81E090E0A70196010E9411
:101A8000E268BA01A90141505109610971094F3F4A
:101A900051056105710511F00CF02CC184E019C1EC
:101AA00086E080931A02EEE5F6E1C4918C2FCF3FD9
:101AB00009F47FCFC23009F468C060F4CC2379F117
:101AC000C13009F444C087FD74CF61E086E00E9414
:101AD0008C0C84CFC43009F499C008F478C0C530A8
:101AE00091F71092200110922101809121018860CC
:101AF0008093210180912101816080932101E5EC97
:101B0000F6E1E491F0E0EE0FFF1FEB55F94E859101
:101B10009491E5E6F6E1E491E093C40A59CF14BC50
:101B200015BC84B5826084BD85B5816085BDE5EC5A
:101B3000F6E1E491F0E0EE0FFF1FEB55F94E8591D1
:101B40009491E5E6F6E1E491E093CB0A41CF10925F
:101B500080001092810080918100886080938100D4
:101B600080918100816080938100E5ECF6E1E49151
:101B7000F0E0EE0FFF1FEB55F94E85919491E5E6ED
:101B8000F6E1E491E093CA0A23CF1092B0001092DC
:101B9000B1008091B00082608093B0008091B1006C
:101BA00081608093B100E5ECF6E1E491F0E0EE0FA6
:101BB000FF1FEB55F94E859194919093C90A80933C
:101BC000C80AE5E6F6E1E491E093C70A01CF109276
:101BD0009000109291008091910088608093910014
:101BE00080919100816080939100E5ECF6E1E491B1
:101BF000F0E0EE0FFF1FEB55F94E85919491E5E66D
:101C0000F6E1E491E093C60AC3E0E2CE1092A000B0
:101C10001092A1008091A10088608093A100809122
:101C2000A10081608093A100E5ECF6E1E491F0E091
:101C3000EE0FFF1FEB55F94E85919491E5E6F6E125
:101C4000E491E093C50AC4CE4F3F5105610571058B
:101C500009F00CF48CC068E478EE81E090E0A70114
:101C600096010E94E268BA01A90141505109610937
:101C70007109CC2309F449C14F3F51056105710534
:101C800009F00CF40BCF62E17AE780E090E0A70165
:101C900096010E94E268BA01A90141505109610907
:101CA0007109CC2309F41AC186E04F3F5105610543
:101CB000710579F070F0B501A4019AE0759567950A
:101CC000579547959A95D1F7415051096109710986
:101CD00087E09091B100987F892B8093B100C2304A
:101CE00009F4E9C00CF0E0C0CC2379F1C13009F06F
:101CF00060CE6DC064E274EF80E090E0A7019601D1
:101D00000E94E268BA01A9014150510961097109B3
:101D100085E04F3F510561057105D9F2D0F262E1CE
:101D20007AE780E090E0A70196010E94E268BA019C
:101D3000A9014150510961097109B6CF81E0C11172
:101D4000C8CF95B5987F892B85BD47BD8FEF9FEF95
:101D5000DC018093E00A9093E10AA093E20AB09339
:101D6000E30A80916E00826080936E0022CE82E052
:101D7000E6CFF12CE12C60E072E18AE790E0A70168
:101D800096010E94E268BA01A90141505109610916
:101D9000710991E04115510581E0680771057CF0FA
:101DA00068E478EE81E090E0A70196010E94E26885
:101DB000BA01A901415051096109710993E0C1308B
:101DC000D9F480918100887F892B80938100509382
:101DD0008900409388008FEF9FEFDC018093DC0A3D
:101DE0009093DD0AA093DE0AB093DF0A80916F0022
:101DF000826080936F00DDCDC330D9F48091910073
:101E0000887F892B8093910050939900409398008C
:101E10008FEF9FEFDC018093D40A9093D50AA093B3
:101E2000D60AB093D70A80917100826080937100C6
:101E3000C0CDC430D9F48091A100887F892B8093D4
:101E4000A1005093A9004093A8008FEF9FEFDC0101
:101E50008093D00A9093D10AA093D20AB093D30A68
:101E600080917200826080937200A3CDC53009F02A
:101E700036CF80912101887F892B80932101509357
:101E80002901409328018FEF9FEFDC018093CC0A5A
:101E90009093CD0AA093CE0AB093CF0A809173009D
:101EA00082608093730085CDC43059F20CF4ACCFBE
:101EB000C53029F37ECD4093B3008FEF9FEFDC0157
:101EC0008093D80A9093D90AA093DA0AB093DB0AD8
:101ED000809170008260809370006BCD84E04F3FF2
:101EE00051056105710509F008F42BCFB501A40176
:101EF0008AE075956795579547958A95D1F7415032
:101F000051096109710985E01CCF83E04F3F5105FC
:101F10006105710509F00CF414CFB5CE86532091FC
:101F20007B00982F987F277F922B90937B00877060
:101F3000806480937C0080917A00806480937A0032
:101F400080917A0086FDFCCF809178009091790095
:101F500008953FB7F8948091B9089091BA08A0917C
:101F6000BB08B091BC0826B5A89B05C02F3F19F04F
:101F70000196A11DB11D3FBFBA2FA92F982F882709
:101F8000BC01CD01620F711D811D911D42E0660FE4
:101F9000771F881F991F4A95D1F708958F929F92B6
:101FA000AF92BF92CF92DF92EF92FF926B017C01D2
:101FB0000E94A90F4B015C01C114D104E104F1049A
:101FC000B9F00E94A90F681979098A099B09683E2E
:101FD00073408105910580F321E0C21AD108E10820
:101FE000F10888EE880E83E0981EA11CB11CE4CF96
:101FF000FF90EF90DF90CF90BF90AF909F908F9029
:1020000008952FB7F8946091B5087091B608809143
:10201000B7089091B8082FBF08950895089590913A
:102020001A0289130DC0EEE5F6E1E4919FEF90935B
:102030001A02E230E1F038F4EE2381F0E13089F069
:1020400060E00C945E0CE43049F110F1E530C1F72A
:10205000909173009D7F90937300F2CF10926E0069
:10206000EFCF90916F009D7F90936F00E9CF90919B
:1020700070009D7F9093700091E09093B0009091DC
:10208000B100987F94609093B1001092B300D8CFC4
:10209000909171009D7F90937100D2CF90917200CA
:1020A0009D7F90937200CCCFDC01ED91FC9101906B
:1020B000F081E02D1994EF92FF920F931F93CF932D
:1020C000DF938C017B01D0E0C0E0F701EC0FFD1F36
:1020D0006491662361F0D801ED91FC910190F0814B
:1020E000E02DC8011995892B11F02196EECFCE0174
:1020F000DF91CF911F910F91FF90EF900895AF92D4
:10210000BF92CF92DF92EF92FF920F931F93CF93E4
:10211000DF936C017B018B01040F151FEB015E0146
:10212000AE18BF08C017D10759F06991D601ED91DB
:10213000FC910190F081E02DC6011995892B79F76A
:10214000C501DF91CF911F910F91FF90EF90DF902C
:10215000CF90BF90AF900895FC01538D448D252FF3
:1021600030E0842F90E0821B930B541710F0CF9631
:10217000089501970895FC01918D828D981761F063
:10218000A28DAE0FBF2FB11D5D968C91928D9F5F7A
:102190009F73928F90E008958FEF9FEF0895FC0159
:1021A000918D828D981731F0828DE80FF11D858D0C
:1021B00090E008958FEF9FEF0895FC01918D228D9F
:1021C000892F90E0805C9F4F821B91098F73992724
:1021D000089580E39DE00E94DD1021E0892B09F441
:1021E00020E0822F0895FC01A48DA80FB92FB11D06
:1021F000A35ABF4F2C91848D90E001968F7399273D
:10220000848FA689B7892C93A089B1898C9183701A
:1022100080648C93938D848D981306C00288F38913
:10222000E02D80818F7D80830895EF92FF920F9340
:102230001F93CF93DF93EC0181E0888F9B8D8C8D72
:1022400098131AC0E889F989808185FF15C09FB766
:10225000F894EE89FF896083E889F9898081837029
:10226000806480839FBF81E090E0DF91CF911F91D8
:102270000F91FF90EF900895F62E0B8D10E00F5FF9
:102280001F4F0F731127E02E8C8D8E110CC00FB6CF
:1022900007FCFACFE889F989808185FFF5CFCE0167
:1022A0000E94F310F1CFEB8DEC0FFD2FF11DE35ADF
:1022B000FF4FF0829FB7F8940B8FEA89FB898081EA
:1022C0008062CFCFCF93DF93EC01888D8823B9F064
:1022D000AA89BB89E889F9898C9185FD03C0808131
:1022E00086FD0DC00FB607FCF7CF8C9185FFF2CFAE
:1022F000808185FFEDCFCE010E94F310E9CFDF9101
:10230000CF91089580E090E0892B29F00E94E91098
:1023100081110E94000080E090E0892B49F080E06C
:1023200090E0892B29F00E94000081110E9400009A
:1023300080E090E0892B49F080E090E0892B29F043
:102340000E94000081110E94000080E090E0892B33
:1023500049F080E090E0892B29F00E940000811173
:102360000C9400000895FC01DB0112968D919C9164
:102370001397938382838CEE92E0918380831496EB
:102380008C911497848315968C9115978583169656
:102390004D915D916D917C9119974683578360872C
:1023A00071871A964D915D916D917C911D97428731
:1023B0005387648775871E964D915D916D917C91D1
:1023C000519746875787608B718B52968C915297A5
:1023D000828B53964D915D916D917C915697438B75
:1023E000548B658B768B57964D915D916D917C9159
:1023F0005A97478B508F618F728F5B968D919C910E
:10240000948F838F0895DC015996ED91FC9130975C
:10241000B9F083899489A589B689428553856485F5
:102420007585841B950BA60BB70B811520E89207C9
:10243000A105B10538F08FEF9FE7A0E0B0E0089567
:1024400090E080E00895DC0159968D919C91009771
:1024500039F0DC01ED91FC910480F581E02D1994B7
:1024600090E080E00895CF93DF931F92CDB7DEB761
:102470006983DC01ED91FC910280F381E02D41E064
:1024800050E0BE016F5F7F4F19950F90DF91CF91A4
:102490000895EF92FF920F931F93CF93DF93EC0178
:1024A000EC80FD806E157F050CF070C057FF04C0F6
:1024B000240F351F50E040E08E819F81FA01E20F2A
:1024C000F31F8E179F071CF49C01241B350B12165B
:1024D00013060CF05BC0922F842F86958695869507
:1024E0008E9DD0018F9DB00D11246A0F7B1FAF8D83
:1024F000B8A1A60FB71F477049F188E0841B482F89
:10250000682F70E0FB01EF54F64FE491281708F0B4
:1025100063C0621B71092FEF30E002C0359527952B
:102520006A95E2F7E2230130110539F0B0F102308B
:10253000110561F58C91E82702C08C91E82BEC9392
:10254000941720F12C813D81A20FB31FE92FE41BCA
:10255000E83078F00230110521F58E2F9C9190958E
:102560009C932C813D81A20FB31F88508830B0F717
:10257000E770EE2359F0F0E0E755F64FE4910130B3
:102580001105F9F010F10230110519F1DF91CF9129
:102590001F910F91FF90EF900895E0958C91E823A3
:1025A000CECF81E00115110509F480E081959E2FC1
:1025B0008C932C813D81A20FB31F98509830C0F7A7
:1025C000D7CF8C91E82BEC93E1CFE0958C91E82369
:1025D000FACF8C91E827F7CF0130110509F4ADCF80
:1025E000E0F20230110509F4A5CFAE0DBF1DAECF4C
:1025F0000F931F93CF93DF9377FF04C0260F371FEE
:1026000070E060E0DC011496CD91DC91FB01E20FFB
:10261000F31FCE17DF071CF49E01261B370B121683
:1026200013064CF5FA0157FD3796A3E0F595E795AB
:10263000AA95E1F7EC9FD001ED9FB00DFC9FB00D86
:1026400011246A0F7B1FDC015F96ED91FC91E60F70
:10265000F71F4770552781E090E001C0880F4A9529
:10266000EAF7482F0130110559F0A8F02E0F3F1F4F
:1026700002301105E1F0DF91CF911F910F91089584
:102680002E0F3F1FE217F307B1F38191DF0111977E
:10269000842B8C93F7CF80952E0F3F1FE217F30703
:1026A00051F39191DF01119798239C93F7CFE21793
:1026B000F30709F38191DF01119784278C93F7CFFA
:1026C0000F931F93FA01DC0156964C9156974230B6
:1026D000E9F04330A1F1413061F514964D915C91E0
:1026E000DA01AE1BBF0BFD01E21BF30B77FD0BC044
:1026F000DC0116964D915C916417750724F4AB01CB
:10270000BF010E94F8121F910F91089514964D91E8
:102710005C91DA01A61BB70BBD0161507109DC01A8
:1027200016964D915C91DA01AE1BBF0BFD01E21BC9
:10273000F30B77FDE8CFAF010E944912E4CF169664
:102740004D915C91DA01A61BB70BBD016150710977
:10275000CDCF0F931F93FA01DC0156964C915697FB
:102760004230A9F0433091F1413019F514964D9162
:102770005C91DA01AE1BBF0BFD013197F7FD04C080
:10278000AB01BF010E9449121F910F910895149649
:102790004D915C91DA01A61BB70BBD01DC011696C9
:1027A0004D915C91DA01AE1BBF0BFD013197621BAD
:1027B000730BF7FDE9CFDC0116964D915C91E417A0
:1027C000F50714F7AF010E94F812DECF16964D916F
:1027D0005C91DA01A61BB70BBD01621B730BCECF58
:1027E000FC0177FD64C080859185681779070CF03E
:1027F0005EC057FD5CC082859385481759070CF071
:1028000056C086898230B1F0833029F1813041F49D
:1028100084819581841B950BAB01BC0161507109CA
:102820002130310509F108F443C02230310509F4A3
:1028300063C0089584819581DC01A61BB70BBD019F
:102840006150710986819781DC01A41BB50BAD0134
:1028500041505109E5CF86819781861B970BBA01BC
:10286000AC0141505109DCCFCA0157FD0796A3E0E6
:1028700095958795AA95E1F7A481B5818A9F9001E6
:102880008B9F300D9A9F300D1124620F731F078CA0
:10289000F0A1E02DE60FF71F4770552721E030E04B
:1028A00001C0220F4A95EAF78081822B8083089528
:1028B000CA0157FD079633E0959587953A95E1F75C
:1028C000A481B5818A9F90018B9F300D9A9F300D16
:1028D0001124620F731F078CF0A1E02DE60FF71F84
:1028E0004770552781E090E001C0880F4A95EAF7CC
:1028F000809590818923DACFCA0157FD079623E09E
:10290000959587952A95E1F7A481B5818A9F9001D5
:102910008B9F300D9A9F300D1124620F731F078C0F
:10292000F0A1E02DE60FF71F4770552721E030E0BA
:1029300001C0220F4A95EAF780818227B7CFCF9353
:10294000CFB7F8948091AA07811127C0E4EFF6E190
:102950008491E4E9F6E19491E82FF0E0EE0FFF1F97
:10296000E053FA4EA591B491EC91E92321F461E092
:1029700085E30E945E0C61E085E30E948C0C8CB5BF
:1029800080618CBD8CB580648CBD61E084E30E9465
:102990008C0C61E083E30E948C0C8091AA078F5F0E
:1029A0008093AA07CFBFCF910895089561E0FC01FD
:1029B00084810E945E0C8091AB0781111092AB075D
:1029C00008958EBD00000DB407FEFDCF8EB50895AD
:1029D0008FEF0C94E1140F931F93CF93DF93EC01CF
:1029E0000E9401108B010E94E8148F3F69F00E9441
:1029F0000110601B710B6C177D07A8F380E0DF915D
:102A0000CF911F910F91089581E0F9CF8CBD9DBDAD
:102A10000895CF93DF93EC018091AB07811109C03A
:102A200081E08093AB078091CD0D9091CE0D0E94F7
:102A3000061560E08C81DF91CF910C945E0C8F9233
:102A40009F92AF92BF92FF920F931F93CF93DF930A
:102A5000EC01F62E49015A018E81882389F08F817D
:102A600098859C012F5F3F4F38872F83823092409B
:102A700018F40E94E814F3CFCE010E94D6141E82EF
:102A8000CE010E9409158CE291E00E94EB148F2D7B
:102A900080640E94E11408E110E0D501C401002E19
:102AA00004C0B695A795979587950A94D2F70E948A
:102AB000E11408501109083F8FEF180771F785E9F5
:102AC000FF2021F028E087E8F2128FEF0E94E11446
:102AD00010E00E94E8148A8787FF04C01F3F11F0AE
:102AE0001F5FF7CFDF91CF911F910F91FF90BF90A4
:102AF000AF909F908F900895AF92BF92CF92DF9248
:102B0000EF92FF920F931F93CF93DF93EC01690134
:102B1000C801820F931F8130924050F58E81882327
:102B200079F088819981AA81BB8184179507A607CE
:102B3000B70731F48F819885C816D90608F042C0CE
:102B4000488359836A837B838B85833039F089E09E
:102B5000440F551F661F771F8A95D1F79A01AB0165
:102B600061E1CE010E941F15882389F083E08D83E7
:102B7000CE010E94D61480E0DF91CF911F910F917A
:102B8000FF90EF90DF90CF90BF90AF9008950E949C
:102B900001105B010E94E8148A878F3F69F40E944C
:102BA00001106A197B096D327140A0F38FE08D83AB
:102BB000CE010E94D614DCCF8E3F89F418861F8286
:102BC00081E08E838F8198858C159D0550F40E943D
:102BD000E8148F819885019698878F83F3CF8DE0D5
:102BE000E6CF6701E00EF11E0E94E814F601819322
:102BF0006F01EE15FF05C1F78F819885080F191F2A
:102C000018870F838985882319F001151240A0F0D9
:102C10008E81882389F08F8198859C012F5F3F4F9B
:102C200038872F838230924018F40E94E814F3CF43
:102C3000CE010E94D6141E8281E09ECFCF92DF92F9
:102C4000EF92FF920F93CF93DF93EC01690182E142
:102C5000411551056105710599F08B85833039F077
:102C600089E0440F551F661F771F8A95D1F79A0197
:102C7000AB0168E1CE010E941F15882319F084E0A2
:102C80008D832DC08EEF0E94E11476018EEFD81A4D
:102C9000F70181917F010E94E114EC14FD04C1F75A
:102CA0008FEF0E94E1148FEF0E94E1140E94E8145C
:102CB0008A878F71853071F4011116C0CE010E9490
:102CC000D61481E0DF91CF910F91FF90EF90DF90CC
:102CD000CF90089581E18D83CE010E94D614CE015C
:102CE0000E94D61480E0EECF88E592E00E94EB14BB
:102CF000811102C085E1C4CF20E030E0A9016DE080
:102D0000CE010E941F15882311F084E1B9CF0E94E3
:102D1000E8148111FACFD2CF0F934091AC075091B4
:102D2000AD076091AE077091AF0741155105610580
:102D3000710599F0082F20EC38E08091BD08909142
:102D4000BE080E941E16882349F01092AC0710920C
:102D5000AD071092AE071092AF0781E00F91089572
:102D60000F93CF93C82F8091BF08811105C0C1E098
:102D70008C2FCF910F910895409116025091170218
:102D800060911802709119020C2F20EC38E08091AC
:102D9000BD089091BE080E941E16811102C0C0E0BD
:102DA000E7CFCC2321F381E00E948C168823B9F36E
:102DB0001092BF08DDCF8F929F92AF92BF92EF9299
:102DC000FF920F931F93CF934B015C01C42F80910F
:102DD000160290911702A0911802B091190288155D
:102DE0009905AA05BB0551F181E00E94B016811139
:102DF0000BC080E0CF911F910F91FF90EF90BF909B
:102E0000AF909F908F90089580ECE82E88E0F82E88
:102E100000E012E030E020E0B501A4018091BD089F
:102E20009091BE080E947C15882319F380921602A7
:102E300090921702A0921802B09219024091BF0816
:102E40004C2B4093BF0881E0D5CF8F929F92AF92D9
:102E5000BF92CF92DF92EF92FF92CF932FEC3DE0A3
:102E60003093BE082093BD08882309F46DC040E06C
:102E700060E070E0CB010E94DB1681110BC080E0A6
:102E8000CF91FF90EF90DF90CF90BF90AF909F9049
:102E90008F90089580917E0A8F7789F780918A0AB2
:102EA00090918B0AA0918C0AB0918D0A843691057D
:102EB000A105B10520F3C090860AD090870AE09062
:102EC000880AF090890AC114D104E104F104B9F22E
:102ED00040E0C701B6010E94DB16882381F2809191
:102EE000CB089091CC088115924049F6A091D0086A
:102EF000AA2329F26091CE087091CF08611571055F
:102F000009F4BDCF2091CD08222309F4B8CFA093B6
:102F1000ED0D2093DF0D90E080E030E0E1E0F0E0A7
:102F2000C82FAF01082E02C0440F551F0A94E2F7C4
:102F30002417350769F041E0480F01968930910563
:102F400079F74093E80D9BCFC12CD12C7601C0CFEF
:102F50008093E80D2091D6083091D70850E040E0EA
:102F60002115310541F42091E4083091E5084091A4
:102F7000E6085091E7082093E00D3093E10D40936F
:102F8000E20D5093E30D46015701860E971EA11CDA
:102F9000B11C8092EE0D9092EF0DA092F00DB092C8
:102FA000F10DE091D108F091D208F093F40DE09387
:102FB000F30DB0E00E940169DC01CB01880D991D81
:102FC000AA1DBB1D8093F50D9093F60DA093F70DF0
:102FD000B093F80D25E0EE0FFF1F2A95E1F7E150C1
:102FE000FE4FEF2FFF27E6958E0F9F1FA11DB11DEE
:102FF0008093E90D9093EA0DA093EB0DB093EC0D47
:103000008090D3089090D408B12CA12C8114910405
:1030100041F48090E0089090E108A090E208B09020
:10302000E308C81AD90AEA0AFB0AC80CD91CEA1C28
:10303000FB1C04C0F694E794D794C794CA95D2F7C2
:10304000C092E40DD092E50DE092E60DF092E70D0E
:1030500085EFC8168FE0D806E104F10428F48CE06F
:103060008093F20D81E00CCF80E125EFC2162FEFA7
:10307000D206E104F104A0F38091EC089091ED08F0
:10308000A091EE08B091EF088093F50D9093F60DA6
:10309000A093F70DB093F80D80E2E2CF4F925F92CC
:1030A0006F927F928F929F92AF92BF92CF92DF9258
:1030B000EF92FF920F931F93CF93DF93EC01423077
:1030C00051056105710590F480E0DF91CF911F916A
:1030D0000F91FF90EF90DF90CF90BF90AF909F90B7
:1030E0008F907F906F905F904F90089589859A851B
:1030F000AB85BC850196A11DB11D84179507A60758
:10310000B70710F3CB88DC88ED88FE888F89803183
:1031100009F042C0BB27A72F962F852F48015901E0
:103120002A013B01C80ED91EEA1EFB1E8091160221
:1031300090911702A0911802B0911902C816D906F1
:10314000EA06FB0699F58F898031C1F5B301A2012A
:10315000552766277727440F551F4054574FFA01CC
:10316000918280828091BF0881608093BF088A89A4
:10317000823080F08D819E81AF81B8858C0D9D1D40
:10318000AE1DBF1D8093AC079093AD07A093AE0713
:10319000B093AF0781E099CFDB01CA01E7E0B695B4
:1031A000A79597958795EA95D1F7B8CF40E0C701E5
:1031B000B6010E94DB168111C6CF86CFB301A201F2
:1031C0004F77552766277727440F551F440F551F04
:1031D0004054574FFA0180829182A282B382C2CFBB
:1031E0008F929F92AF92BF92CF92DF92EF92FF9217
:1031F0000F931F93CF93DF93FC0181859285A38565
:10320000B4850196A11DB11D84179507A607B707C0
:1032100070F480E0DF91CF911F910F91FF90EF90BC
:10322000DF90CF90BF90AF909F908F90089583884C
:103230009488A588B6888789803189F5BB27A72F10
:10324000962F852FE9016A017B018F01BC01CD0119
:10325000680D791D8A1D9B1D8090160290901702A3
:10326000A0901802B090190286169706A806B90613
:1032700001F5F8018789803111F5DD24EE24FF2462
:10328000F601EE0FFF1FE054F74F80819181B0E00F
:10329000A0E088839983AA83BB8381E0BBCFDB0155
:1032A000CA01C7E0B695A79597958795CA95D1F7B6
:1032B000C9CF40E00E94DB168111DBCFAACFE89492
:1032C000C7F8DD24EE24FF24F601EE0FFF1FEE0FFA
:1032D000FF1FE054F74F80819181A281B381BF70BD
:1032E000D8CF4F925F926F927F92AF92BF92CF9260
:1032F000DF92EF92FF920F931F93CF93DF9300D053
:103300001F92CDB7DEB78C0149835A836B837C83D0
:103310005901C12CD12C7601412C82E0582E612C10
:10332000712C49815A816B817C819E012F5F3F4FB7
:10333000C8010E94F018882339F1F8018585A3019E
:10334000920104C0220F331F441F551F8A95D2F7E4
:10335000DA01C901C80ED91EEA1EFB1E49815A8135
:103360006B817C818789803111F188EF9FEFAFEF0E
:10337000BFE0481759076A077B0798F2F501C0823A
:10338000D182E282F38281E00F900F900F900F9034
:10339000DF91CF911F910F91FF90EF90DF90CF9031
:1033A000BF90AF907F906F905F904F90089588EF9F
:1033B0009FEFA0E0B0E0DDCFCF93DF93FC0125814C
:1033C000222321F080E0DF91CF910895EC018091DC
:1033D000F20D803159F582E08583178A108E118EA7
:1033E000128E8091F30D9091F40DB0E0A0E025E0F5
:1033F000880F991FAA1FBB1F2A95D1F7838B948B27
:10340000A58BB68B8BED9DE09C8F8B8F81E08C83A1
:103410001E821F82188619861A861B861C861D86A8
:103420001E861F86188A198A1A8ACDCF803251F6D5
:1034300083E085834091F50D5091F60D6091F70D75
:103440007091F80D478B508F618F728F9F012D5EA9
:103450003F4F8BED9DE00E9471198111D3CFB2CF08
:103460008F929F92AF92BF92CF92DF92EF92FF9294
:103470000F931F93CF93DF93EC018D8181110EC0C9
:1034800080E0DF91CF911F910F91FF90EF90DF903F
:10349000CF90BF90AF909F908F9008950B891C891B
:1034A0002D893E89041715072607370748F34A0177
:1034B0005B01823031F48A869B86AC86BD8681E0D2
:1034C000E0CF81149104A104B10449F41E821F824B
:1034D000188619861A861B861C861D86F0CF0A85DB
:1034E0001B852C853D85EB8DFC8D858590E00996AF
:1034F000B901A8014150510961097109082E04C0A0
:1035000076956795579547950A94D2F775016401AA
:10351000E1E0CE1AD108E108F10804C0F694E7947E
:10352000D794C7948A95D2F7C416D506E606F7064F
:1035300020F0012B022B032B11F58F89988DA98D7B
:10354000BA8D8E839F83A887B9878E010A5F1F4F2C
:10355000C114D104E104F10409F4ADCF4E815F81BF
:103560006885798598018B8D9C8D0E94F01891E07B
:10357000C91AD108E108F1088111EACF81CFC41A34
:10358000D50AE60AF70AE1CF3F924F925F926F9217
:103590007F928F929F92AF92BF92CF92DF92EF92E3
:1035A000FF920F931F93CF93DF93CDB7DEB72C9786
:1035B0000FB6F894DEBF0FBECDBF5C01DC015B9699
:1035C0008D909C905C9716964D905D906D907C9040
:1035D0001997411451046104710409F468C0BFEFE4
:1035E0004B1A5B0A6B0A7B0A312CF40181859285A8
:1035F000A385B4859C01AD012F5F3F4F4F4F5F4FB7
:1036000029873A874B875C87730162011D821E827E
:103610001F821886F40181859285A385B4852D814A
:103620003E814F815885281739074A075B0708F004
:1036300056C089859A85AB85BC858C159D05AE05E0
:10364000BF0550F482E0C82ED12CE12CF12C92E081
:10365000492E512C612C712C9E012F5F3F4FB701D9
:10366000A601C4010E94F0188823C9F189819A81BA
:10367000AB81BC81892B8A2B8B2B09F12601370169
:103680009FEF491A590A690A790A2D813E814F81B3
:1036900058852F5F3F4F4F4F5F4F2D833E834F83A2
:1036A00058873FEFC31AD30AE30AF30AB3CFF401F2
:1036B00040805180628073803324339496CFC41449
:1036C000D504E604F70409F70FEF1FEF2FEF3FE0F3
:1036D000B701A601C4010E944E18811119C080E0F3
:1036E0002C960FB6F894DEBF0FBECDBFDF91CF9101
:1036F0001F910F91FF90EF90DF90CF90BF90AF9010
:103700009F908F907F906F905F904F903F90089523
:10371000D50116964D915D916D917C91199741154A
:1037200051056105710539F097018601C4010E94B8
:103730004E188823A1F2D5011696CD92DD92ED9216
:10374000FC921997332051F0D701C6010196A11DB3
:10375000B11DF40180839183A283B383F50187892E
:10376000908DA18DB28D892B8A2B8B2B39F484817E
:10377000C78AD08EE18EF28E80688483F5018481C1
:103780008062848381E0ACCF2F923F924F925F9210
:103790006F927F928F929F92AF92BF92CF92DF9261
:1037A000EF92FF920F931F93CF93DF9300D0CDB78B
:1037B000DEB7FC018581811118C08FEF9FEF0F905C
:1037C0000F900F90DF91CF911F910F91FF90EF908D
:1037D000DF90CF90BF90AF909F908F907F906F9031
:1037E0005F904F903F902F900895848180FFE5CFA8
:1037F000438954896589768982859385A485B585B1
:10380000312C212C481759076A077B0719F022240D
:103810002394312C6F012101CE0101963C01DF017F
:103820001696BB83AA834114510409F4C5C0F6015E
:1038300042855385648575854A01F1E09F22D60152
:103840005B968D919C915C978A019B01E9E036958E
:10385000279517950795EA95D1F71596EC91E230E3
:10386000E9F5FC01628D738D848D958D600F711F5C
:10387000821F931FA12C22E0B22EA818B9084A1467
:103880005B0408F45201F601248126FD04C0A11452
:10389000F2E0BF0671F40091160210911702209118
:1038A000180230911902061717072807390709F07F
:1038B0005EC040E00E94DB16882309F47ECFC4017D
:1038C0008054974FD3019C012A0D3B1DFC012E17FC
:1038D0003F0709F46CC041914D93F9CFDC01149678
:1038E000BC90BA94B0228114910479F4B1100DC047
:1038F000452B462B472B69F5F6018789908DA18DC5
:10390000B28D86839783A087B187D6015B96ED91B0
:10391000FC915C9716966D917D918D919C91199774
:103920006250710981099109258504C0660F771FCE
:10393000881F991F2A95D2F7068517852089318916
:10394000600F711F821F931F6B0D711D811D911DD3
:1039500091CFD60116964D915D916D917C911997FD
:103960002A813B810E94F0188111CFCF26CF7301AD
:1039700085019401AB01BC018091BD089091BE0806
:103980000E947C15882309F418CF6A0C7B1CF60171
:1039900082859385A485B5858A0D9B1DA11DB11DCA
:1039A00082879387A487B5874A185B083CCF281B7A
:1039B000390B620E731EEBCF2A94232809F0FDCE3B
:1039C000898190E0FCCEFC01818D928D009711F0F1
:1039D0000C94C41B8FEF9FEF08950F931F93CF9309
:1039E000DF93EC01898D9A8D10E000E0009799F04B
:1039F0000E94C41B8C010F3F100769F0898D9A8DBE
:103A0000FC014285538564857585415051096109E2
:103A100071090E94301AC801DF91CF911F910F9157
:103A200008951F93CF93DF93FC0125812223D1F1C9
:103A3000162FEC01848187FF2AC0668577858089EF
:103A4000918941E00E94DB16882361F1EA8980E2D6
:103A5000E89FF0011124E054F74F309719F18D8160
:103A6000823040F48B899C89AD89BE89848F958F83
:103A7000A68FB78F8F89988D938F828F8F89988D1E
:103A8000A98DBA8DB58BA48B8C818F778C83111106
:103A900003C08C818F7E8C83812FDF91CF911F910A
:103AA0000C94B01680E0DF91CF911F910895FF92A2
:103AB0000F931F93CF93DF93EC018D81813041F001
:103AC00090E080E0DF91CF911F910F91FF900895DA
:103AD0008C8181FFF5CF82FD1BC00091BD08109144
:103AE000BE08C8010E9409150E94E814F82EC801FA
:103AF0000E94D6148FEFF812E3CF8C8185FF1BC094
:103B000060E0CE010E94111D8C818F7D8C83D8CF07
:103B10004B895C896D897E898A859B85AC85BD854D
:103B200084179507A607B707C1F2CE010E94301A85
:103B30008111D3CFC5CF4091AC075091AD076091B3
:103B4000AE077091AF07452B462B472B21F080E045
:103B50000E948C16B5CF80618C832A853B8531709D
:103B600080E092E0821B930BADCFCF93DF93EC010B
:103B700061E00E94111D882311F01D8281E0DF9118
:103B8000CF910895FC01818D928D009719F061E02D
:103B90000C94111D08952F923F924F925F926F9255
:103BA0007F928F929F92AF92BF92CF92DF92EF92CD
:103BB000FF920F931F93CF93DF9300D01F921F921A
:103BC000CDB7DEB77C015B01342E5D83DC01159639
:103BD0008C911597813009F0CEC014962C9021FE5F
:103BE000CAC022FCB4C0C32CDD8022947FE027220F
:103BF0002094B22DB1702B2ED7011A964D915D9164
:103C00006D917C911D97C114D10409F428C15B9674
:103C10008D919C915C97FC0174807A948A019B0140
:103C200069E036952795179507956A95D1F7702223
:103C30008A011170711020C001151105E9F4169662
:103C40004D915D916D917C911997411551056105DB
:103C5000710509F099C057968D919D910D90BC9179
:103C6000A02D0097A105B10509F0B0C0C7010E94C1
:103C7000C41A882309F47FC080E092E0801B910B76
:103C800046018C159D0508F44C01D7015B964D91BA
:103C90005C915C9716968D919D910D90BC91A02D95
:103CA0000297A109B109FA01258504C0880F991F5F
:103CB000AA1FBB1F2A95D2F746855785608971894F
:103CC000840F951FA61FB71F9C01AD01270D311D45
:103CD000411D511D29013A01811432E0930609F07A
:103CE0007BC08091160290911702A0911802B091AA
:103CF000190284159505A605B70559F48FEF9FEFB6
:103D0000DC018093160290931702A0931802B093DF
:103D10001902022D9501B301A2018091BD08909175
:103D2000BE080E941E16882331F19EEFB91AC818EA
:103D3000D908F70182859385A485B585880D991DDD
:103D4000A11DB11D82879387A487B58755CFF70141
:103D5000438954896589768982859385A485B5854B
:103D6000481759076A077B0709F43DCFC7010E942E
:103D7000301A811138CF81E090E0D70113969C93DF
:103D80008E93129780E007C09E012F5F3F4F0E94E5
:103D9000F018811102C090E079C089819A81AB81CD
:103DA000BC81F701238D348DF901278948EF5FEF3E
:103DB00060E070E0203121F048EF5FEF6FEF7FE0CF
:103DC00084179507A607B70708F050CFF701868339
:103DD0009783A087B18750CF0115110599F5D701B9
:103DE0001A964D915D916D917C911D9753968D9191
:103DF0009D910D90BC91A02D481759076A077B072C
:103E000008F181E00E94B016882309F4B4CF4092F3
:103E10001602509217026092180270921902809155
:103E2000BF0881608093BF08C8018054974FD501B7
:103E30009C01280D391DFC012E173F0759F04D91AB
:103E40004193FACF41E0C301B2010E94DB16811118
:103E5000EBCF91CF281B390BA20EB31E68CFF70111
:103E600083899489A589B68984179507A607B7071A
:103E700038F48481438B548B658B768B8068848384
:103E8000F701848183FD1AC0832D9D810F900F90CF
:103E90000F900F900F90DF91CF911F910F91FF9096
:103EA000EF90DF90CF90BF90AF909F908F907F90DA
:103EB0006F905F904F903F902F90089561E0C70101
:103EC0000E94111D882309F456CFDECFCF93DF93D4
:103ED0001F92CDB7DEB7698341E050E0BE016F5F4E
:103EE0007F4F0E94CB1D0F90DF91CF910895CF930C
:103EF000DF93EC01E98DFA8D309749F481E090E091
:103F00009B838A8390E080E0DF91CF9108951382B4
:103F10001282898D9A8D0E94CB1DE98DFA8D2281A6
:103F20003381232B59F7F0CF0895FC016370668B22
:103F30008481958126813781613039F0633029F0A1
:103F400091878087338722870895318720879387D9
:103F5000828708952F923F924F925F926F927F9245
:103F60008F929F92AF92BF92CF92DF92EF92FF9289
:103F70000F931F93CF93DF93CDB7DEB76A970FB63A
:103F8000F894DEBF0FBECDBF9A8F898F7A83698385
:103F90004A01D22E18870F833701BC2CDC015996B9
:103FA0002D913C915A972115310509F015C11896AC
:103FB0008D919C911997681779070CF0D7C11A96C3
:103FC0008D919C91481759070CF0D0C14C2C512C65
:103FD000B6E0CB9E600D711D11247C876B87161691
:103FE00017060CF0C3C1EA2DF0E0FA87E98793E0E9
:103FF000EE0FFF1F9A95E1F7F88BEF87CF01840F43
:10400000951F181619060CF0B1C1A98DBA8D5896D6
:104010008C91811104C0BFEABD1508F4D394A98D19
:10402000BA8DED91FC9111970284F385E02DCD01BD
:104030001995B5E0DB9EC0011124E981FA81FC836A
:10404000EB83312C212C9C0127553B4F388F2F8B34
:104050004A2D50E05E8B4D8BEF89F88DE20DF31DFC
:1040600044919E828D82D12CC12C69817A81620D0E
:10407000731D7A8B698B842F90E09C8B8B8BE98DE1
:10408000FA8DA081B18140FF82C0F1E0BF126FC004
:10409000AF126DC01C96ED91FC912F813885A40163
:1040A0004C0D5D1D69897A89898D9A8D1995EB89E9
:1040B000FC89F595E7954E2F5FEFC51AD50A6D81FE
:1040C0007E818D899E89680F791F7E836D8398E03C
:1040D000C916D10481F6AFEF2A1A3A0AEB81FC81A6
:1040E000E40DF51DFC83EB83F5E02F16310409F098
:1040F000B3CF2F81388526153705B9F0A98DBA8D34
:10410000ED91FC91B1E0BB1257C0AB1255C0698173
:104110007A816B5F7F4F0088F189E02D830128E071
:1041200030E0A401898D9A8D1995A98DBA8DED91F4
:10413000FC9111970688F789E02DCD016A960FB69C
:10414000F894DEBF0FBECDBFDF91CF911F910F91CD
:10415000FF90EF90DF90CF90BF90AF909F908F90A7
:104160007F906F905F904F903F902F9019941E9684
:10417000ED91FC91EF80F88409851A8592014D81BB
:104180005E816B817C81898D9A8D199590CF2F816D
:1041900038852615370509F48ACF31E0B31207C0F8
:1041A000A31205C01C96ED91FC91930178CF1E9649
:1041B000ED91FC917301E0CF6B857C8564197509E5
:1041C0000684F785E02D73010F8518899201A401FB
:1041D000898D9A8D1995A9CFF901349694913297CA
:1041E00045915491D91AB7E0DB9E400D511D112421
:1041F000F901259134913C8B2B8BFA012590349059
:10420000FA013296749031963491398B32966490DB
:104210003196449041E04C1518F04A1508F07FC0E3
:10422000662D062C000C770B7C836B83842D042C6D
:10423000000C990B9E838D83A98DBA8DED91FC9115
:1042400011970284F385E02DCD011995512CD12CC5
:10425000C12CEA2DF0E0FA87E9872B2D30E03C876E
:104260002B87A401440D511D47FC5A95588F4F8B45
:1042700069817A81660D711D67FC7A957E876D87ED
:104280007989C71608F051CF2C2D30E04D815E8121
:10429000420F531FA985BA854A9FC0014B9F900DBD
:1042A0005A9F900D1124FC01E80DF91DF88BEF8742
:1042B000852D612C4F89588D420F531F5E8B4D8B7E
:1042C000671408F050C044244394480E877041F4AA
:1042D000C1010196EB89FC89E20DF31DD4901C010C
:1042E000D7FE19C0A98DBA8DED91FC91662D70E0B5
:1042F000B1E0BB1219C0AB1217C02D853E85620F0D
:10430000731F0484F585E02D2F8138854D895E89E2
:10431000898D9A8D1995DD0C6394842DD1CF1E82E1
:104320001D821C821B8288CF4B815C81640F751FAC
:10433000AB85BC856A9FC0016B9F900D7A9F900DE5
:10434000112469817A81680F791F0684F785E02D31
:10435000EF80F88409851A859D014F855889898DDC
:104360009A8D1995D8CF570CC3948ACF6A960FB6F9
:10437000F894DEBF0FBECDBFDF91CF911F910F919B
:10438000FF90EF90DF90CF90BF90AF909F908F9075
:104390007F906F905F904F903F902F9008958F92F5
:1043A0009F92AF92CF92EF92FF920F931F93CF9372
:1043B000DF93EC01262F898D9A8D009709F051C06B
:1043C0006A30D1F41D861C868D8948E0849F900157
:1043D00011248E859F85820F931F9F878E8781E092
:1043E00090E0DF91CF911F910F91FF90EF90CF90D0
:1043F000AF909F908F9008956D3089F3CC88AD88F1
:104400008F898823C1F08C859D8536E0C39E800D01
:10441000911D1124488559854817590764F44E8524
:104420005F851D861C8638E0A39EC0011124840F81
:10443000951F9F878E87EA88FB88088919894E8592
:104440005F856C857D85CE010E94AA1F2C898C8595
:104450009D8546E0249F800D911D11249D878C87AA
:10446000BECF6A3069F41D861C86FC013896E49143
:104470002D898E859F85E29F800D911D1124ADCFE2
:104480006D3009F4ACCFFC0134963491631708F415
:10449000A6CF3296E491E61708F4A1CFFC0132963C
:1044A00085909490462F431B342F47E0349F800C17
:1044B000911C1124F401329634913196E491332306
:1044C000A9F1EE2399F1CC88F4013596E491AD88F9
:1044D0004F89442301F10E2E000CFF0BE30FF11D59
:1044E000CE9EA001CF9E500D11246C857D85460F78
:1044F000571F68857985641775076CF44E855F854D
:104500001D861C86FC013896E491AE9E400D511D1F
:1045100011245F874E87EA88FB88088919894E85B0
:104520005F856C857D85CE010E94AA1FF4013496BB
:10453000E4912C898C859D85E29F800D911D11242D
:104540008DCF6F927F928F929F92AF92BF92CF92B8
:10455000DF92EF92FF920F931F93CF93DF93EC01C3
:104560006B015A0139014801E881F9810284F38520
:10457000E02D1995E881F9810288F389E02D870102
:104580009301A501B601CE011995A501480D591D4C
:1045900041505109E881F9810288F389E02D9301A6
:1045A000B601CE011995E881F9810088F189E02DE5
:1045B0009401A501B601CE011995C60CD71CB60110
:1045C00061507109E881F9810088F189E02D940139
:1045D000A501CE011995E881F9810688F789E02DBA
:1045E000CE01DF91CF911F910F91FF90EF90DF905F
:1045F000CF90BF90AF909F908F907F906F901994C5
:104600006F927F928F929F92AF92BF92CF92DF92E2
:10461000EF92FF920F931F93CF93DF935C01EB0117
:104620006A01490138018701DC01ED91FC916217B3
:10463000730719F5641675062CF0962D872D3A012F
:10464000C92ED82E9601261937092F5F3F4F048CAB
:10465000F58DE02DA301BE01C5011995DF91CF9124
:104660001F910F91FF90EF90DF90CF90BF90AF9090
:104670009F908F907F906F9008954615570591F405
:104680002617370724F0892D4B01C22FD82F9E0102
:10469000281939092F5F3F4F068CF78DE02DA601B1
:1046A000B401DACF0284F385E02D1995D501ED919F
:1046B000FC910488F589E02D83019401A601BE01D7
:1046C000C5011995D501ED91FC910688F789E02D7A
:1046D000C501DF91CF911F910F91FF90EF90DF9077
:1046E000CF90BF90AF909F908F907F906F901994D4
:1046F000EF92FF920F931F93DC011A960D911C917C
:104700001B9718962D913C911997ED91FC9100A063
:10471000F1A1E02D7B0150E040E070E060E01995F0
:104720001F910F91FF90EF9008954F925F926F92BB
:104730007F928F929F92AF92BF92CF92DF92EF9231
:10474000FF920F931F93CF93DF936C012B015A01BC
:1047500039014801DC01ED91FC910284F385E02DE3
:104760001995E201640C751CD601ED91FC91C615FA
:10477000D7055CF40088F189E02D87019401A5013B
:10478000BE01C60119952196EFCF0688F789E02D65
:10479000C601DF91CF911F910F91FF90EF90DF90B5
:1047A000CF90BF90AF909F908F907F906F905F90D1
:1047B0004F9019948F929F92AF92BF92CF92DF92B7
:1047C000EF92FF920F931F93CF93DF93EC015B0166
:1047D0004A016901E881F9810284F385E02D199588
:1047E00095012C0D3D1D21503109E881F981048886
:1047F000F589E02D78018401A401B501CE01199558
:10480000E881F9810688F789E02DCE01DF91CF910B
:104810001F910F91FF90EF90DF90CF90BF90AF90DE
:104820009F908F9019948F929F92AF92BF92CF9248
:10483000DF92EF92FF920F931F93CF93DF93EC01E0
:104840005B014A0169017801E881F9810284F385FD
:10485000E02D1995C80CD91C860101501109E88179
:10486000F9810488F589E02D9501A401B501CE01F7
:104870001995E881F9810688F789E02DCE01DF914D
:10488000CF911F910F91FF90EF90DF90CF90BF904D
:10489000AF909F908F901994EF92FF920F931F9378
:1048A000DC01ED91FC9100A0F1A1E02D19951F9183
:1048B0000F91FF90EF9008950F931F93DC01ED91FE
:1048C000FC91068CF78DE02D19951F910F9108959D
:1048D0000F931F93DC01ED91FC91048CF58DE02D7D
:1048E00019951F910F910895DC01ED91FC910084C1
:1048F000F185E02D19943F924F925F926F927F92D3
:104900008F929F92AF92BF92CF92DF92EF92FF92DF
:104910000F931F93CF93DF935C017B014A016901E1
:10492000390187E0680E711C93E0759467949A953D
:10493000E1F72B01400E511E10E000E0312CD0E0D9
:10494000C0E0CE0187709927330C892B59F4FE0102
:1049500083E0F595E7958A95E1F7E00FF11FE80D03
:10496000F91D349037FE0AC021E030E0A701B501FF
:104970006C0F7D1F84E29EE00E9474242196CC1669
:10498000DD06F9F68FEFE81AF80A060D171DE41494
:10499000F504A9F6DF91CF911F910F91FF90EF9051
:1049A000DF90CF90BF90AF909F908F907F906F904F
:1049B0005F904F903F9008952F923F924F925F9259
:1049C0006F927F928F929F92AF92BF92CF92DF921F
:1049D000EF92FF920F931F93CF93DF9300D000D0FD
:1049E000CDB7DEB73C016A013E832D83FC82EB82AA
:1049F0005801A41AB50AB7FE03C0B194A194B10836
:104A00008D809E80861A970A97FE03C091948194A8
:104A100091088A149B045CF0902F812F0D811E81D8
:104A20009D838E839C2D8D2D6B01692F782F0C1506
:104A30001D055CF09D818E817E836D83692F782FAB
:104A4000902F812F8601C92ED82E1601201A310AE7
:104A50002B012D813E81421A530A57FE03C0519407
:104A600041945108710137FE03C03FEFE31AF30A86
:104A7000F594E7948D819E81861797075CF5A1E0F8
:104A8000B0E0BA83A983C016D1064CF1D301ED91F1
:104A9000FC910484F585E02D2B813C81A8016D817A
:104AA0007E818A149B041CF04D815E81B801C30194
:104AB0001995E418F508F7FE0AC02D813E81898119
:104AC0009A81280F391F3E832D83E20CF31C0F5F60
:104AD0001F4FD9CF2FEF3FEF3A832983D4CF2696AC
:104AE0000FB6F894DEBF0FBECDBFDF91CF911F91FF
:104AF0000F91FF90EF90DF90CF90BF90AF909F907D
:104B00008F907F906F905F904F903F902F9008957F
:104B1000089520916007260F3327331F2132310576
:104B2000ECF420918407FC0190E080E0243069F0EF
:104B300082E00895A09160072191AC01405C584F3C
:104B4000A40FB52FB11D2C930196861798F3809171
:104B50006007680F6093600780E0089581E0089522
:104B60001092840781E0809386071092850761E0A8
:104B700084E10E945E0C61E085E10E945E0CE9EB3D
:104B8000F0E080818E7F808380818D7F808388E4C8
:104B90008093B80085E48093BC000895CF93DF93A1
:104BA00091E090933F078823B9F0C091B800D0916D
:104BB000BA008091BC008A7B8093BC0060E084E1F5
:104BC0000E945E0C60E085E10E945E0C0E94B025B0
:104BD000D093BA00C093B800DF91CF910895E091CF
:104BE000B5078091B407E81730F4F0E0E65EF84FBF
:104BF000808190E008958FEF9FEF08959091B50721
:104C00008091B4072FEF3FEF981748F4E92FF0E0B9
:104C1000E65EF84F208130E09F5F9093B507C901B1
:104C200008958091B4079091B507891B990B089559
:104C3000CF92DF92EF92FF920F931F93CF93DF9368
:104C40007C01CB018A012091C30A222389F0EB0168
:104C50006B01C40ED51ECC15DD0569F06991D70135
:104C6000ED91FC910190F081E02DC7011995F3CFF2
:104C7000642F0E948925C801DF91CF911F910F9168
:104C8000FF90EF90DF90CF900895CF93DF931F9226
:104C9000CDB7DEB769832091C30A2223F9F02091B2
:104CA000C00A203258F021E030E0FC013383228337
:104CB00090E080E00F90DF91CF9108958091C10A3C
:104CC000E82FF0E0E650F94F998190838F5F809351
:104CD000C10A8093C00A81E090E0ECCF61E0CE0190
:104CE00001960E948925F7CFCF92DF92EF92FF9233
:104CF0000F931F93CF93DF93D091C00A81E0D132FD
:104D000008F09CC0C091C20A0E94A90F6B017C01EF
:104D10008091840781116CC082E08093840781E0D8
:104D2000809386078FEF809383071092A807D09314
:104D3000A707AAEFB6E0E7E8F7E080E0D8138DC058
:104D40001092A9078091A907CC0FC82BC093A9077F
:104D500080918507813009F084C0109285070E94F8
:104D6000A90F6B017C018091A9078093BB00809102
:104D70003B0790913C07A0913D07B0913E07892BDE
:104D80008A2B8B2BA1F00E94A90F00913B07109159
:104D90003C0720913D0730913E076C197D098E0933
:104DA0009F09061717072807390708F442C08091A2
:104DB000BC0083FDD8CF85EC8093BC000E94A90F76
:104DC0006B017C0180918407823009F44CC0809192
:104DD00083078F3F09F469C080918307803209F40B
:104DE00066C080918307803309F463C084E026C0E5
:104DF00080913B0790913C07A0913D07B0913E0701
:104E0000892B8A2B8B2B09F483CF0E94A90F009149
:104E10003B0710913C0720913D0730913E076C19EC
:104E20007D098E099F09061717072807390708F01B
:104E30006FCF80913A070E94CE2585E01092C10A7B
:104E40001092C00A1092C30ADF91CF911F910F9167
:104E5000FF90EF90DF90CF9008959D9191938F5F99
:104E60006DCF85EEA9CF80913B0790913C07A09133
:104E70003D07B0913E07892B8A2B8B2B09F4A2CFDB
:104E80000E94A90F00913B0710913C0720913D071C
:104E900030913E076C197D098E099F090617170787
:104EA0002807390708F08ECFC4CF80E0C7CF82E053
:104EB000C5CF83E0C3CFEF92FF920F931F93CF93A1
:104EC000DF937C01C62F8091410E9091420E009796
:104ED00009F459C02091450E31E03093C30A209364
:104EE000C20A1092C10A1092C00ADC01ED91FC9135
:104EF0000190F081E02D60E019958701EE24E394A4
:104F0000F12CD1E0C1508091410E9091420ECF3FE3
:104F100091F1B0E2EB16F104D8F00E947426809172
:104F2000410E9091420E2091450ED093C30A2093DA
:104F3000C20A1092C10A1092C00ADC01ED91FC91E4
:104F40000190F081E02D60E01995EE24E394F12CBE
:104F50008091410E9091420EF8016491DC01ED9137
:104F6000FC910190F081E02D1995BFEFEB1AFB0A3F
:104F70000F5F1F4FC7CFDF91CF911F910F91FF9010
:104F8000EF900C947426E091510EF091520E9081A6
:104F90008091570E8095892380838701C15008F442
:104FA00038C0F801849120913F0E3091400E232BA0
:104FB00029F00E94E1140F5F1F4FF0CF28E030E08E
:104FC00040E8E0914D0EF0914E0E9091550E582F05
:104FD0005423D9F05081952B9083E0914F0EF0919E
:104FE000500E90815091560E952B9083E0914F0E6C
:104FF000F091500E50819091560E9095952390838C
:10500000469521503109E9F6D6CF508190959523E8
:10501000E3CFDF91CF911F910F91FF90EF90089513
:105020001F93CF93DF93EC018D8D9E8D009721F11F
:10503000162F29A131E03093C30A2093C20A10929F
:10504000C10A1092C00ADC01ED91FC910190F0813F
:10505000E02D60E019958D8D9E8DDC01ED91FC9128
:105060000190F081E02D612F19958D8D9E8DDF913E
:10507000CF911F910C947426ADA5BEA59C918BA9D0
:10508000809589238C938B8D9C8D892B31F0862F75
:10509000DF91CF911F910C94E11428E030E080E87B
:1050A000A9A5BAA599A9462F4823C1F04C91942BE4
:1050B0009C93ABA5BCA59C914AA9942B9C93ABA5B2
:1050C000BCA54C919AA9909594239C9386952150C8
:1050D000310931F7DF91CF911F9108954C9190954F
:1050E0009423E6CFDF92EF92FF920F931F93CF931B
:1050F000DF938091410E9091420E892B09F4A5C057
:105100002091590E30915A0E40915B0E50915C0ED9
:1051100060E074E284EF90E00E94C06820513109A1
:105120004109510956954795379527952093B80021
:1051300064E08AE596E10E945B278091280E9091B9
:10514000290E8034910509F097C060E284E29EE068
:105150000E9410286091280E615E84E29EE00E9409
:10516000102820912A0E30912B0EC901079697FD29
:10517000079633E0959587953A95E1F72091280EAB
:105180003091290E829F8001839F100D929F100DF8
:105190001124C091430ED091440E8091410E909104
:1051A000420E0C0F1D1F009709F498C02091450E68
:1051B00031E03093C30A2093C20A1092C10A1092C0
:1051C000C00ADC01ED91FC910190F081E02D60E4DA
:1051D0001995EE24E394F12CDD24D3948091410EB3
:1051E0009091420E0C171D0709F44FC0B0E2EB1668
:1051F000F104D8F00E9474268091410E9091420EE5
:105200002091450ED092C30A2093C20A1092C10A7F
:105210001092C00ADC01ED91FC910190F081E02D2B
:1052200060E41995EE24E394F12C8091410E909165
:10523000420E6991DC01ED91FC910190F081E02D2D
:105240001995BFEFEB1AFB0AC9CF80913F0E9091E1
:10525000400E892B31F08091620E9091630E0E9476
:105260000615E091530EF091540E90818091580EE6
:105270008095892380835CCF60E084E29EE00E9479
:1052800010286091280E615068CF0E94742680918A
:10529000410E9091420E892B09F461C020915D0E60
:1052A00030915E0E40915F0E5091600E60E074E2AE
:1052B00084EF90E00E94C0682051310941095109F2
:1052C00056954795379527952093B800DF91CF9154
:1052D0001F910F91FF90EF90DF900895E091510E94
:1052E000F091520E80819091570E892B80830C177C
:1052F0001D0769F2899120913F0E3091400E232BBA
:1053000019F00E94E114F3CF28E030E040E8E0918A
:105310004D0EF0914E0E9091550E582F5423D9F00A
:105320005081952B9083E0914F0EF091500E90811B
:105330005091560E952B9083E0914F0EF091500EA8
:1053400050819091560E90959523908346952150CB
:105350003109E9F6CCCF508190959523E3CFE091C8
:10536000530EF091540E80819091580E892B8083BA
:10537000ADCF1F93CF93DF93EC01162F8D8D9E8DB4
:10538000892BB1F12DA93EA94FA958AD60E074E277
:1053900084EF90E00E94C068205131094109510911
:1053A00056954795379527952093B80066EA1111D1
:1053B00067EACE010E9410288D8D9E8D892B41F1C8
:1053C00029AD3AAD4BAD5CAD60E074E284EF90E0A6
:1053D0000E94C068205131094109510956954795ED
:1053E000379527952093B800DF91CF911F910895AD
:1053F0008B8D9C8D892B21F08EAD9FAD0E94061563
:10540000EFA5F8A990818CA9809589238083CECFC0
:10541000EFA5F8A980819CA9892B8083E5CF90E036
:1054200080E008958F929F92AF92BF92CF92DF92C9
:10543000EF92FF921F93CF93DF93FC0182819381C0
:1054400068177907A8F54A01AA24BB24C82DC32EE2
:10545000D42EE52EFF241C2DD22F8085882361F0C9
:10546000889E40011124C92D8C9D600111241D2DA1
:10547000829FD0011124DB2FA685E184F2849385DD
:10548000A91322C0CB01880F991F680F791F6E0DD9
:105490007F1DA385A60FB72FB11DCC93A485A60FA2
:1054A000B72FB11D1C938585680F711DFB01D0833B
:1054B000DF91CF911F91FF90EF90DF90CF90BF9041
:1054C000AF909F908F900895660F771F660F771F9C
:1054D0006E0D7F1D252F332744275527882349F03C
:1054E00090E0829F7001839FF00C929FF00C11243A
:1054F0002F2DA60FB72FB11D2C93CBCFCF92DF92BC
:10550000EF92FF920F931F93CF93DF9300D000D0C1
:1055100000D0CDB7DEB78C01DC0119968D919C913E
:10552000892B09F473C00E94A90FF801C784D088A1
:10553000E188F2886C157D058E059F0520F467874C
:10554000708B818B928BF801C784D088E188F288B8
:105550006C197D098E099F096C3271408105910596
:1055600010F3F894D80114968D919C9115979A8315
:1055700089831996ED91FC917F01BFEFEB1AFB0A2D
:1055800080818987F80190810388F489E02DD80112
:1055900055968C91992309F448C09081982B98874F
:1055A0009081809589238F838F818C8388E08B8382
:1055B00058856F8149853B812C8189819A81D701EA
:1055C000508347FD252F3A952083262F39F0441F1D
:1055D00000C000006083000000C0F2CF38E04D91B1
:1055E00060830000019761F7D8015496FC93EE9315
:1055F000539749873B832C839A83898378940E94AD
:10560000A90FF8016787708B818B928B29960FB653
:10561000F894DEBF0FBECDBFDF91CF911F910F91E8
:10562000FF90EF90DF90CF9008959081982B98870E
:105630009081809589238F838F818E8388E08D83ED
:1056400058856F8149853D812E8189819A81D70155
:10565000508347FD252F00C000C0208300C000C03C
:1056600000C000C000C060830000262F3A9541F0C2
:10567000441F000000C000C000C000C000C0E8CF50
:1056800038E04D9100C0608300C0019709F7D80150
:105690005496FC93EE93539749873D832E83ACCF6A
:1056A000CF93DF93EC018E819F8197FD0CC061E069
:1056B0000E948C0C60E08E810E945E0C81E08983E8
:1056C000DF91CF910895198280E0FACF4F925F92D7
:1056D0006F927F928F929F92AF92BF92CF92DF9202
:1056E000EF92FF920F931F93CF93DF9320911D0DA5
:1056F0002223B1F120911C0D222391F14B015C0179
:1057000005E612E0D0E0C0E0C12CD12C760194E98E
:10571000492E93E4592E612C712CF801219131917D
:105720008F01A9E7B4E50E941469A30192010E94C8
:10573000C068C20ED31EE41EF51E8C149D04AE0478
:10574000BF04F8F02196C032D10539F780910002EC
:105750008F3F31F086E00E940F108FEF80930002A0
:10576000DF91CF911F910F91FF90EF90DF90CF903D
:10577000BF90AF909F908F907F906F905F904F9071
:105780000895809100028C1759F3FE01EE0FFF1F60
:10579000EB5DFD4F808191810E94C80CC093000297
:1057A000DFCF8F929F92AF92BF92CF92DF92EF9214
:1057B000FF920F931F93CF935B017A0169010E94BF
:1057C000350C8C01C1E0892B09F4C0E00E94011066
:1057D000F50120812C1731F0C083F60160837183BD
:1057E00082839383F60180809180A280B3806819C0
:1057F00079098A099B09643171058105910540F099
:10580000F70180818C1721F0C08381E0012B09F022
:1058100080E0CF911F910F91FF90EF90DF90CF909C
:10582000BF90AF909F908F90089590918808992392
:1058300081F0809389080E940110685F784F8F4F34
:105840009F4F6093EB067093EC068093ED06909368
:10585000EE060895803198F49091060B662329F0A6
:1058600061E0992329F060E003C061E09923D9F356
:10587000E82FF0E0E155FD4F80810C945E0C089517
:10588000CF93C0E060E08C2F0E942A2CCF5FC03104
:10589000C9F7CF91089581309105A1F050F0823081
:1058A0009105C9F0039701F160E070E088EC92E4A3
:1058B00008956091F60A7091F70A8091F80A909124
:1058C000F90A08956091FA0A7091FB0A8091FC0A26
:1058D0009091FD0A08956091FE0A7091FF0A8091EF
:1058E000000B9091010B08956091020B7091030BD6
:1058F0008091040B9091050B089582309105F1F091
:1059000030F4019791F060E070E0CB0108958330AE
:105910009105E9F00497B9F76091020B7091030BC0
:105920008091040B9091050B08956091F60A709197
:10593000F70A8091F80A9091F90A08956091FA0A9D
:105940007091FB0A8091FC0A9091FD0A0895609184
:10595000FE0A7091FF0A8091000B9091010B08954F
:105960004F925F926F927F928F929F92AF92BF926F
:10597000CF92DF92EF92FF922B013C017A01CA0194
:105980000E947D2C4B015C0181E0E816F10409F4D2
:105990004EC088F082E0E816F10409F451C083E0BB
:1059A000E816F10409F455C0C12CD12C98ECE92E6D
:1059B00092E4F92E08C0C090F60AD090F70AE09061
:1059C000F80AF090F90AA5019401C301B2010E94FE
:1059D000236920E030E048EC52E40E94EF672B019D
:1059E0003C01A5019401C701B6010E9423699B01F6
:1059F000AC01C301B2010E9490696B017C0120E0FF
:105A000030E0A9010E94896787FD2CC020E030E0CA
:105A100048EC52E4C701B6010E94386A18162CF50A
:105A2000C12CD12C88ECE82E82E4F82E1EC0C09048
:105A3000FA0AD090FB0AE090FC0AF090FD0AC3CF6E
:105A4000C090FE0AD090FF0AE090000BF090010B8E
:105A5000BACFC090020BD090030BE090040BF090F3
:105A6000050BB1CFC12CD12C7601C701B601FF9037
:105A7000EF90DF90CF90BF90AF909F908F907F90EE
:105A80006F905F904F900895CF92DF92EF92FF92C8
:105A90006B017C01AC019B016091F60A7091F70AE1
:105AA0008091F80A9091F90A0E94386A18168CF1D0
:105AB000A70196016091FA0A7091FB0A8091FC0A95
:105AC0009091FD0A0E94386A181634F12091FE0A5E
:105AD0003091FF0A4091000B5091010BC701B601B4
