:100000000C94C10B0C94F20B0C94F20B0C94F20BAD
:100010000C94F20B0C94F20B0C94F20B0C94F20B6C
:100020000C94F20B0C94F20B0C94F20B0C94F20B5C
:100030000C94F20B0C94904E0C94F20B0C94F20B6B
:100040000C94F20B0C94F20B0C94F20B0C94F20B3C
:100050000C94F20B0C94F20B0C94F20B0C94464E95
:100060000C94F20B0C941A4F0C94F04E0C94F20B6F
:100070000C94F20B0C94F20B0C94F20B0C94F20B0C
:100080000C94F20B0C94F20B0C94F20B0C94F20BFC
:100090000C94F20B0C94F20B0C94F20B0C94504F4A
:1000A0000C94F20B0C94F20B0C94F20B0C94F20BDC
:1000B0000C94F20B0C94F20B0C94F20B0C94F20BCC
:1000C0000C94F20B0C94F20B0C94F20B0C94F20BBC
:1000D0000C94F20B0C94F20B0C94F20B0C94F20BAC
:1000E0000C94F20B0C94FB210C94B7140C94991300
:1000F0000C94133A0C94073A0C94AE610C94820E53
:100100000C9409320C94A30E0C94FC250C948F6172
:100110000C94013A0C948B0E0C94E4150C947E0E06
:100120000C94F5390C9419220C94DC310C942A624D
:100130000C9446200C94990E0C94A1310C949C289C
:100140000C94E5630C947A0E0C941D320C943B32A3
:100150000C94E6130C94932C0C94711F0C94FE39A0
:100160000C94AB0E0C94FA310C94850E0C94133253
:100170000C9421610C94E0260C94D0260C940A3A3D
:100180000C94F8260C9470610C9429610C94B50EB3
:100190000C94C2310C9487140C94D4310C94DB1F52
:1001A0000C94F2390C94700E0C94BF500C940D3AD0
:1001B0000C9430130C94EC260C94B8310C949528C4
:1001C0000C9431610C943F130C94043A0C94193A3A
:1001D0000C941F3A0C9425250C9451610C94A7148F
:1001E0000C94EA210C9453130C9403130C942D16C5
:1001F0000C9473280C941C3A0C9492120C94B10E2B
:100200000C94510E0C94CD610C9460270C94760ED6
:100210000C9419610C940C280C94950E0C94C9281C
:100220000C94103A0C949D0E0C94CC310C94F0313B
:100230000C94B00E0C9439610C94F8390C94FB3981
:100240000C943D2C0C94A9310C9431320C947416FE
:100250000C9427320C9482280C9453240C94EC6157
:100260000C9484250C9419260C94163A0C94671F50
:100270000C94223A0C940B620C9449610C944962E0
:100280000C9411610C9461130C94E6310C9491124E
:100290000C9441610C94AE310C948F0E0C94A70E0B
:1002A0004E414E494E495459494E46CDCCCC3D0A5B
:1002B000D7233C17B7D13877CC2B329595E6241F3E
:1002C000B14F0A000020410000C84200401C4620F7
:1002D000BCBE4CCA1B0E5AAEC59D744120005420B2
:1002E0000043200050415553410050415553412097
:1002F0000052554E200020286D6D3A73732900502E
:10030000534E2D50524553455045004369636C6F21
:10031000206665726D6F004369636C6F20696E20A3
:1003200065736563757A696F6E65005465737420D3
:1003300075736369746520696E20636F72736F00F3
:10034000466173653A200020286D6D3A7373290069
:1003500056454C4F4349544100544553540041566F
:10036000414E544900524950524553410050415565
:10037000534100544553543D6176616E7469205376
:10038000544152543D65736369004772705F005475
:100390005554544F20494E5349454D450043415310
:1003A0004554544520575332383131004341534569
:1003B00054544520424C5500434153455454452024
:1003C0005645524449004341534554544520524FE9
:1003D000535345005354454C4C4520575332383104
:1003E00031005354454C4C4520424C550053544524
:1003F0004C4C45205645524449005354454C4C45BD
:1004000020524F53534500414C424120424C55002D
:10041000414C424120564552444500414C42412006
:10042000524F53534F005452414D4F4E544F204260
:100430004C55005452414D4F4E544F205645524456
:1004400045005452414D4F4E544F20524F53534F3D
:10045000004349454C4F20424C55004349454C4FC1
:10046000205645524445004349454C4F20524F5376
:10047000534F002F3334005465737420004D4F44A4
:10048000414C49544127205445535400496E697AE0
:1004900069616C697A7A617A696F6E650050534E52
:1004A0002D505245534550450000000000003E5B72
:1004B0004F5B3E3E6B4F6B3E1C3E7C3E1C183C7EB1
:1004C0003C181C577D571C1C5E7F5E1C00183C1896
:1004D00000FFE7C3E7FF0018241800FFE7DBE7FF92
:1004E00030483A060E2629792926407F050507401F
:1004F0007F05253F5A3CE73C5A7F3E1C1C08081CE0
:100500001C3E7F14227F22145F5F005F5F06097F1D
:10051000017F006689956A606060606094A2FFA2B6
:100520009408047E040810207E201008082A1C0865
:10053000081C2A08081E101010100C1E0C1E0C306F
:10054000383E3830060E3E0E060000000000000067
:100550005F00000007000700147F147F14242A7F27
:100560002A122313086462364956205000080703F4
:1005700000001C2241000041221C002A1C7F1C2A72
:1005800008083E08080080703000080808080800C5
:100590000060600020100804023E5149453E0042C0
:1005A0007F400072494949462141494D3318141290
:1005B0007F1027454545393C4A49493141211109B8
:1005C000073649494936464949291E0000140000AA
:1005D00000403400000008142241141414141400C4
:1005E0004122140802015909063E415D594E7C1210
:1005F00011127C7F494949363E414141227F4141A8
:10060000413E7F494949417F090909013E41415124
:10061000737F0808087F00417F41002040413F016F
:100620007F081422417F404040407F021C027F7FB0
:100630000408107F3E4141413E7F090909063E41C1
:1006400051215E7F09192946264949493203017F14
:1006500001033F4040403F1F2040201F3F403840A3
:100660003F631408146303047804036159494D433C
:10067000007F4141410204081020004141417F04B4
:10068000020102044040404040000307080020549B
:100690005478407F284444383844444428384444FB
:1006A000287F385454541800087E090218A4A49CCA
:1006B000787F0804047800447D40002040403D00DD
:1006C0007F1028440000417F40007C047804787C3F
:1006D000080404783844444438FC182424181824A6
:1006E0002418FC7C08040408485454542404043F8F
:1006F00044243C4040207C1C2040201C3C40304096
:100700003C44281028444C9090907C4464544C44C1
:100710000008364100000077000000413608000262
:10072000010204023C2623263C1EA1A161123A408C
:1007300040207A3854545559215555794122545402
:100740007842215554784020545579400C1E5272FD
:1007500012395555555939545454593955545458DA
:100760000000457C410002457D420001457C407D02
:100770001211127DF0282528F07C54554500205494
:10078000547C547C0A097F4932494949323A4444ED
:10079000443A324A4848303A4141217A3A4240206C
:1007A00078009DA0A07D3D4242423D3D4040403DFD
:1007B0003C24FF2424487E4943662B2FFC2F2BFF2B
:1007C0000929F620C0887E0903205454794100008D
:1007D000447D413048484A32384040227A007A0A03
:1007E0000A727D0D19317D2629292F2826292929CC
:1007F0002630484D402038080808080808080838FE
:100800002F10C8ACBA2F102834FA00007B00000863
:10081000142A142222142A14085500550055AA55EA
:10082000AA55AAFF55FF55FF000000FF0010101049
:10083000FF00141414FF001010FF00FF1010F01040
:10084000F0141414FC001414F700FF0000FF00FF64
:100850001414F404FC141417101F10101F101F148C
:1008600014141F00101010F0000000001F101010D2
:10087000101F10101010F010000000FF10101010CA
:100880001010101010FF10000000FF140000FF00F7
:10089000FF00001F10170000FC04F41414171017B9
:1008A0001414F404F40000FF00F7141414141414C6
:1008B00014F700F7141414171410101F101F141439
:1008C00014F4141010F010F000001F101F000000AE
:1008D0001F14000000FC140000F010F01010FF10B6
:1008E000FF141414FF141010101F00000000F0106B
:1008F000FFFFFFFFFFF0F0F0F0F0FFFFFF00000050
:100900000000FFFF0F0F0F0F0F3844443844FC4A1C
:100910004A4A347E02020606027E027E026355497E
:1009200041633844443C04407E201E2006027E027F
:100930000299A5E7A5991C2A492A1C4C7201724C00
:10094000304A4D4D303048784830BC625A463D3EC2
:10095000494949007E0101017E2A2A2A2A2A444463
:100960005F444440514A444040444A51400000FFE3
:100970000103E080FF000008086B6B083612362484
:1009800036060F090F0600001818000000101000AE
:100990003040FF0101001F01011E00191D17120048
:1009A0003C3C3C3C0000000000000103070F1F3FDF
:1009B0007F0080C0E0F0F8FCFEDB40A4A62EAF2054
:1009C00000A1C8D300408DAED580A8000060000013
:1009D000000000000000000000000000E000000037
:1009E0000000000000000000000001E00000000026
:1009F00000000000000000000001F0000000000006
:100A0000000000000000000003F0000000000000F3
:100A10000000000000000007F000000000000000DF
:100A200000000000000007F80000000000000000C7
:100A300000000000000FF800000003C0007E00006E
:100A400001E0007F0FF800000003C000FE0000017D
:100A5000E000FFEFF800000003C000FE000001E02E
:100A600000FFFFF800000003C000F00000000F00CE
:100A70007FFE7FC0000003C000F00000000F003FB9
:100A8000FE7FF83FF1FBCFFCFEF3BC3DEFE01FFE25
:100A90007FFF7FFBFFDFFEFEFFBC3DEFE01FC6FFD9
:100AA000FF7FFBFFDFFEFEFFBC3DEFE00FE3C7FE75
:100AB000787BC3DE1EF0FFBC3DEF0007FF87FC78AC
:100AC0007BC3DE1EF0F83C3DEF0001FFFFF0007B32
:100AD000C3C01EF0F03C3DEF0001F37FE03FFBC3DD
:100AE000CFFEF0F03C3DEF0003E33F807FFBC3DF30
:100AF000FEF0F03C3DEF0007E73C00787BC3DE1ED4
:100B0000F0F03C3DEF0007FFBE00787BC3DE1EF037
:100B1000F03C3DEF0007FFFE00787BC3DE1EF0F0E7
:100B20003C3DEF000FFFFE007FFBFFDFFEF0F03FDC
:100B3000FDEFE00FFFFF007FFBFFDFFEF0F03FFD6A
:100B4000EFE00FF9FF003E79F9CF9EF0F01F3DE78F
:100B5000E01FF1FF000000000000000000000000A6
:100B60001F80FF007FFFFFFFFFFFFFFFFFFFE01C75
:100B7000007F007FFFFFFFFEB46D888D18E000004E
:100B80001F007FFFFFFFFE95AD7DB577E000000FF2
:100B9000007FFFFFFFFEA5AD9D8D19E00000060060
:100BA0007FFFFFFFFEB5ADEDB57EE0000000000069
:100BB0000180000000000000000000038000000031
:100BC00000000000000007C000000000000000005E
:100BD0000007C00000000000000000000FC000007F
:100BE000000000000000001FE00000000000000006
:100BF00000001FE00000000000000000003FE000D7
:100C000000000000000000003FF0000000000000B5
:100C10000000007FF0000000000000001FF87FF0DF
:100C2000000000000000003FFE7FF0000000000018
:100C300000003FFF7FF0000000000000001FFFFBEE
:100C4000E0000000000000000FFFF9FFC0000000FE
:100C50000000000FFFF9FFF800000000000007FF90
:100C6000F1FFFF00000000000003FC73FFFF8000A5
:100C70000000000001FE3FFFFF80000000000000B8
:100C8000FF1E0FFF000000000000007FFE1FFC00A1
:100C90000000000000003FFFFFF80000000000001F
:100CA000000FDFFFE0000000000000001F19FFC080
:100CB000000000000000003F3CFF000000000000BA
:100CC00000007E7CF800000000000000007FFE7C39
:100CD0000000000000000000FFFFFC00000000001A
:100CE000000000FFFFFE0000000000000000FFFF0A
:100CF000FE0000000000000001FFEFFE0000000009
:100D000000000001FFCFFE0000000000000003FF14
:100D100007FE0000000000000003FC07FE000000CA
:100D20000000000003F003FE0000000000000001CE
:100D30008000FE000000000000000000007E0000B7
:100D400000000000000000003E0000000000000065
:100D50000000000C000000000000078000FC000004
:100D600003C0000000078001FC000003C000000079
:100D7000078001FC000003C0000000078001E000C4
:100D800000001E000000078001E00000001E007F40
:100D9000E3F79FF9FDE7787BDFC0FFF7FFBFFDFDBD
:100DA000FF787BDFC0FFF7FFBFFDFDFF787BDFC073
:100DB000F0F787BC3DE1FF787BDE00F0F787BC3DB4
:100DC000E1F0787BDE0000F787803DE1E0787BDEB4
:100DD000007FF7879FFDE1E0787BDE00FFF787BFAC
:100DE000FDE1E0787BDE00F0F787BC3DE1E0787B59
:100DF000DE00F0F787BC3DE1E0787BDE00F0F787AE
:100E0000BC3DE1E0787BDE00FFF7FFBFFDE1E07F66
:100E1000FBDFC0FFF7FFBFFDE1E07FFBDFC07CF33E
:100E2000F39F3DE1E03E7BCFC000000000000000EA
:100E300000000000FFFFFFFFFFFFFFFFFFFFC0FFFD
:100E4000FFFFFFFD68DB111A31C0FFFFFFFFFD2B25
:100E50005AFB6AEFC0FFFFFFFFFD4B5B3B1A33C03D
:100E6000FFFFFFFFFD6B5BDB6AFDC020286D6D3A65
:100E70007373290062792056616E6E6920303338B1
:100E80000050534E2D50726573657065210070726D
:100E9000696D612072696761200076616C6F7269AB
:100EA00020696E636F6572656E7469004572726F5A
:100EB0007269200055736F2076616C6F72692064CF
:100EC000656661756C7400206576656E74692000D6
:100ED00052696768652000534420415353454E547E
:100EE00045004D414E434120505245534550452EFB
:100EF000494E4900494E4920434F4E204552524FDA
:100F0000524900204F4B004D4943524F205344005B
:100F1000424F4F543A20636F6D706C657461746F0B
:100F20000050524F4E544F004341534554544500D6
:100F30005354454C4C45005452414D4F4E544F0074
:100F40004349454C4F00414C424100424F4F543AB7
:100F5000206175746F746573742076697369766F38
:100F600020757363697465202B206D656C6F6469EF
:100F7000612062757A7A6572206F707A696F6E612E
:100F80006C6500252061200020706978656C2C203C
:100F900061636365736520646120004361736574F8
:100FA00074653A200020706978656C2C2061747437
:100FB00069766520005374656C6C653A2000204F9B
:100FC000464600204F4E00202800252072656C65A3
:100FD00027200020002020004576656E746920726D
:100FE000656C65273A2000206D6F7262696461004C
:100FF000206C696E656172650025202D3E20002001
:1010000020002028707265646566696E69746529C0
:1010100000202864616C2066696C6529003A200014
:10102000546170706520006E6F2F636F6E74617411
:10103000746F20617373656E746500736900466137
:10104000736920253A200044757261746520287305
:10105000293A200053636865646120696E73657284
:101060006974612028443439293A2000617373651A
:101070006E7465206F206E6F6E206C6567676962A5
:10108000696C65202D3E2064656661756C74007323
:1010900063686564612070726573656E7465206D48
:1010A0006120505245534550452E494E49202F202E
:1010B000505245534550452E545854206D616E632F
:1010C000616E7465202D3E2064656661756C7400E8
:1010D000290020287072696D613A2000206C6574C7
:1010E000746F2C2072696768652069676E6F726122
:1010F00074653A2000206C6574746F2073656E7A95
:1011000061206572726F7269006D6963726F53441A
:101110003A2000417676696F2072617069646F20B1
:101120002866617374626F6F74293A206E6F004194
:101130007676696F2072617069646F2028666173CA
:1011400074626F6F74293A20736900506F73697A03
:10115000696F6E6520706F74656E7A696F6D657406
:10116000726F2041303A2000207365636F6E6469AE
:1011700000447572617461206369636C6F20696DEE
:10118000706F737461746120616C6C27617676692D
:101190006F3A20004F4C45443A206E6F6E207072BB
:1011A0006573656E74652C20636F6E74696E756F00
:1011B0002073656E7A6120646973706C6179004F89
:1011C0004C45443A204F4B004435302D44353320B4
:1011D0003D206D6963726F5344205350492028436A
:1011E0005320443533292C20443439203D20736367
:1011F0006865646120696E7365726974610041306D
:1012000020203D20445552415441204349434C4FF6
:1012100020283320736361676C696F6E6920646195
:10122000205B4349434C4F5D29004432302F443208
:1012300031203D204F4C4544204932432030783303
:101240004320286F707A696F6E616C6529004432A3
:1012500034203D205445535400443233203D204136
:1012600056414E544900443232203D20535441529D
:10127000542F53544F50004434342F4434352F44AA
:101280003436203D20524742204445535452412099
:101290002F20414C42410044372F4431312F4431FB
:1012A00032203D205247422053494E495354524127
:1012B000202F205452414D4F4E544F004436202091
:1012C0003D2042555A5A4552207061737369766FBA
:1012D000206F707A696F6E616C65004438203D2024
:1012E0004441544120575332383131204341534512
:1012F00054544500443520203D204441544120575A
:10130000533238313120283530207374656C6C6568
:101310002900443420203D2052474220426C750071
:10132000443320203D2052474220566572646500B8
:10133000443220203D2052474220526F73736F0089
:101340003D3D3D3D3D3D3D3D3D3D3D3D3D3D3D3DCD
:101350003D3D3D3D3D3D3D3D3D3D3D3D3D3D3D3DBD
:101360003D3D3D3D3D3D3D3D0020505245534550A6
:101370004520434F4E54524F4C4C4552202D205245
:10138000657620442028706172616D6574726920F1
:101390006461206D6963726F534429003D3D3D3D9A
:1013A0003D3D3D3D3D3D3D3D3D3D3D3D3D3D3D3D6D
:1013B0003D3D3D3D3D3D3D3D3D3D3D3D3D3D3D3D5D
:1013C0003D3D3D3D0052495052455341005041552D
:1013D000534100555343495441204D4F44414C49DA
:1013E0005441272054455354004156414E544920FE
:1013F0002D3E2000544553542031382F3334202DB6
:1014000020545554544F20494E5349454D4500549E
:101410004553542031372F3334202D205455545404
:1014200045204C45204341534554544500544553B1
:10143000542031362F3334202D204341534554540A
:101440004520424C5500544553542031352F3334F8
:10145000202D20434153455454452056455244497C
:1014600000544553542031342F3334202D20434130
:10147000534554544520524F5353450054455354FB
:101480002031332F3334202D205455545445204CD3
:1014900045203530205354454C4C45005445535459
:1014A0002031322F3334202D205354454C4C4520CD
:1014B000424C5500544553542031312F3334202DA4
:1014C000205354454C4C4520564552444900544500
:1014D00053542031302F3334202D205354454C4C5D
:1014E0004520524F535345005445535420392F3310
:1014F00034202D20414C424120424C55005445534C
:101500005420382F3334202D20414C424120564561
:10151000524445005445535420372F3334202D2056
:10152000414C424120524F53534F00544553542095
:10153000362F3334202D205452414D4F4E544F20DE
:10154000424C55005445535420352F3334202D2020
:101550005452414D4F4E544F20564552444500542D
:1015600045535420342F3334202D205452414D4FB5
:101570004E544F20524F53534F0054455354203331
:101580002F3334202D204349454C4F20424C5500E9
:101590005445535420322F3334202D204349454C99
:1015A0004F205645524445005445535420312F3363
:1015B00034202D204349454C4F20524F53534F0068
:1015C000202D20005F30002F3334202D20477270F3
:1015D0005F300054455354200054455354203D205F
:1015E00074657374207375636365737369766F2CA8
:1015F000205354415254203D2065736369003D3DA2
:101600003D204D4F44414C495441272054455354AB
:10161000203D3D3D0050415553410052554E002064
:101620007C2000207C2041303A2000206D696E0033
:10163000207C206369636C6F3A20002500207C20A9
:1016400000466173653A2000000021002400270055
:101650002A002D00300033000101000004010701C1
:101660000A01000020002300260029002C002F0082
:1016700032000001000003010601090100000A0B0D
:1016800002090C0D0E080703040100000000000011
:10169000000000000000000000000000000000004A
:1016A0000000000000000000121110000000000007
:1016B000000000000000000000000000000000002A
:1016C00000007C3C3E5E2B3D3F2F5B5D3B2C2A2285
:1016D0005C002200FF2102010210202008081020D7
:1016E00040102040800201020108040201010204AE
:1016F000081020408080402010080402018004026D
:1017000001804020100804020108040201010204C3
:1017100008102040800102040810204080000022B0
:1017200000250028002B002E0031003400020100AB
:1017300000050108010B0105050505070508080856
:1017400008020202020A0A08080404040401010152
:10175000010101010103030303030303030407075A
:10176000070C0C0C0C0C0C0C0C02020202060606F8
:1017700006060606060B0B0B0B0B0B0B0B00BF50E4
:10178000E56311241FBECFEFD1E2DEBFCDBF00E085
:101790000CBF15E0A0E0B2E0E0EDF7ED00E00BBF1C
:1017A00002C007900D92A037B107D9F720E1A0E75A
:1017B000B5E001C01D92A136B207E1F71BE0C0EC15
:1017C000DBE000E006C021970109802FFE010E94A6
:1017D000446ACF3BD10780E00807A9F70E9469510E
:1017E0000C94D66B0C9400002091F30E3091F40E03
:1017F0002F5F3F4F3093F40E2093F30E2091F50EA0
:101800003091F60E232B21F49093F60E8093F50E73
:1018100008954F925F926F927F928F929F92AF92B4
:10182000BF92CF92DF92EF92FF920F931F93CF93CD
:10183000DF93CDB7DEB7AC970FB6F894DEBF0FBE1F
:10184000CDBF4A015B011D8A1E8A1F8A188E4090F7
:10185000B40A5090B50A6090B60A7090B70A498EE3
:101860005A8E6B8E7C8E0091B80A1091B90A209125
:10187000BA0A3091BB0A0D8F1E8F2F8F38A3C090EC
:10188000BC0AD090BD0AE090BE0AF090BF0AC9A27F
:10189000DAA2EBA2FCA24091C00A5091C10A609169
:1018A000C20A7091C30A49A75AA76BA77CA74DA388
:1018B0005EA36FA378A740E050E068EC72E4498B28
:1018C0005A8B6B8B7C8B49825A826B827C820D8314
:1018D0001E832F833887C986DA86EB86FC8629A586
:1018E0003AA54BA55CA52D873E874F87588B853041
:1018F00008F084E034E0839FF001112441E050E0DF
:101900004C0F5D1FE40FF51FC488D588E688F78863
:10191000A701960160817181828193810E94FD6897
:10192000A50194010E94C96720E030E048EC52E430
:101930000E946A69A70196010E94FE68AC960FB6E4
:10194000F894DEBF0FBECDBFDF91CF911F910F91F5
:10195000FF90EF90DF90CF90BF90AF909F908F90CF
:101960007F906F905F904F9008952F923F924F928B
:101970005F926F927F928F929F92AF92BF92CF921F
:10198000DF92EF92FF920F931F93CF93DF93E82F95
:10199000F0E0EE53F14FC081C11118C0D0E0212C0E
:1019A00080E06D2F722DDF91CF911F910F91FF90ED
:1019B000EF90DF90CF90BF90AF909F908F907F90EF
:1019C0006F905F904F903F902F90089524EB829FEF
:1019D000800111240A55134FC13029F4F801D68132
:1019E00027808085DECF4A015B01780122242A947A
:1019F000D0E0F701428153816481758180810E942A
:101A0000090CA50194010E94636718160CF02D2E95
:101A100081E08D0FF9E0EF0EF11CC81324C027FE02
:101A200024C02D2EF80189E0D802E00DF11D11240B
:101A3000428153816481758180810E94090C20E07C
:101A400030E048EC52E40E94FD682B013C01F801B3
:101A5000428153816481758180810E94090C6B01F0
:101A60007C01C0E02CC0D82FC4CFD9E0F801222DD2
:101A70002D02E00DF11D1124428153816481758195
:101A800080810E94090C2B013C01822D022C000C4C
:101A9000990B0196C817190609F00CF4E4C0C1E0CF
:101AA000C20DF801CD9FE00DF11D1124428153813B
:101AB0006481758180810E94090C6B017C01A70102
:101AC0009601C301B2010E94636787FFDFC0A301D3
:101AD0009201C501B4010E94FD684B015C01A301A4
:101AE0009201C701B6010E94FD689B01AC01C501CE
:101AF000B4010E946A696B017C0120E030E0A90119
:101B00000E94636787FDBEC020E030E040E85FE3ED
:101B1000C701B6010E94126A18160CF4B7C0C801BA
:101B2000E9E0CE9F800D911D1124EC018981811186
:101B30001EC0A7019601C701B6010E94C9672B010B
:101B40003C01A7019601C701B6010E94FE689B01F6
:101B5000AC0160E070E080E490E40E94FD689B01CD
:101B6000AC01C301B2010E94C9676B017C013884DA
:101B7000F22D29E0F202000D111D1124F801B084AC
:101B800020E030E0A901C701B6010E94636787FD2C
:101B900084C020E030E040E85FE3C701B6010E9466
:101BA000126A181634F4C12CD12C80E8E82E8FE389
:101BB000F82E6B2D70E090E080E00E946A674B0188
:101BC0005C01F801678170E090E080E00E946A6744
:101BD0002B013C016F8170E090E080E00E9468671B
:101BE000A30192010E94FD68A70196010E94C967A6
:101BF000A30192010E94FE680E94E369262EF8016B
:101C0000668170E090E080E00E946A672B013C01F1
:101C10006E8170E090E080E00E946867A30192010D
:101C20000E94FD68A70196010E94C967A301920165
:101C30000E94FE680E94E369D62F632D70E090E059
:101C400080E00E946867A50194010E94FD68A701D9
:101C500096010E94C967A50194010E94FE680E9436
:101C6000E369862F9ECEF80142815381648175819C
:101C700080810E94090C20E030E048EC52E40E9490
:101C8000FE68EDCEC12CD12C760149CFC12CD12CD0
:101C900090E8E92E9FE3F92E42CFC12CD12C76019A
:101CA00088CF08958150823108F05AC0E82FF0E0C3
:101CB0008827E25AF14F8F4F0C94446A7E0E820EB1
:101CC000700E760E7A0EB00E850E8B0E8F0E950E60
:101CD000990E9D0EA30EA70EB00EAB0EB10EB50E53
:101CE000809180008F77809380000895809180009C
:101CF0008F7DF9CF80918000877FF5CF84B58F7776
:101D000084BD089584B58F7DFBCF8091B0008F771F
:101D10008093B00008958091B0008F7DF9CF8091BD
:101D200090008F77809390000895809190008F7D30
:101D3000F9CF80919000877FF5CF8091A0008F77B9
:101D40008093A00008958091A0008F7DF9CF8091AD
:101D5000A000877FF5CF809120018F7780932001AD
:101D60000895809120018F7DF9CF80912001877F98
:101D7000F5CFCF93DF93282F30E0F901E458F94EE7
:101D80008491F901E952F94ED491F901E95CF84ED8
:101D9000C491CC23A1F081110E94520EEC2FF0E0EF
:101DA000EE0FFF1FEE59F94EA591B491EC91ED2382
:101DB00081E090E009F480E0DF91CF91089580E028
:101DC00090E0FACF1F93CF93DF93282F30E0F901F3
:101DD000E458F94E8491F901E952F94ED491F90190
:101DE000E95CF84EC491CC23A9F0162F81110E9412
:101DF000520EEC2FF0E0EE0FFF1FE35EF84EA591C0
:101E0000B4918FB7F894EC91111108C0D095DE23EE
:101E1000DC938FBFDF91CF911F910895DE2BF8CF18
:101E2000CF93DF9390E0FC01E952F94E2491895C55
:101E3000984EFC0184918823C9F090E0880F991F87
:101E4000FC01E85BF94EA591B491FC01E35EF84E0C
:101E5000C591D49161110DC09FB7F8948C912095D4
:101E600082238C938881282328839FBFDF91CF9181
:101E70000895623051F49FB7F8943C91822F809579
:101E800083238C93E8812E2BEFCF8FB7F894EC91BE
:101E90002E2B2C938FBFEACF8F929F92AF92BF923F
:101EA000CF92DF92EF92FF92CF936C0180911A0252
:101EB000863069F08F3F09F477C0CF91FF90EF90A3
:101EC000DF90CF90BF90AF909F908F900895E6EDF8
:101ED000F6E1C491C7FDF1CF61E086E00E94100FEA
:101EE000CC2319F0C23009F0C8C1F12CE12C60E01C
:101EF00072E18AE790E0A70196010E94BC6849015F
:101F00005A01BA01A90141505109610971094F3FB4
:101F100051056105710509F00CF494C160E472E4A7
:101F20008FE090E0A70196010E94BC68BA01A90168
:101F30004150510961097109C23009F009C182E0BB
:101F40004F3F51056105710509F00CF446C160E988
:101F500070ED83E090E0A70196010E94BC68BA0191
:101F6000A901415051096109710983E04F3F5105B1
:101F70006105710509F00CF430C168E478EE81E088
:101F800090E0A70196010E94BC68BA01A9014150E6
:101F90005109610971094F3F51056105710511F042
:101FA0000CF02CC184E019C186E080931A02E6EDA2
:101FB000F6E1C4918C2FCF3F09F47FCFC23009F4F2
:101FC00068C060F4CC2379F1C13009F444C087FDC6
:101FD00074CF61E086E00E94100F84CFC43009F412
:101FE00099C008F478C0C53091F710922001109282
:101FF000210180912101886080932101809121013C
:10200000816080932101EDE3F7E1E491F0E0EE0FD0
:10201000FF1FE35EF84E85919491EDEDF6E1E491BA
:10202000E093820A59CF14BC15BC84B5826084BD8C
:1020300085B5816085BDEDE3F7E1E491F0E0EE0F59
:10204000FF1FE35EF84E85919491EDEDF6E1E4918A
:10205000E093890A41CF1092800010928100809114
:1020600081008860809381008091810081608093ED
:102070008100EDE3F7E1E491F0E0EE0FFF1FE35E96
:10208000F84E85919491EDEDF6E1E491E093880AA4
:1020900023CF1092B0001092B1008091B000826006
:1020A0008093B0008091B10081608093B100EDE336
:1020B000F7E1E491F0E0EE0FFF1FE35EF84E85914B
:1020C00094919093870A8093860AEDEDF6E1E4916E
:1020D000E093850A01CF10929000109291008091B8
:1020E000910088608093910080919100816080933D
:1020F0009100EDE3F7E1E491F0E0EE0FFF1FE35E06
:10210000F84E85919491EDEDF6E1E491E093840A27
:10211000C3E0E2CE1092A0001092A1008091A10035
:1021200088608093A1008091A10081608093A100CC
:10213000EDE3F7E1E491F0E0EE0FFF1FE35EF84E10
:1021400085919491EDEDF6E1E491E093830AC4CE9C
:102150004F3F51056105710509F00CF48CC068E42E
:1021600078EE81E090E0A70196010E94BC68BA0178
:10217000A9014150510961097109CC2309F449C1F0
:102180004F3F51056105710509F00CF40BCF62E179
:102190007AE780E090E0A70196010E94BC68BA014E
:1021A000A9014150510961097109CC2309F41AC1EF
:1021B00086E04F3F51056105710579F070F0B5017A
:1021C000A4019AE075956795579547959A95D1F72B
:1021D000415051096109710987E09091B100987FE0
:1021E000892B8093B100C23009F4E9C00CF0E0C043
:1021F000CC2379F1C13009F060CE6DC064E274EF98
:1022000080E090E0A70196010E94BC68BA01A90194
:10221000415051096109710985E04F3F5105610540
:102220007105D9F2D0F262E17AE780E090E0A7018F
:1022300096010E94BC68BA01A90141505109610987
:102240007109B6CF81E0C111C8CF95B5987F892BB0
:1022500085BD47BD8FEF9FEFDC0180939E0A909371
:102260009F0AA093A00AB093A10A80916E00826099
:1022700080936E0022CE82E0E6CFF12CE12C60E06C
:1022800072E18AE790E0A70196010E94BC68BA015A
:10229000A901415051096109710991E041155105A8
:1022A00081E0680771057CF068E478EE81E090E0F9
:1022B000A70196010E94BC68BA01A90141505109C9
:1022C0006109710993E0C130D9F480918100887F60
:1022D000892B8093810050938900409388008FEF71
:1022E0009FEFDC0180939A0A90939B0AA0939C0A2B
:1022F000B0939D0A80916F00826080936F00DDCD66
:10230000C330D9F480919100887F892B809391000C
:1023100050939900409398008FEF9FEFDC018093DA
:10232000920A9093930AA093940AB093950A80918D
:102330007100826080937100C0CDC430D9F4809167
:10234000A100887F892B8093A1005093A90040931E
:10235000A8008FEF9FEFDC0180938E0A90938F0A85
:10236000A093900AB093910A80917200826080934A
:102370007200A3CDC53009F036CF80912101887F4E
:10238000892B8093210150932901409328018FEFDD
:102390009FEFDC0180938A0A90938B0AA0938C0AAA
:1023A000B0938D0A8091730082608093730085CD15
:1023B000C43059F20CF4ACCFC53029F37ECD409334
:1023C000B3008FEF9FEFDC018093960A9093970AFA
:1023D000A093980AB093990A8091700082608093CC
:1023E00070006BCD84E04F3F51056105710509F028
:1023F00008F42BCFB501A4018AE075956795579530
:1024000047958A95D1F7415051096109710985E0D5
:102410001CCF83E04F3F51056105710509F00CF4B5
:1024200014CFB5CE865320917B00982F987F277FBD
:10243000922B90937B008770806480937C008091C6
:102440007A00806480937A0080917A0086FDFCCFC8
:10245000809178009091790008953FB7F894809129
:10246000770890917808A0917908B0917A0826B5FC
:10247000A89B05C02F3F19F00196A11DB11D3FBFBC
:10248000BA2FA92F982F8827BC01CD01620F711D8B
:10249000811D911D42E0660F771F881F991F4A9585
:1024A000D1F708958F929F92AF92BF92CF92DF9211
:1024B000EF92FF926B017C010E942D124B015C0197
:1024C000C114D104E104F104B9F00E942D1268197D
:1024D00079098A099B09683E73408105910580F35B
:1024E00021E0C21AD108E108F10888EE880E83E0E5
:1024F000981EA11CB11CE4CFFF90EF90DF90CF900D
:10250000BF90AF909F908F9008952FB7F8946091EF
:1025100073087091740880917508909176082FBFA8
:1025200008950895089590911A0289130DC0E6ED5B
:10253000F6E1E4919FEF90931A02E230E1F038F473
:10254000EE2381F0E13089F060E00C94E20EE4309B
:1025500049F110F1E530C1F7909173009D7F9093A0
:102560007300F2CF10926E00EFCF90916F009D7FBD
:1025700090936F00E9CF909170009D7F90937000D1
:1025800091E09093B0009091B100987F9460909307
:10259000B1001092B300D8CF909171009D7F9093BD
:1025A0007100D2CF909172009D7F90937200CCCF3A
:1025B000DC01ED91FC910190F081E02D1994EF92F6
:1025C000FF920F931F93CF93DF938C017B01D0E099
:1025D000C0E0F701EC0FFD1F6491662361F0D801A4
:1025E000ED91FC910190F081E02DC8011995892BA6
:1025F00011F02196EECFCE01DF91CF911F910F9177
:10260000FF90EF900895AF92BF92CF92DF92EF923A
:10261000FF920F931F93CF93DF936C017B018B018C
:10262000040F151FEB015E01AE18BF08C017D107DC
:1026300059F06991D601ED91FC910190F081E02D66
:10264000C6011995892B79F7C501DF91CF911F91AB
:102650000F91FF90EF90DF90CF90BF90AF900895D3
:10266000FC01538D448D252F30E0842F90E0821B98
:10267000930B541710F0CF96089501970895FC011D
:10268000918D828D981761F0A28DAE0FBF2FB11D75
:102690005D968C91928D9F5F9F73928F90E00895CD
:1026A0008FEF9FEF0895FC01918D828D981731F087
:1026B000828DE80FF11D858D90E008958FEF9FEFDB
:1026C0000895FC01918D228D892F90E0805C9F4FB1
:1026D000821B91098F73992708958BEF9EE00E94CA
:1026E000611321E0892B09F420E0822F0895FC0179
:1026F000A48DA80FB92FB11DA35ABF4F2C91848D63
:1027000090E001968F739927848FA689B7892C93BF
:10271000A089B1898C91837080648C93938D848D12
:10272000981306C00288F389E02D80818F7D808315
:102730000895EF92FF920F931F93CF93DF93EC01D5
:1027400081E0888F9B8D8C8D98131AC0E889F98958
:10275000808185FF15C09FB7F894EE89FF8960835B
:10276000E889F98980818370806480839FBF81E0DC
:1027700090E0DF91CF911F910F91FF90EF9008951E
:10278000F62E0B8D10E00F5F1F4F0F731127E02EF9
:102790008C8D8E110CC00FB607FCFACFE889F98931
:1027A000808185FFF5CFCE010E947713F1CFEB8DAD
:1027B000EC0FFD2FF11DE35AFF4FF0829FB7F89405
:1027C0000B8FEA89FB8980818062CFCFCF93DF9323
:1027D000EC01888D8823B9F0AA89BB89E889F98939
:1027E0008C9185FD03C0808186FD0DC00FB607FC6E
:1027F000F7CF8C9185FFF2CF808185FFEDCFCE01A1
:102800000E947713E9CFDF91CF91089580E090E0A7
:10281000892B29F00E946D1381110E94000080E035
:1028200090E0892B49F080E090E0892B29F00E940C
:10283000000081110E94000080E090E0892B49F0A7
:1028400080E090E0892B29F00E94000081110E9415
:10285000000080E090E0892B49F080E090E0892B37
:1028600029F00E94000081110C9400000895FC01E1
:10287000DB0112968D919C9113979383828382EF53
:1028800092E09183808314968C911497848315969B
:102890008C911597858316964D915D916D917C91E4
:1028A000199746835783608771871A964D915D917A
:1028B0006D917C911D9742875387648775871E961B
:1028C0004D915D916D917C91519746875787608BB3
:1028D000718B52968C915297828B53964D915D914C
:1028E0006D917C915697438B548B658B768B579665
:1028F0004D915D916D917C915A97478B508F618F6F
:10290000728F5B968D919C91948F838F0895DC01DB
:102910005996ED91FC913097B9F083899489A589F6
:10292000B6894285538564857585841B950BA60BF6
:10293000B70B811520E89207A105B10538F08FEF9C
:102940009FE7A0E0B0E0089590E080E00895DC010A
:1029500059968D919C91009739F0DC01ED91FC9195
:102960000480F581E02D199490E080E00895CF93E4
:10297000DF931F92CDB7DEB76983DC01ED91FC9147
:102980000280F381E02D41E050E0BE016F5F7F4F98
:1029900019950F90DF91CF910895EF92FF920F93C9
:1029A0001F93CF93DF93EC01EC80FD806E157F05C4
:1029B0000CF070C057FF04C0240F351F50E040E0FA
:1029C0008E819F81FA01E20FF31F8E179F071CF47F
:1029D0009C01241B350B121613060CF05BC0922FC2
:1029E000842F8695869586958E9DD0018F9DB00DFE
:1029F00011246A0F7B1FAF8DB8A1A60FB71F4770B8
:102A000049F188E0841B482F682F70E0FB01EF54E8
:102A1000F64FE491281708F063C0621B71092FEF8D
:102A200030E002C0359527956A95E2F7E223013040
:102A3000110539F0B0F10230110561F58C91E827EC
:102A400002C08C91E82BEC93941720F12C813D81EE
:102A5000A20FB31FE92FE41BE83078F00230110514
:102A600021F58E2F9C9190959C932C813D81A20FF6
:102A7000B31F88508830B0F7E770EE2359F0F0E0CC
:102A8000E755F64FE49101301105F9F010F10230ED
:102A9000110519F1DF91CF911F910F91FF90EF90E8
:102AA0000895E0958C91E823CECF81E001151105C2
:102AB00009F480E081959E2F8C932C813D81A20F9B
:102AC000B31F98509830C0F7D7CF8C91E82BEC9378
:102AD000E1CFE0958C91E823FACF8C91E827F7CFEE
:102AE0000130110509F4ADCFE0F20230110509F40F
:102AF000A5CFAE0DBF1DAECF0F931F93CF93DF9326
:102B000077FF04C0260F371F70E060E0DC011496E9
:102B1000CD91DC91FB01E20FF31FCE17DF071CF410
:102B20009E01261B370B121613064CF5FA0157FDB2
:102B30003796A3E0F595E795AA95E1F7EC9FD001CC
:102B4000ED9FB00DFC9FB00D11246A0F7B1FDC01BF
:102B50005F96ED91FC91E60FF71F4770552781E0D6
:102B600090E001C0880F4A95EAF7482F013011051F
:102B700059F0A8F02E0F3F1F02301105E1F0DF9150
:102B8000CF911F910F9108952E0F3F1FE217F3076A
:102B9000B1F38191DF011197842B8C93F7CF80954E
:102BA0002E0F3F1FE217F30751F39191DF011197A9
:102BB00098239C93F7CFE217F30709F38191DF0184
:102BC000119784278C93F7CF0F931F93FA01DC01A1
:102BD00056964C9156974230E9F04330A1F141307E
:102BE00061F514964D915C91DA01AE1BBF0BFD01AE
:102BF000E21BF30B77FD0BC0DC0116964D915C9147
:102C00006417750724F4AB01BF010E947C151F9166
:102C10000F91089514964D915C91DA01A61BB70BA4
:102C2000BD0161507109DC0116964D915C91DA018C
:102C3000AE1BBF0BFD01E21BF30B77FDE8CFAF012D
:102C40000E94CD14E4CF16964D915C91DA01A61B3B
:102C5000B70BBD0161507109CDCF0F931F93FA01DE
:102C6000DC0156964C9156974230A9F0433091F1D1
:102C7000413019F514964D915C91DA01AE1BBF0BF2
:102C8000FD013197F7FD04C0AB01BF010E94CD14D7
:102C90001F910F91089514964D915C91DA01A61B36
:102CA000B70BBD01DC0116964D915C91DA01AE1BAC
:102CB000BF0BFD013197621B730BF7FDE9CFDC0100
:102CC00016964D915C91E417F50714F7AF010E9439
:102CD0007C15DECF16964D915C91DA01A61BB70BE1
:102CE000BD01621B730BCECFFC0177FD64C08085F4
:102CF0009185681779070CF05EC057FD5CC082852E
:102D00009385481759070CF056C086898230B1F078
:102D1000833029F1813041F484819581841B950BA6
:102D2000AB01BC01615071092130310509F108F492
:102D300043C02230310509F463C008958481958130
:102D4000DC01A61BB70BBD0161507109868197811B
:102D5000DC01A41BB50BAD0141505109E5CF8681C3
:102D60009781861B970BBA01AC0141505109DCCF0A
:102D7000CA0157FD0796A3E095958795AA95E1F7B7
:102D8000A481B5818A9F90018B9F300D9A9F300D51
:102D90001124620F731F078CF0A1E02DE60FF71FBF
:102DA0004770552721E030E001C0220F4A95EAF72D
:102DB0008081822B80830895CA0157FD079633E0F6
:102DC000959587953A95E1F7A481B5818A9F900101
:102DD0008B9F300D9A9F300D1124620F731F078C4B
:102DE000F0A1E02DE60FF71F4770552781E090E036
:102DF00001C0880F4A95EAF7809590818923DACF40
:102E0000CA0157FD079623E0959587952A95E1F726
:102E1000A481B5818A9F90018B9F300D9A9F300DC0
:102E20001124620F731F078CF0A1E02DE60FF71F2E
:102E30004770552721E030E001C0220F4A95EAF79C
:102E400080818227B7CFCF93CFB7F894809168075E
:102E5000811127C0ECE6F7E18491ECE0F7E1949171
:102E6000E82FF0E0EE0FFF1FE85BF94EA591B4915B
:102E7000EC91E92321F461E085E30E94E20E61E038
:102E800085E30E94100F8CB580618CBD8CB5806489
:102E90008CBD61E084E30E94100F61E083E30E9437
:102EA000100F809168078F5F80936807CFBFCF9125
:102EB0000895089561E0FC0184810E94E20E8091F2
:102EC000690781111092690708958EBD00000DB445
:102ED00007FEFDCF8EB508958FEF0C9465170F9305
:102EE0001F93CF93DF93EC010E9485128B010E9408
:102EF0006C178F3F69F00E948512601B710B6C1775
:102F00007D07A8F380E0DF91CF911F910F91089585
:102F100081E0F9CF8CBD9DBD0895CF93DF93EC0187
:102F200080916907811109C081E0809369078091D0
:102F3000980F9091990F0E948A1760E08C81DF9121
:102F4000CF910C94E20E8F929F92AF92BF92FF921C
:102F50000F931F93CF93DF93EC01F62E49015A0193
:102F60008E81882389F08F8198859C012F5F3F4F48
:102F700038872F838230924018F40E946C17F3CF69
:102F8000CE010E945A171E82CE010E948D178CE23C
:102F900091E00E946F178F2D80640E94651708E1F1
:102FA00010E0D501C401002E04C0B695A7959795F1
:102FB00087950A94D2F70E94651708501109083FB7
:102FC0008FEF180771F785E9FF2021F028E087E8E7
:102FD000F2128FEF0E94651710E00E946C178A872B
:102FE00087FF04C01F3F11F01F5FF7CFDF91CF9124
:102FF0001F910F91FF90BF90AF909F908F90089579
:10300000AF92BF92CF92DF92EF92FF920F931F93F6
:10301000CF93DF93EC016901C801820F931F8130C8
:10302000924050F58E81882379F088819981AA8118
:10303000BB8184179507A607B70731F48F81988560
:10304000C816D90608F042C0488359836A837B8337
:103050008B85833039F089E0440F551F661F771F39
:103060008A95D1F79A01AB0161E1CE010E94A317C5
:10307000882389F083E08D83CE010E945A1780E077
:10308000DF91CF911F910F91FF90EF90DF90CF9044
:10309000BF90AF9008950E9485125B010E946C174B
:1030A0008A878F3F69F40E9485126A197B096D3205
:1030B0007140A0F38FE08D83CE010E945A17DCCFC0
:1030C0008E3F89F418861F8281E08E838F819885D8
:1030D0008C159D0550F40E946C178F819885019680
:1030E00098878F83F3CF8DE0E6CF6701E00EF11E66
:1030F0000E946C17F60181936F01EE15FF05C1F771
:103100008F819885080F191F18870F838985882359
:1031100019F001151240A0F08E81882389F08F816B
:1031200098859C012F5F3F4F38872F8382309240D4
:1031300018F40E946C17F3CFCE010E945A171E821A
:1031400081E09ECFCF92DF92EF92FF920F93CF93C9
:10315000DF93EC01690182E14115510561057105BB
:1031600099F08B85833039F089E0440F551F661F35
:10317000771F8A95D1F79A01AB0168E1CE010E94D1
:10318000A317882319F084E08D832DC08EEF0E9451
:10319000651776018EEFD81AF70181917F010E94A1
:1031A0006517EC14FD04C1F78FEF0E9465178FEFD0
:1031B0000E9465170E946C178A878F71853071F4A1
:1031C000011116C0CE010E945A1781E0DF91CF9104
:1031D0000F91FF90EF90DF90CF90089581E18D8364
:1031E000CE010E945A17CE010E945A1780E0EECFFE
:1031F00088E592E00E946F17811102C085E1C4CF7B
:1032000020E030E0A9016DE0CE010E94A3178823E1
:1032100011F084E1B9CF0E946C178111FACFD2CF9F
:103220000F9340916A0750916B0760916C07709102
:103230006D07411551056105710599F0082F2EE7BD
:1032400038E080917B0890917C080E94A218882326
:1032500049F010926A0710926B0710926C07109257
:103260006D0781E00F9108950F93CF93C82F809140
:103270007D08811105C0C1E08C2FCF910F91089579
:103280004091160250911702609118027091190234
:103290000C2F2EE738E080917B0890917C080E94EB
:1032A000A218811102C0C0E0E7CFCC2321F381E056
:1032B0000E9410198823B9F310927D08DDCF8F92F8
:1032C0009F92AF92BF92EF92FF920F931F93CF9373
:1032D0004B015C01C42F8091160290911702A091BE
:1032E0001802B091190288159905AA05BB0551F17C
:1032F00081E00E94341981110BC080E0CF911F91B1
:103300000F91FF90EF90BF90AF909F908F90089596
:103310008EE7E82E88E0F82E00E012E030E020E0B2
:10332000B501A40180917B0890917C080E9400184F
:10333000882319F38092160290921702A092180225
:10334000B092190240917D084C2B40937D0881E09A
:10335000D5CF8F929F92AF92BF92CF92DF92EF9292
:10336000FF92CF932AE93FE030937C0820937B08BB
:10337000882309F46DC040E060E070E0CB010E945A
:103380005F1981110BC080E0CF91FF90EF90DF902B
:10339000CF90BF90AF909F908F90089580913C0AFE
:1033A0008F7789F78091480A9091490AA0914A0A3B
:1033B000B0914B0A84369105A105B10520F3C09068
:1033C000440AD090450AE090460AF090470AC1149A
:1033D000D104E104F104B9F240E0C701B6010E9452
:1033E0005F19882381F28091890890918A0881155C
:1033F000924049F6A0918E08AA2329F260918C0888
:1034000070918D086115710509F4BDCF20918B086D
:10341000222309F4B8CFA093B80F2093AA0F90E00D
:1034200080E030E0E1E0F0E0C82FAF01082E02C0FC
:10343000440F551F0A94E2F72417350769F041E05D
:10344000480F01968930910579F74093B30F9BCFD0
:10345000C12CD12C7601C0CF8093B30F209194085A
:103460003091950850E040E02115310541F420915C
:10347000A2083091A3084091A4085091A508209378
:10348000AB0F3093AC0F4093AD0F5093AE0F46018E
:103490005701860E971EA11CB11C8092B90F909205
:1034A000BA0FA092BB0FB092BC0FE0918F08F091C1
:1034B0009008F093BF0FE093BE0FB0E00E94DB686E
:1034C000DC01CB01880D991DAA1DBB1D8093C00F87
:1034D0009093C10FA093C20FB093C30F25E0EE0FDE
:1034E000FF1F2A95E1F7E150FE4FEF2FFF27E695EA
:1034F0008E0F9F1FA11DB11D8093B40F9093B50F28
:10350000A093B60FB093B70F809091089090920857
:10351000B12CA12C8114910441F480909E089090CC
:103520009F08A090A008B090A108C81AD90AEA0A7A
:10353000FB0AC80CD91CEA1CFB1C04C0F694E794D7
:10354000D794C794CA95D2F7C092AF0FD092B00F5C
:10355000E092B10FF092B20F85EFC8168FE0D80657
:10356000E104F10428F48CE08093BD0F81E00CCFDE
:1035700080E125EFC2162FEFD206E104F104A0F39B
:103580008091AA089091AB08A091AC08B091AD08C9
:103590008093C00F9093C10FA093C20FB093C30F3D
:1035A00080E2E2CF4F925F926F927F928F929F92D2
:1035B000AF92BF92CF92DF92EF92FF920F931F9341
:1035C000CF93DF93EC01423051056105710590F412
:1035D00080E0DF91CF911F910F91FF90EF90DF90EE
:1035E000CF90BF90AF909F908F907F906F905F90A3
:1035F0004F90089589859A85AB85BC850196A11D5C
:10360000B11D84179507A607B70710F3CB88DC8890
:10361000ED88FE888F89803109F042C0BB27A72F33
:10362000962F852F480159012A013B01C80ED91E4A
:10363000EA1EFB1E8091160290911702A0911802BB
:10364000B0911902C816D906EA06FB0699F58F89CA
:103650008031C1F5B301A201552766277727440FB2
:10366000551F4258574FFA019182808280917D0800
:10367000816080937D088A89823080F08D819E816F
:10368000AF81B8858C0D9D1DAE1DBF1D80936A074F
:1036900090936B07A0936C07B0936D0781E099CF6F
:1036A000DB01CA01E7E0B695A79597958795EA955E
:1036B000D1F7B8CF40E0C701B6010E945F19811170
:1036C000C6CF86CFB301A2014F775527662777274C
:1036D000440F551F440F551F4258574FFA0180821F
:1036E0009182A282B382C2CF8F929F92AF92BF92F9
:1036F000CF92DF92EF92FF920F931F93CF93DF93BE
:10370000FC0181859285A385B4850196A11DB11D1B
:1037100084179507A607B70770F480E0DF91CF9173
:103720001F910F91FF90EF90DF90CF90BF90AF90DF
:103730009F908F90089583889488A588B6888789FC
:10374000803189F5BB27A72F962F852FE9016A01C4
:103750007B018F01BC01CD01680D791D8A1D9B1D68
:103760008090160290901702A0901802B090190253
:1037700086169706A806B90601F5F80187898031F3
:1037800011F5DD24EE24FF24F601EE0FFF1FE258B1
:10379000F74F80819181B0E0A0E088839983AA836C
:1037A000BB8381E0BBCFDB01CA01C7E0B695A7951B
:1037B00097958795CA95D1F7C9CF40E00E945F19C8
:1037C0008111DBCFAACFE894C7F8DD24EE24FF24D3
:1037D000F601EE0FFF1FEE0FFF1FE258F74F80813B
:1037E0009181A281B381BF70D8CF4F925F926F92C7
:1037F0007F92AF92BF92CF92DF92EF92FF920F93A0
:103800001F93CF93DF9300D01F92CDB7DEB78C010B
:1038100049835A836B837C835901C12CD12C760157
:10382000412C82E0582E612C712C49815A816B8188
:103830007C819E012F5F3F4FC8010E94741B88232B
:1038400039F1F8018585A301920104C0220F331FCD
:10385000441F551F8A95D2F7DA01C901C80ED91E37
:10386000EA1EFB1E49815A816B817C8187898031E8
:1038700011F188EF9FEFAFEFBFE0481759076A07D4
:103880007B0798F2F501C082D182E282F38281E067
:103890000F900F900F900F90DF91CF911F910F918C
:1038A000FF90EF90DF90CF90BF90AF907F906F90A0
:1038B0005F904F90089588EF9FEFA0E0B0E0DDCFDC
:1038C000CF93DF93FC012581222321F080E0DF915B
:1038D000CF910895EC018091BD0F803159F582E0C0
:1038E0008583178A108E118E128E8091BE0F909153
:1038F000BF0FB0E0A0E025E0880F991FAA1FBB1FF3
:103900002A95D1F7838B948BA58BB68B86EA9FE0A3
:103910009C8F8B8F81E08C831E821F821886198674
:103920001A861B861C861D861E861F86188A198A83
:103930001A8ACDCF803251F683E085834091C00F43
:103940005091C10F6091C20F7091C30F478B508F80
:10395000618F728F9F012D5E3F4F86EA9FE00E942C
:10396000F51B8111D3CFB2CF8F929F92AF92BF92AE
:10397000CF92DF92EF92FF920F931F93CF93DF933B
:10398000EC018D8181110EC080E0DF91CF911F91FC
:103990000F91FF90EF90DF90CF90BF90AF909F90EE
:1039A0008F9008950B891C892D893E89041715076E
:1039B0002607370748F34A015B01823031F48A86D3
:1039C0009B86AC86BD8681E0E0CF81149104A10482
:1039D000B10449F41E821F82188619861A861B8636
:1039E0001C861D86F0CF0A851B852C853D85EB8DB9
:1039F000FC8D858590E00996B901A80141505109D7
:103A000061097109082E04C0769567955795479509
:103A10000A94D2F775016401E1E0CE1AD108E108F9
:103A2000F10804C0F694E794D794C7948A95D2F726
:103A3000C416D506E606F70620F0012B022B032B51
:103A400011F58F89988DA98DBA8D8E839F83A88754
:103A5000B9878E010A5F1F4FC114D104E104F1043C
:103A600009F4ADCF4E815F816885798598018B8D92
:103A70009C8D0E94741B91E0C91AD108E108F108DD
:103A80008111EACF81CFC41AD50AE60AF70AE1CF3D
:103A90003F924F925F926F927F928F929F92AF92DE
:103AA000BF92CF92DF92EF92FF920F931F93CF932B
:103AB000DF93CDB7DEB72C970FB6F894DEBF0FBEFD
:103AC000CDBF5C01DC015B968D909C905C97169657
:103AD0004D905D906D907C90199741145104610454
:103AE000710409F468C0BFEF4B1A5B0A6B0A7B0ACA
:103AF000312CF40181859285A385B4859C01AD01AB
:103B00002F5F3F4F4F4F5F4F29873A874B875C8727
:103B1000730162011D821E821F821886F401818555
:103B20009285A385B4852D813E814F8158852817C4
:103B300039074A075B0708F056C089859A85AB8527
:103B4000BC858C159D05AE05BF0550F482E0C82EDE
:103B5000D12CE12CF12C92E0492E512C612C712CAE
:103B60009E012F5F3F4FB701A601C4010E94741B45
:103B70008823C9F189819A81AB81BC81892B8A2BE9
:103B80008B2B09F1260137019FEF491A590A690A5F
:103B9000790A2D813E814F8158852F5F3F4F4F4FCE
:103BA0005F4F2D833E834F8358873FEFC31AD30A5D
:103BB000E30AF30AB3CFF40140805180628073803E
:103BC0003324339496CFC414D504E604F70409F7DC
:103BD0000FEF1FEF2FEF3FE0B701A601C4010E94D6
:103BE000D21A811119C080E02C960FB6F894DEBF6E
:103BF0000FBECDBFDF91CF911F910F91FF90EF903E
:103C0000DF90CF90BF90AF909F908F907F906F90FC
:103C10005F904F903F900895D50116964D915D911C
:103C20006D917C911997411551056105710539F028
:103C300097018601C4010E94D21A8823A1F2D501FE
:103C40001696CD92DD92ED92FC921997332051F0A9
:103C5000D701C6010196A11DB11DF4018083918396
:103C6000A283B383F5018789908DA18DB28D892BB5
:103C70008A2B8B2B39F48481C78AD08EE18EF28E09
:103C800080688483F50184818062848381E0ACCF85
:103C90002F923F924F925F926F927F928F929F925C
:103CA000AF92BF92CF92DF92EF92FF920F931F934A
:103CB000CF93DF9300D0CDB7DEB7FC0185818111B2
:103CC00018C08FEF9FEF0F900F900F90DF91CF9163
:103CD0001F910F91FF90EF90DF90CF90BF90AF902A
:103CE0009F908F907F906F905F904F903F902F901C
:103CF0000895848180FFE5CF438954896589768959
:103D000082859385A485B585312C212C48175907C8
:103D10006A077B0719F022242394312C6F012101BB
:103D2000CE0101963C01DF011696BB83AA834114A4
:103D3000510409F4C5C0F601428553856485758533
:103D40004A01F1E09F22D6015B968D919C915C9790
:103D50008A019B01E9E03695279517950795EA9525
:103D6000D1F71596EC91E230E9F5FC01628D738D87
:103D7000848D958D600F711F821F931FA12C22E0EF
:103D8000B22EA818B9084A145B0408F45201F601CF
:103D9000248126FD04C0A114F2E0BF0671F4009155
:103DA000160210911702209118023091190206177D
:103DB00017072807390709F05EC040E00E945F1925
:103DC000882309F47ECFC4018258974FD3019C0108
:103DD0002A0D3B1DFC012E173F0709F46CC04191D1
:103DE0004D93F9CFDC011496BC90BA94B0228114A3
:103DF000910479F4B1100DC0452B462B472B69F582
:103E0000F6018789908DA18DB28D86839783A087D7
:103E1000B187D6015B96ED91FC915C9716966D91FA
:103E20007D918D919C911997625071098109910939
:103E3000258504C0660F771F881F991F2A95D2F722
:103E40000685178520893189600F711F821F931F96
:103E50006B0D711D811D911D91CFD60116964D914F
:103E60005D916D917C9119972A813B810E94741B11
:103E70008111CFCF26CF730185019401AB01BC0125
:103E800080917B0890917C080E940018882309F497
:103E900018CF6A0C7B1CF60182859385A485B585B5
:103EA0008A0D9B1DA11DB11D82879387A487B587AD
:103EB0004A185B083CCF281B390B620E731EEBCFF0
:103EC0002A94232809F0FDCE898190E0FCCEFC01E4
:103ED000818D928D009711F00C94481E8FEF9FEF0B
:103EE00008950F931F93CF93DF93EC01898D9A8DE3
:103EF00010E000E0009799F00E94481E8C010F3FEF
:103F0000100769F0898D9A8DFC014285538564857F
:103F1000758541505109610971090E94B41CC8019D
:103F2000DF91CF911F910F9108951F93CF93DF934E
:103F3000FC0125812223D1F1162FEC01848187FF1A
:103F40002AC0668577858089918941E00E945F1942
:103F5000882361F1EA8980E2E89FF0011124E258A8
:103F6000F74F309719F18D81823040F48B899C890D
:103F7000AD89BE89848F958FA68FB78F8F89988DD5
:103F8000938F828F8F89988DA98DBA8DB58BA48BD5
:103F90008C818F778C83111103C08C818F7E8C83F1
:103FA000812FDF91CF911F910C94341980E0DF9124
:103FB000CF911F910895FF920F931F93CF93DF939B
:103FC000EC018D81813041F090E080E0DF91CF9174
:103FD0001F910F91FF9008958C8181FFF5CF82FD95
:103FE0001BC000917B0810917C08C8010E948D17AE
:103FF0000E946C17F82EC8010E945A178FEFF81212
:10400000E3CF8C8185FF1BC060E0CE010E94951F2D
:104010008C818F7D8C83D8CF4B895C896D897E891B
:104020008A859B85AC85BD8584179507A607B7074C
:10403000C1F2CE010E94B41C8111D3CFC5CF4091F3
:104040006A0750916B0760916C0770916D07452B63
:10405000462B472B21F080E00E941019B5CF8061DC
:104060008C832A853B85317080E092E0821B930B24
:10407000ADCFCF93DF93EC0161E00E94951F8823C1
:1040800011F01D8281E0DF91CF910895FC01818DB7
:10409000928D009719F061E00C94951F08952F926E
:1040A0003F924F925F926F927F928F929F92AF92C8
:1040B000BF92CF92DF92EF92FF920F931F93CF9315
:1040C000DF9300D01F921F92CDB7DEB77C015B015A
:1040D000342E5D83DC0115968C911597813009F0A3
:1040E000CEC014962C9021FECAC022FCB4C0C32CB2
:1040F000DD8022947FE027222094B22DB1702B2EF8
:10410000D7011A964D915D916D917C911D97C114C7
:10411000D10409F428C15B968D919C915C97FC01B8
:1041200074807A948A019B0169E0369527951795EA
:1041300007956A95D1F770228A011170711020C01D
:1041400001151105E9F416964D915D916D917C91E3
:104150001997411551056105710509F099C05796E8
:104160008D919D910D90BC91A02D0097A105B10559
:1041700009F0B0C0C7010E94481D882309F47FC020
:1041800080E092E0801B910B46018C159D0508F4A0
:104190004C01D7015B964D915C915C9716968D9181
:1041A0009D910D90BC91A02D0297A109B109FA0132
:1041B000258504C0880F991FAA1FBB1F2A95D2F717
:1041C0004685578560897189840F951FA61FB71F83
:1041D0009C01AD01270D311D411D511D29013A01E1
:1041E000811432E0930609F07BC080911602909111
:1041F0001702A0911802B091190284159505A60521
:10420000B70559F48FEF9FEFDC018093160290936E
:104210001702A0931802B0931902022D9501B30161
:10422000A20180917B0890917C080E94A2188823AB
:1042300031F19EEFB91AC818D908F7018285938524
:10424000A485B585880D991DA11DB11D8287938711
:10425000A487B58755CFF701438954896589768945
:1042600082859385A485B585481759076A077B071A
:1042700009F43DCFC7010E94B41C811138CF81E001
:1042800090E0D70113969C938E93129780E007C01D
:104290009E012F5F3F4F0E94741B811102C090E06E
:1042A00079C089819A81AB81BC81F701238D348DDE
:1042B000F901278948EF5FEF60E070E0203121F0DD
:1042C00048EF5FEF6FEF7FE084179507A607B7070A
:1042D00008F050CFF70186839783A087B18750CF2E
:1042E0000115110599F5D7011A964D915D916D91C2
:1042F0007C911D9753968D919D910D90BC91A02D11
:10430000481759076A077B0708F181E00E943419B2
:10431000882309F4B4CF409216025092170260929B
:1043200018027092190280917D08816080937D0847
:10433000C8018258974FD5019C01280D391DFC01F9
:104340002E173F0759F04D914193FACF41E0C30139
:10435000B2010E945F198111EBCF91CF281B390B5D
:10436000A20EB31E68CFF70183899489A589B68907
:1043700084179507A607B70738F48481438B548BBD
:10438000658B768B80688483F701848183FD1AC0F6
:10439000832D9D810F900F900F900F900F90DF91C4
:1043A000CF911F910F91FF90EF90DF90CF90BF9032
:1043B000AF909F908F907F906F905F904F903F90C5
:1043C0002F90089561E0C7010E94951F882309F48A
:1043D00056CFDECFCF93DF931F92CDB7DEB7698381
:1043E00041E050E0BE016F5F7F4F0E944F200F9071
:1043F000DF91CF910895CF93DF93EC01E98DFA8D92
:10440000309749F481E090E09B838A8390E080E0DC
:10441000DF91CF91089513821282898D9A8D0E9427
:104420004F20E98DFA8D22813381232B59F7F0CF6C
:104430000895FC016370668B8481958126813781A4
:10444000613039F0633029F0918780873387228784
:104450000895318720879387828708952F923F920E
:104460004F925F926F927F928F929F92AF92BF9284
:10447000CF92DF92EF92FF920F931F93CF93DF9330
:10448000CDB7DEB76A970FB6F894DEBF0FBECDBFCB
:104490009A8F898F7A8369834A01D22E18870F8376
:1044A0003701BC2CDC0159962D913C915A9721156E
:1044B000310509F015C118968D919C9119976817CF
:1044C00079070CF0D7C11A968D919C91481759071E
:1044D0000CF0D0C14C2C512CB6E0CB9E600D711D60
:1044E00011247C876B87161617060CF0C3C1EA2DC2
:1044F000F0E0FA87E98793E0EE0FFF1F9A95E1F766
:10450000F88BEF87CF01840F951F181619060CF052
:10451000B1C1A98DBA8D58968C91811104C0BFEAA2
:10452000BD1508F4D394A98DBA8DED91FC91119726
:104530000284F385E02DCD011995B5E0DB9EC00125
:104540001124E981FA81FC83EB83312C212C9C011D
:1045500027553B4F388F2F8B4A2D50E05E8B4D8B6C
:10456000EF89F88DE20DF31D44919E828D82D12C4E
:10457000C12C69817A81620D731D7A8B698B842FBE
:1045800090E09C8B8B8BE98DFA8DA081B18140FFEF
:1045900082C0F1E0BF126FC0AF126DC01C96ED91EA
:1045A000FC912F813885A4014C0D5D1D69897A89A4
:1045B000898D9A8D1995EB89FC89F595E7954E2F94
:1045C0005FEFC51AD50A6D817E818D899E89680F3E
:1045D000791F7E836D8398E0C916D10481F6AFEF11
:1045E0002A1A3A0AEB81FC81E40DF51DFC83EB836A
:1045F000F5E02F16310409F0B3CF2F813885261549
:104600003705B9F0A98DBA8DED91FC91B1E0BB12DF
:1046100057C0AB1255C069817A816B5F7F4F0088AC
:10462000F189E02D830128E030E0A401898D9A8D85
:104630001995A98DBA8DED91FC9111970688F7898E
:10464000E02DCD016A960FB6F894DEBF0FBECDBF48
:10465000DF91CF911F910F91FF90EF90DF90CF905E
:10466000BF90AF909F908F907F906F905F904F9092
:104670003F902F9019941E96ED91FC91EF80F88455
:1046800009851A8592014D815E816B817C81898DBE
:104690009A8D199590CF2F8138852615370509F405
:1046A0008ACF31E0B31207C0A31205C01C96ED916A
:1046B000FC91930178CF1E96ED91FC917301E0CFB0
:1046C0006B857C85641975090684F785E02D730177
:1046D0000F8518899201A401898D9A8D1995A9CF0A
:1046E000F90134969491329745915491D91AB7E0D3
:1046F000DB9E400D511D1124F901259134913C8B15
:104700002B8BFA0125903490FA01329674903196F1
:104710003491398B329664903196449041E04C1537
:1047200018F04A1508F07FC0662D062C000C770B98
:104730007C836B83842D042C000C990B9E838D83CA
:10474000A98DBA8DED91FC9111970284F385E02D2E
:10475000CD011995512CD12CC12CEA2DF0E0FA870E
:10476000E9872B2D30E03C872B87A401440D511D98
:1047700047FC5A95588F4F8B69817A81660D711D60
:1047800067FC7A957E876D877989C71608F051CFC7
:104790002C2D30E04D815E81420F531FA985BA85D3
:1047A0004A9FC0014B9F900D5A9F900D1124FC0110
:1047B000E80DF91DF88BEF87852D612C4F89588DF9
:1047C000420F531F5E8B4D8B671408F050C044247A
:1047D0004394480E877041F4C1010196EB89FC892E
:1047E000E20DF31DD4901C01D7FE19C0A98DBA8D1E
:1047F000ED91FC91662D70E0B1E0BB1219C0AB12D7
:1048000017C02D853E85620F731F0484F585E02D4A
:104810002F8138854D895E89898D9A8D1995DD0C9A
:104820006394842DD1CF1E821D821C821B8288CF6F
:104830004B815C81640F751FAB85BC856A9FC0018D
:104840006B9F900D7A9F900D112469817A81680F7A
:10485000791F0684F785E02DEF80F88409851A8595
:104860009D014F855889898D9A8D1995D8CF570C00
:10487000C3948ACF6A960FB6F894DEBF0FBECDBF41
:10488000DF91CF911F910F91FF90EF90DF90CF902C
:10489000BF90AF909F908F907F906F905F904F9060
:1048A0003F902F9008958F929F92AF92CF92EF9268
:1048B000FF920F931F93CF93DF93EC01262F898DE7
:1048C0009A8D009709F051C06A30D1F41D861C867C
:1048D0008D8948E0849F900111248E859F85820FE9
:1048E000931F9F878E8781E090E0DF91CF911F918A
:1048F0000F91FF90EF90CF90AF909F908F90089581
:104900006D3089F3CC88AD888F898823C1F08C8580
:104910009D8536E0C39E800D911D112448855985E3
:104920004817590764F44E855F851D861C8638E05C
:10493000A39EC0011124840F951F9F878E87EA884C
:10494000FB88088919894E855F856C857D85CE0138
:104950000E942E222C898C859D8546E0249F800D07
:10496000911D11249D878C87BECF6A3069F41D8606
:104970001C86FC013896E4912D898E859F85E29FE7
:10498000800D911D1124ADCF6D3009F4ACCFFC0129
:1049900034963491631708F4A6CF3296E491E61763
:1049A00008F4A1CFFC01329685909490462F431BCA
:1049B000342F47E0349F800C911C1124F40132966F
:1049C00034913196E4913323A9F1EE2399F1CC8807
:1049D000F4013596E491AD884F89442301F10E2E00
:1049E000000CFF0BE30FF11DCE9EA001CF9E500DDA
:1049F00011246C857D85460F571F6885798564175E
:104A000075076CF44E855F851D861C86FC01389603
:104A1000E491AE9E400D511D11245F874E87EA88B8
:104A2000FB88088919894E855F856C857D85CE0157
:104A30000E942E22F4013496E4912C898C859D8568
:104A4000E29F800D911D11248DCF6F927F928F92E6
:104A50009F92AF92BF92CF92DF92EF92FF920F930D
:104A60001F93CF93DF93EC016B015A013901480189
:104A7000E881F9810284F385E02D1995E881F981B7
:104A80000288F389E02D87019301A501B601CE01CB
:104A90001995A501480D591D41505109E881F98129
:104AA0000288F389E02D9301B601CE011995E881C2
:104AB000F9810088F189E02D9401A501B601CE01AC
:104AC0001995C60CD71CB60161507109E881F981AE
:104AD0000088F189E02D9401A501CE011995E881A6
:104AE000F9810688F789E02DCE01DF91CF911F91E2
:104AF0000F91FF90EF90DF90CF90BF90AF909F907D
:104B00008F907F906F9019946F927F928F929F9267
:104B1000AF92BF92CF92DF92EF92FF920F931F93CB
:104B2000CF93DF935C01EB016A01490138018701F2
:104B3000DC01ED91FC916217730719F56416750697
:104B40002CF0962D872D3A01C92ED82E96012619C4
:104B500037092F5F3F4F048CF58DE02DA301BE0177
:104B6000C5011995DF91CF911F910F91FF90EF90A3
:104B7000DF90CF90BF90AF909F908F907F906F907D
:104B800008954615570591F42617370724F0892D07
:104B90004B01C22FD82F9E01281939092F5F3F4F93
:104BA000068CF78DE02DA601B401DACF0284F385DF
:104BB000E02D1995D501ED91FC910488F589E02D42
:104BC00083019401A601BE01C5011995D501ED919E
:104BD000FC910688F789E02DC501DF91CF911F91E7
:104BE0000F91FF90EF90DF90CF90BF90AF909F908C
:104BF0008F907F906F901994EF92FF920F931F9375
:104C0000DC011A960D911C911B9718962D913C91E1
:104C10001997ED91FC9100A0F1A1E02D7B0150E0EE
:104C200040E070E060E019951F910F91FF90EF90C8
:104C300008954F925F926F927F928F929F92AF9260
:104C4000BF92CF92DF92EF92FF920F931F93CF9379
:104C5000DF936C012B015A0139014801DC01ED9110
:104C6000FC910284F385E02D1995E201640C751C1A
:104C7000D601ED91FC91C615D7055CF40088F18949
:104C8000E02D87019401A501BE01C6011995219669
:104C9000EFCF0688F789E02DC601DF91CF911F91F4
:104CA0000F91FF90EF90DF90CF90BF90AF909F90CB
:104CB0008F907F906F905F904F9019948F929F92FA
:104CC000AF92BF92CF92DF92EF92FF920F931F931A
:104CD000CF93DF93EC015B014A016901E881F9811F
:104CE0000284F385E02D199595012C0D3D1D215071
:104CF0003109E881F9810488F589E02D7801840182
:104D0000A401B501CE011995E881F9810688F789DA
:104D1000E02DCE01DF91CF911F910F91FF90EF9089
:104D2000DF90CF90BF90AF909F908F9019948F920B
:104D30009F92AF92BF92CF92DF92EF92FF920F932A
:104D40001F93CF93DF93EC015B014A016901780166
:104D5000E881F9810284F385E02D1995C80CD91CEE
:104D6000860101501109E881F9810488F589E02D57
:104D70009501A401B501CE011995E881F981068854
:104D8000F789E02DCE01DF91CF911F910F91FF9018
:104D9000EF90DF90CF90BF90AF909F908F9019943D
:104DA000EF92FF920F931F93DC01ED91FC9100A015
:104DB000F1A1E02D19951F910F91FF90EF900895AB
:104DC0000F931F93DC01ED91FC91068CF78DE02D84
:104DD00019951F910F9108950F931F93DC01ED9189
:104DE000FC91048CF58DE02D19951F910F9108957C
:104DF000DC01ED91FC910084F185E02D19943F9246
:104E00004F925F926F927F928F929F92AF92BF92DA
:104E1000CF92DF92EF92FF920F931F93CF93DF9386
:104E20005C017B014A016901390187E0680E711C50
:104E300093E0759467949A95E1F72B01400E511E0B
:104E400010E000E0312CD0E0C0E0CE01877099275F
:104E5000330C892B59F4FE0183E0F595E7958A958B
:104E6000E1F7E00FF11FE80DF91D349037FE0AC09D
:104E700021E030E0A701B5016C0F7D1F8FEE9FE0B0
:104E80000E94F8262196CC16DD06F9F68FEFE81A77
:104E9000F80A060D171DE414F504A9F6DF91CF9169
:104EA0001F910F91FF90EF90DF90CF90BF90AF9048
:104EB0009F908F907F906F905F904F903F9008955C
:104EC0002F923F924F925F926F927F928F929F921A
:104ED000AF92BF92CF92DF92EF92FF920F931F9308
:104EE000CF93DF9300D000D0CDB7DEB73C016A018D
:104EF0003E832D83FC82EB825801A41AB50AB7FECB
:104F000003C0B194A194B1088D809E80861A970A3F
:104F100097FE03C09194819491088A149B045CF0DD
:104F2000902F812F0D811E819D838E839C2D8D2D31
:104F30006B01692F782F0C151D055CF09D818E810A
:104F40007E836D83692F782F902F812F8601C92E44
:104F5000D82E1601201A310A2B012D813E81421ACA
:104F6000530A57FE03C0519441945108710137FE12
:104F700003C03FEFE31AF30AF594E7948D819E8115
:104F8000861797075CF5A1E0B0E0BA83A983C01645
:104F9000D1064CF1D301ED91FC910484F585E02D0F
:104FA0002B813C81A8016D817E818A149B041CF0B9
:104FB0004D815E81B801C3011995E418F508F7FE2B
:104FC0000AC02D813E8189819A81280F391F3E8335
:104FD0002D83E20CF31C0F5F1F4FD9CF2FEF3FEF54
:104FE0003A832983D4CF26960FB6F894DEBF0FBE3E
:104FF000CDBFDF91CF911F910F91FF90EF90DF9088
:10500000CF90BF90AF909F908F907F906F905F9068
:105010004F903F902F900895089520911E07260FDE
:105020003327331F21323105ECF420914207FC0174
:1050300090E080E0243069F082E00895A0911E079E
:105040002191AC014250594FA40FB52FB11D2C93A3
:105050000196861798F380911E07680F60931E07CC
:1050600080E0089581E008951092420781E08093E6
:1050700044071092430761E084E10E94E20E61E080
:1050800085E10E94E20EE9EBF0E080818E7F808373
:1050900080818D7F808388E48093B80085E480934D
:1050A000BC000895CF93DF9391E09093FD06882391
:1050B000B9F0C091B800D091BA008091BC008A7B51
:1050C0008093BC0060E084E10E94E20E60E085E134
:1050D0000E94E20E0E943428D093BA00C093B80018
:1050E000DF91CF910895E091730780917207E817DF
:1050F00030F4F0E0E852F94F808190E008958FEFAE
:105100009FEF089590917307809172072FEF3FEF03
:10511000981748F4E92FF0E0E852F94F208130E089
:105120009F5F90937307C9010895809172079091D2
:105130007307891B990B0895CF92DF92EF92FF922C
:105140000F931F93CF93DF937C01CB018A012091B2
:10515000810A222389F0EB016B01C40ED51ECC1508
:10516000DD0569F06991D701ED91FC910190F08125
:10517000E02DC7011995F3CF642F0E940D28C801B7
:10518000DF91CF911F910F91FF90EF90DF90CF9023
:105190000895CF93DF931F92CDB7DEB76983209137
:1051A000810A2223F9F020917E0A203258F021E072
:1051B00030E0FC013383228390E080E00F90DF91A8
:1051C000CF91089580917F0AE82FF0E0E854F94FDD
:1051D000998190838F5F80937F0A80937E0A81E01C
:1051E00090E0ECCF61E0CE0101960E940D28F7CF50
:1051F000CF92DF92EF92FF920F931F93CF93DF93A3
:10520000D0917E0A81E0D13208F09CC0C091800A22
:105210000E942D126B017C018091420781116CC0AC
:1052200082E08093420781E0809344078FEF809370
:10523000410710926607D0936507A8EBB6E0E5E456
:10524000F7E080E0D8138DC0109267078091670760
:10525000CC0FC82BC093670780914307813009F0BA
:1052600084C0109243070E942D126B017C01809133
:1052700067078093BB008091F9069091FA06A09190
:10528000FB06B091FC06892B8A2B8B2BA1F00E9488
:105290002D120091F9061091FA062091FB0630912B
:1052A000FC066C197D098E099F0906171707280748
:1052B000390708F442C08091BC0083FDD8CF85EC4B
:1052C0008093BC000E942D126B017C0180914207EB
:1052D000823009F44CC0809141078F3F09F469C0C6
:1052E00080914107803209F466C080914107803384
:1052F00009F463C084E026C08091F9069091FA0613
:10530000A091FB06B091FC06892B8A2B8B2B09F40C
:1053100083CF0E942D120091F9061091FA06209178
:10532000FB063091FC066C197D098E099F09061752
:1053300017072807390708F06FCF8091F8060E94F9
:10534000522885E010927F0A10927E0A1092810AFC
:10535000DF91CF911F910F91FF90EF90DF90CF9051
:1053600008959D9191938F5F6DCF85EEA9CF809128
:10537000F9069091FA06A091FB06B091FC06892BE4
:105380008A2B8B2B09F4A2CF0E942D120091F906D3
:105390001091FA062091FB063091FC066C197D09EC
:1053A0008E099F09061717072807390708F08ECFBF
:1053B000C4CF80E0C7CF82E0C5CF83E0C3CFEF92F8
:1053C000FF920F931F93CF93DF937C01C62F8091A1
:1053D0000C1090910D10009709F459C020911010F5
:1053E00031E03093810A2093800A10927F0A109254
:1053F0007E0ADC01ED91FC910190F081E02D60E0EE
:1054000019958701EE24E394F12CD1E0C1508091ED
:105410000C1090910D10CF3F91F1B0E2EB16F1041A
:10542000D8F00E94F82880910C1090910D102091D6
:105430001010D093810A2093800A10927F0A109254
:105440007E0ADC01ED91FC910190F081E02D60E09D
:105450001995EE24E394F12C80910C1090910D108D
:10546000F8016491DC01ED91FC910190F081E02D57
:105470001995BFEFEB1AFB0A0F5F1F4FC7CFDF91E4
:10548000CF911F910F91FF90EF900C94F828E0912D
:105490001C10F0911D10908180912210809589231D
:1054A00080838701C15008F438C0F80184912091AD
:1054B0000A1030910B10232B29F00E9465170F5F03
:1054C0001F4FF0CF28E030E040E8E0911810F09155
:1054D000191090912010582F5423D9F05081952BFA
:1054E0009083E0911A10F0911B109081509121103F
:1054F000952B9083E0911A10F0911B1050819091A0
:105500002110909595239083469521503109E9F615
:10551000D6CF508190959523E3CFDF91CF911F9106
:105520000F91FF90EF9008951F93CF93DF93EC01BD
:105530008D8D9E8D009721F1162F29A131E030939A
:10554000810A2093800A10927F0A10927E0ADC0161
:10555000ED91FC910190F081E02D60E019958D8D29
:105560009E8DDC01ED91FC910190F081E02D612F89
:1055700019958D8D9E8DDF91CF911F910C94F828F8
:10558000ADA5BEA59C918BA9809589238C938B8D0D
:105590009C8D892B31F0862FDF91CF911F910C9438
:1055A000651728E030E080E8A9A5BAA599A9462F9B
:1055B0004823C1F04C91942B9C93ABA5BCA59C9126
:1055C0004AA9942B9C93ABA5BCA54C919AA9909504
:1055D00094239C9386952150310931F7DF91CF9127
:1055E0001F9108954C9190959423E6CFDF92EF920E
:1055F000FF920F931F93CF93DF9380910C109091A4
:105600000D10892B09F4A5C020912410309125108C
:10561000409126105091271060E074E284EF90E0F2
:105620000E949A68205131094109510956954795C0
:10563000379527952093B80064E082ED96E10E94AB
:10564000DF298091F30F9091F40F8034910509F0D8
:1056500097C060E28FEE9FE00E94942A6091F30F62
:10566000615E8FEE9FE00E94942A2091F50F3091A9
:10567000F60FC901079697FD079633E09595879534
:105680003A95E1F72091F30F3091F40F829F80015A
:10569000839F100D929F100D1124C0910E10D09178
:1056A0000F1080910C1090910D100C0F1D1F009782
:1056B00009F498C02091101031E03093810A2093B2
:1056C000800A10927F0A10927E0ADC01ED91FC9113
:1056D0000190F081E02D60E41995EE24E394F12C23
:1056E000DD24D39480910C1090910D100C171D07A0
:1056F00009F44FC0B0E2EB16F104D8F00E94F8288C
:1057000080910C1090910D1020911010D092810A70
:105710002093800A10927F0A10927E0ADC01ED919C
:10572000FC910190F081E02D60E41995EE24E39462
:10573000F12C80910C1090910D106991DC01ED918C
:10574000FC910190F081E02D1995BFEFEB1AFB0A57
:10575000C9CF80910A1090910B10892B31F0809164
:105760002D1090912E100E948A17E0911E10F0913A
:105770001F109081809123108095892380835CCFB6
:1057800060E08FEE9FE00E94942A6091F30F6150D9
:1057900068CF0E94F82880910C1090910D10892BF1
:1057A00009F461C0209128103091291040912A10ED
:1057B00050912B1060E074E284EF90E00E949A68B0
:1057C000205131094109510956954795379527953B
:1057D0002093B800DF91CF911F910F91FF90EF9030
:1057E000DF900895E0911C10F0911D108081909140
:1057F0002210892B80830C171D0769F28991209153
:105800000A1030910B10232B19F00E946517F3CF6B
:1058100028E030E040E8E0911810F09119109091E4
:105820002010582F5423D9F05081952B9083E0916C
:105830001A10F0911B10908150912110952B90839C
:10584000E0911A10F0911B105081909121109095C9
:1058500095239083469521503109E9F6CCCF5081AC
:1058600090959523E3CFE0911E10F0911F10808159
:1058700090912310892B8083ADCF1F93CF93DF931B
:10588000EC01162F8D8D9E8D892BB1F12DA93EA98E
:105890004FA958AD60E074E284EF90E00E949A68EE
:1058A000205131094109510956954795379527955A
:1058B0002093B80066EA111167EACE010E94942A8B
:1058C0008D8D9E8D892B41F129AD3AAD4BAD5CADEF
:1058D00060E074E284EF90E00E949A682051310900
:1058E0004109510956954795379527952093B8005A
:1058F000DF91CF911F9108958B8D9C8D892B21F085
:105900008EAD9FAD0E948A17EFA5F8A990818CA952
:10591000809589238083CECFEFA5F8A980819CA9AB
:10592000892B8083E5CF90E080E008958F929F924D
:10593000AF92BF92CF92DF92EF92FF921F93CF93DD
:10594000DF93FC018281938168177907A8F54A01EA
:10595000AA24BB24C82DC32ED42EE52EFF241C2D33
:10596000D22F8085882361F0889E40011124C92DA3
:105970008C9D600111241D2D829FD0011124DB2FED
:10598000A685E184F2849385A91322C0CB01880FF8
:10599000991F680F791F6E0D7F1DA385A60FB72F66
:1059A000B11DCC93A485A60FB72FB11D1C9385857F
:1059B000680F711DFB01D083DF91CF911F91FF9084
:1059C000EF90DF90CF90BF90AF909F908F90089511
:1059D000660F771F660F771F6E0D7F1D252F3327EC
:1059E00044275527882349F090E0829F7001839FC8
:1059F000F00C929FF00C11242F2DA60FB72FB11D84
:105A00002C93CBCFCF92DF92EF92FF920F931F9305
:105A1000CF93DF9300D000D000D0CDB7DEB78C019C
:105A2000DC0119968D919C91892B09F473C00E9419
:105A30002D12F801C784D088E188F2886C157D05A5
:105A40008E059F0520F46787708B818B928BF80100
:105A5000C784D088E188F2886C197D098E099F0976
:105A60006C3271408105910510F3F894D8011496B9
:105A70008D919C9115979A8389831996ED91FC914C
:105A80007F01BFEFEB1AFB0A80818987F8019081C3
:105A90000388F489E02DD80155968C91992309F457
:105AA00048C09081982B98879081809589238F8317
:105AB0008F818C8388E08B8358856F8149853B81FA
:105AC0002C8189819A81D701508347FD252F3A95F2
:105AD0002083262F39F0441F00C00000608300009F
