:100000000C946B0C0C949C0C0C949C0C0C949C0C01
:100010000C949C0C0C949C0C0C949C0C0C949C0CC0
:100020000C949C0C0C949C0C0C949C0C0C949C0CB0
:100030000C949C0C0C9405520C949C0C0C949C0CF1
:100040000C949C0C0C949C0C0C949C0C0C949C0C90
:100050000C949C0C0C949C0C0C949C0C0C94BB511C
:100060000C949C0C0C948F520C9465520C949C0C28
:100070000C949C0C0C949C0C0C949C0C0C949C0C60
:100080000C949C0C0C949C0C0C949C0C0C949C0C50
:100090000C949C0C0C949C0C0C949C0C0C94C552D1
:1000A0000C949C0C0C949C0C0C949C0C0C949C0C30
:1000B0000C949C0C0C949C0C0C949C0C0C949C0C20
:1000C0000C949C0C0C949C0C0C949C0C0C949C0C10
:1000D0000C949C0C0C949C0C0C949C0C0C949C0C00
:1000E0000C949C0C0C940C330C9490140C941633BC
:1000F0000C9457330C9404330C94673D0C943F29B3
:100100000C9446290C94200F0C94D9320C94A667B9
:100110000C94D5670C94C3260C940B140C94942265
:100120000C94973D0C941B200C942E260C94B6280E
:100130000C9443330C9434540C94FB0E0C94DA134B
:100140000C944D330C943B130C948A270C941D296A
:100150000C942C290C94763D0C948F680C94962763
:100160000C94CF250C9461150C94A5220C94883D19
:100170000C941A0F0C940A280C948B3D0C94706804
:100180000C943D2D0C94390F0C94240F0C944314B3
:100190000C94A2270C94703D0C9420330C948E3D4B
:1001A0000C945F0F0C9432680C943F0F0C945B0F0F
:1001B0000C947F3D0C94430F0C94733D0C946A3D5A
:1001C0000C94E72C0C94510F0C94550F0C94F232B4
:1001D0000C941E170C94526A0C948E670C942C0F7E
:1001E0000C94FD130C9476670C94DE320C94AD13D2
:1001F0000C94853D0C94AE680C947C3D0C94943D1D
:100200000C945A0F0C94B6670C9413680C944D0F11
:100210000C94F4670C942F0F0C94280F0C94FC3260
:100220000C94E8320C942A330C9451150C94470F1B
:100230000C94D1320C94F0200C9473290C948E16EB
:100240000C9496670C947A270C9439330C946D3D7A
:100250000C94823D0C9486670C947E670C94913DBF
:100260000C94350F0C9431150C94793D0C9411209D
:100270000C94C3220C94AE670C946B330C949E6761
:100280000C9461330C9485200C9451680C94A62630
:100290000C94FD240C94E9130C943C130C94D71685
:1002A0004E414E494E495459494E46CDCCCC3D0A5B
:1002B000D7233C17B7D13877CC2B329595E6241F3E
:1002C000B14F0A000020410000C84200401C4620F7
:1002D000BCBE4CCA1B0E5AAEC59D744120005420B2
:1002E0000043200050415553410050415553412097
:1002F0000052554E200020286D6D3A73732900502E
:10030000534E2D50524553455045004369636C6F21
:10031000206665726D6F004369636C6F20696E20A3
:1003200065736563757A696F6E65005465737420D3
:1003300075736369746520696E20636F72736F00F3
:10034000466173653A200020286D6D3A7373290069
:1003500056454C4F4349544100544553540041566F
:10036000414E544900524950524553410050415565
:100370005341005332733D73747269736365205443
:1003800032733D65736369002C20002C200074617A
:100390007070613A20000063656E74726F00676967
:1003A0007261202D20766572736F2000676972611B
:1003B000202B20766572736F2000616767616E6322
:1003C0006961746F002046494E45005354415254B0
:1003D000203D207265676F6C61004156414E544963
:1003E000203D2063616D626961004D4F44414C497D
:1003F00054412720434F4C4F524500544553543DE0
:100400006176616E74692053544152543D65736343
:1004100069004772705F00545554544F20494E5341
:1004200049454D45004341534554544520575332A7
:10043000383131004341534554544520424C550016
:100440004341534554544520564552444900434185
:10045000534554544520524F535345005354454C33
:100460004C4520575332383131005354454C4C459C
:1004700020424C55005354454C4C4520564552445F
:1004800049005354454C4C4520524F53534500416D
:100490004C424120424C5500414C4241205645526D
:1004A000444500414C424120524F53534F00545257
:1004B000414D4F4E544F20424C55005452414D4FE8
:1004C0004E544F205645524445005452414D4F4ED4
:1004D000544F20524F53534F004349454C4F2042F5
:1004E0004C55004349454C4F205645524445004326
:1004F00049454C4F20524F53534F002F3334005433
:1005000065737420004D4F44414C49544127205499
:1005100045535400496E697A69616C697A7A617AE7
:10052000696F6E650050534E2D50524553455045EE
:100530000000000000003E5B4F5B3E3E6B4F6B3E99
:100540001C3E7C3E1C183C7E3C181C577D571C1CD6
:100550005E7F5E1C00183C1800FFE7C3E7FF001831
:10056000241800FFE7DBE7FF30483A060E2629791A
:100570002926407F050507407F05253F5A3CE73C7B
:100580005A7F3E1C1C08081C1C3E7F14227F22142C
:100590005F5F005F5F06097F017F006689956A6083
:1005A0006060606094A2FFA29408047E040810209A
:1005B0007E201008082A1C08081C2A08081E101093
:1005C00010100C1E0C1E0C30383E3830060E3E0E3D
:1005D00006000000000000005F00000007000700A8
:1005E000147F147F14242A7F2A122313086462368E
:1005F000495620500008070300001C22410000411A
:10060000221C002A1C7F1C2A08083E080800807053
:100610003000080808080800006060002010080486
:10062000023E5149453E00427F40007249494946D9
:100630002141494D331814127F1027454545393C57
:100640004A49493141211109073649494936464944
:1006500049291E0000140000004034000000081466
:1006600022411414141414004122140802015909DF
:10067000063E415D594E7C1211127C7F4949493634
:100680003E414141227F4141413E7F494949417FAD
:10069000090909013E414151737F0808087F004163
:1006A0007F41002040413F017F081422417F4040AC
:1006B00040407F021C027F7F0408107F3E41414181
:1006C0003E7F090909063E4151215E7F09192946ED
:1006D000264949493203017F01033F4040403F1F03
:1006E0002040201F3F4038403F6314081463030438
:1006F0007804036159494D43007F41414102040898
:100700001020004141417F0402010204404040406A
:1007100040000307080020545478407F28444438A0
:100720003844444428384444287F385454541800EA
:10073000087E090218A4A49C787F08040478004469
:100740007D40002040403D007F1028440000417F54
:1007500040007C047804787C0804047838444444DD
:1007600038FC1824241818242418FC7C08040408D5
:10077000485454542404043F44243C4040207C1CEE
:100780002040201C3C4030403C44281028444C90E1
:1007900090907C4464544C4400083641000000773B
:1007A0000000004136080002010204023C26232614
:1007B0003C1EA1A161123A4040207A385454555948
:1007C000215555794122545478422155547840207E
:1007D000545579400C1E5272123955555559395499
:1007E00054545939555454580000457C4100024531
:1007F0007D420001457C407D1211127DF0282528A4
:10080000F07C545545002054547C547C0A097F499F
:1008100032494949323A4444443A324A4848303AE3
:100820004141217A3A42402078009DA0A07D3D427E
:1008300042423D3D4040403D3C24FF2424487E4907
:1008400043662B2FFC2F2BFF0929F620C0887E0939
:100850000320545479410000447D413048484A32D5
:10086000384040227A007A0A0A727D0D19317D26BD
:1008700029292F28262929292630484D40203808A3
:1008800008080808080808382F10C8ACBA2F102824
:1008900034FA00007B000008142A142222142A14BF
:1008A000085500550055AA55AA55AAFF55FF55FFF2
:1008B000000000FF00101010FF00141414FF0010BF
:1008C00010FF00FF1010F010F0141414FC001414AA
:1008D000F700FF0000FF00FF1414F404FC141417C9
:1008E000101F10101F101F1414141F00101010F0F0
:1008F000000000001F101010101F10101010F0103A
:10090000000000FF101010101010101010FF100049
:100910000000FF140000FF00FF00001F1017000080
:10092000FC04F414141710171414F404F40000FF5A
:1009300000F714141414141414F700F714141417F3
:100940001410101F101F141414F4141010F010F0D1
:1009500000001F101F0000001F14000000FC140006
:1009600000F010F01010FF10FF141414FF141010FA
:10097000101F00000000F010FFFFFFFFFFF0F0F07D
:10098000F0F0FFFFFF0000000000FFFF0F0F0F0F50
:100990000F3844443844FC4A4A4A347E0202060670
:1009A000027E027E0263554941633844443C044060
:1009B0007E201E2006027E020299A5E7A5991C2A28
:1009C000492A1C4C7201724C304A4D4D30304878E7
:1009D0004830BC625A463D3E494949007E0101010A
:1009E0007E2A2A2A2A2A44445F444440514A4440E9
:1009F00040444A51400000FF0103E080FF0000082E
:100A0000086B6B083612362436060F090F060000F5
:100A100018180000001010003040FF0101001F01F5
:100A2000011E00191D1712003C3C3C3C0000000058
:100A300000000103070F1F3F7F0080C0E0F0F8FCBB
:100A4000FEDB40A4A62EAF2000A1C8D300408DAE8F
:100A5000D580A80000600000000000000000000039
:100A600000000000E00000000000000000000000A6
:100A7000000001E000000000000000000000000095
:100A80000001F00000000000000000000000000075
:100A900003F000000000000000000000000000075C
:100AA000F00000000000000000000000000007F857
:100AB000000000000000000000000000000FF8002F
:100AC000000003C0007E000001E0007F0FF800007E
:100AD0000003C000FE000001E000FFEFF80000008E
:100AE00003C000FE000001E000FFFFF8000000036B
:100AF000C000F00000000F007FFE7FC0000003C0B8
:100B000000F00000000F003FFE7FF83FF1FBCFFC3C
:100B1000FEF3BC3DEFE01FFE7FFF7FFBFFDFFEFE2D
:100B2000FFBC3DEFE01FC6FFFF7FFBFFDFFEFEFFC8
:100B3000BC3DEFE00FE3C7FE787BC3DE1EF0FFBCD9
:100B40003DEF0007FF87FC787BC3DE1EF0F83C3DDD
:100B5000EF0001FFFFF0007BC3C01EF0F03C3DEF53
:100B60000001F37FE03FFBC3CFFEF0F03C3DEF0020
:100B700003E33F807FFBC3DFFEF0F03C3DEF000767
:100B8000E73C00787BC3DE1EF0F03C3DEF0007FF42
:100B9000BE00787BC3DE1EF0F03C3DEF0007FFFE99
:100BA00000787BC3DE1EF0F03C3DEF000FFFFE003F
:100BB0007FFBFFDFFEF0F03FFDEFE00FFFFF007F68
:100BC000FBFFDFFEF0F03FFDEFE00FF9FF003E79A5
:100BD000F9CF9EF0F01F3DE7E01FF1FF000000009D
:100BE00000000000000000001F80FF007FFFFFFFEB
:100BF000FFFFFFFFFFFFE01C007F007FFFFFFFFE06
:100C0000B46D888D18E000001F007FFFFFFFFE9588
:100C1000AD7DB577E000000F007FFFFFFFFEA5ADC3
:100C20009D8D19E0000006007FFFFFFFFEB5ADEDD2
:100C3000B57EE00000000000018000000000000020
:100C4000000000038000000000000000000007C05A
:100C500000000000000000000007C00000000000CD
:100C6000000000000FC00000000000000000001F96
:100C7000E00000000000000000001FE00000000095
:100C800000000000003FE000000000000000000045
:100C90003FF00000000000000000007FF0000000B6
:100CA000000000001FF87FF0000000000000003F7F
:100CB000FE7FF0000000000000003FFF7FF000001A
:100CC00000000000001FFFFBE0000000000000002B
:100CD0000FFFF9FFC00000000000000FFFF9FFF850
:100CE00000000000000007FFF1FFFF00000000000F
:100CF0000003FC73FFFF80000000000001FE3FFFC7
:100D0000FF80000000000000FF1E0FFF0000000039
:100D10000000007FFE1FFC000000000000003FFFFD
:100D2000FFF8000000000000000FDFFFE0000000FF
:100D3000000000001F19FFC0000000000000003F7D
:100D40003CFF00000000000000007E7CF800000076
:100D500000000000007FFE7C00000000000000009A
:100D6000FFFFFC0000000000000000FFFFFE00008D
:100D7000000000000000FFFFFE0000000000000077
:100D800001FFEFFE0000000000000001FFCFFE00A9
:100D900000000000000003FF07FE0000000000004C
:100DA0000003FC07FE0000000000000003F003FE4B
:100DB00000000000000000018000FE0000000000B4
:100DC00000000000007E00000000000000000000A5
:100DD0003E000000000000000000000C00000000C9
:100DE0000000078000FC000003C000000007800135
:100DF000FC000003C0000000078001FC000003C0ED
:100E0000000000078001E00000001E0000000780D5
:100E100001E00000001E007FE3F79FF9FDE7787B0B
:100E2000DFC0FFF7FFBFFDFDFF787BDFC0FFF7FFEF
:100E3000BFFDFDFF787BDFC0F0F787BC3DE1FF78A9
:100E40007BDE00F0F787BC3DE1F0787BDE0000F749
:100E500087803DE1E0787BDE007FF7879FFDE1E062
:100E6000787BDE00FFF787BFFDE1E0787BDE00F0F6
:100E7000F787BC3DE1E0787BDE00F0F787BC3DE121
:100E8000E0787BDE00F0F787BC3DE1E0787BDE00B8
:100E9000FFF7FFBFFDE1E07FFBDFC0FFF7FFBFFD16
:100EA000E1E07FFBDFC07CF3F39F3DE1E03E7BCFE1
:100EB000C00000000000000000000000FFFFFFFF76
:100EC000FFFFFFFFFFFFC0FFFFFFFFFD68DB111A01
:100ED00031C0FFFFFFFFFD2B5AFB6AEFC0FFFFFF92
:100EE000FFFD4B5B3B1A33C0FFFFFFFFFD6B5BDB7E
:100EF0006AFDC054455354203D206D6F646F2063DC
:100F00006F6C6F72650020286D6D3A7373290062F3
:100F1000792056616E6E69203033380050534E2D63
:100F20005072657365706521007072696D61207221
:100F3000696761200076616C6F726920696E636F0A
:100F40006572656E7469004572726F726920005532
:100F5000736F2076616C6F72692064656661756C71
:100F60007400206576656E74692000526967686553
:100F70002000534420415353454E5445004D414EAB
:100F8000434120505245534550452E494E49004952
:100F90004E4920434F4E204552524F524900204F58
:100FA0004B004D4943524F20534400424F4F543A57
:100FB00020636F6D706C657461746F0050524F4E9A
:100FC000544F0043415345545445005354454C4CF1
:100FD00045005452414D4F4E544F004349454C4FEC
:100FE00000414C424100424F4F543A206175746FAA
:100FF000746573742076697369766F20757363699D
:101000007465202B206D656C6F6469612062757A50
:101010007A6572206F707A696F6E616C6500252049
:1010200061200020706978656C2C206163636573B2
:10103000652064612000436173657474653A200023
:1010400020706978656C2C20617474697665200065
:101050005374656C6C653A2000204F464600204F63
:101060004E00202800252072656C65272000200096
:101070002020004576656E74692072656C65273A9C
:101080002000206D6F726269646100206C696E657A
:101090006172650025202D3E200020200020287050
:1010A0007265646566696E697465290020286461EB
:1010B0006C2066696C6529003A2000546170706587
:1010C00020006E6F2F636F6E746174746F20617394
:1010D00073656E7465007369004661736920253A13
:1010E0002000447572617465202873293A200053EA
:1010F000636865646120696E736572697461202834
:10110000443439293A2000617373656E7465206F29
:10111000206E6F6E206C6567676962696C65202D53
:101120003E2064656661756C740073636865646114
:101130002070726573656E7465206D612050524534
:10114000534550452E494E49202F20505245534576
:1011500050452E545854206D616E63616E74652045
:101160002D3E2064656661756C740029002028702E
:1011700072696D613A2000206C6574746F2C207266
:10118000696768652069676E6F726174653A2000EF
:10119000206C6574746F2073656E7A61206572725D
:1011A0006F7269006D6963726F53443A2000536334
:1011B000656C74612073747269736369613A20416C
:1011C00056414E5449203D2063616D6269612C2077
:1011D0005354415254203D207265676F6C612C203E
:1011E0005445535420322073203D206573636900B9
:1011F0003D3D3D204D4F44414C4954412720434FF4
:101200004C4F5245203D3D3D00417676696F20723E
:10121000617069646F202866617374626F6F7429EE
:101220003A206E6F00417676696F20726170696452
:101230006F202866617374626F6F74293A20736936
:1012400000506F73697A696F6E6520706F74656E98
:101250007A696F6D6574726F2041303A2000207397
:1012600065636F6E646900447572617461206369BF
:10127000636C6F20696D706F737461746120616C51
:101280006C27617676696F3A20004F4C45443A20CE
:101290006E6F6E2070726573656E74652C20636F5F
:1012A0006E74696E756F2073656E7A612064697300
:1012B000706C6179004F4C45443A204F4B004435E7
:1012C000302D443533203D206D6963726F534420C7
:1012D0005350492028435320443533292C2044348B
:1012E00039203D2073636865646120696E7365729F
:1012F00069746100413020203D20445552415441E1
:10130000204349434C4F20283320736361676C6945
:101310006F6E69206461205B4349434C4F5D290037
:101320004432302F443231203D204F4C4544204937
:101330003243203078334320286F707A696F6E61B2
:101340006C652900443234203D20544553540044F8
:101350003233203D204156414E5449004432322020
:101360003D2053544152542F53544F500044343471
:101370002F4434352F443436203D205247422044F8
:101380004553545241202F20414C42410044372FB5
:101390004431312F443132203D20524742205349BD
:1013A0004E4953545241202F205452414D4F4E54D8
:1013B0004F00443620203D2042555A5A4552207055
:1013C00061737369766F206F707A696F6E616C6597
:1013D000004438203D204441544120575332383195
:1013E00031204341534554544500443520203D208D
:1013F0004441544120575332383131202835302070
:101400007374656C6C652900443420203D2052477C
:101410004220426C7500443320203D205247422038
:10142000566572646500443220203D2052474220B8
:10143000526F73736F003D3D3D3D3D3D3D3D3D3D34
:101440003D3D3D3D3D3D3D3D3D3D3D3D3D3D3D3DCC
:101450003D3D3D3D3D3D3D3D3D3D3D3D3D3D002016
:101460005052455345504520434F4E54524F4C4CDB
:101470004552202D205265762044202870617261EB
:101480006D65747269206461206D6963726F534485
:1014900029003D3D3D3D3D3D3D3D3D3D3D3D3D3DCD
:1014A0003D3D3D3D3D3D3D3D3D3D3D3D3D3D3D3D6C
:1014B0003D3D3D3D3D3D3D3D3D3D00555343495442
:1014C00041204D4F44414C4954412720434F4C4FFC
:1014D00052453A20706172746520696C20636963BB
:1014E0006C6F00414C4241005452414D4F4E544F9D
:1014F000004349454C4F002C20002C20003A20741A
:1015000061707061203D20464153452C20252C20E0
:1015100000434F4C4F52452000504155534100521B
:10152000554E00207C2000207C2041303A200020B5
:101530006D696E00207C206369636C6F3A20002522
:1015400000207C2000466173653A200054455354C6
:101550002031382F3334202D20545554544F2049F6
:101560004E5349454D4500544553542031372F3390
:1015700034202D205455545445204C45204341538C
:101580004554544500544553542031362F333420AC
:101590002D204341534554544520424C5500544559
:1015A00053542031352F3334202D2043415345549B
:1015B0005445205645524449005445535420313433
:1015C0002F3334202D204341534554544520524F4E
:1015D00053534500544553542031332F3334202D79
:1015E000205455545445204C452035302053544503
:1015F0004C4C4500544553542031322F3334202D68
:10160000205354454C4C4520424C550054455354AE
:101610002031312F3334202D205354454C4C45205C
:10162000564552444900544553542031302F3334E9
:10163000202D205354454C4C4520524F53534500C8
:101640005445535420392F3334202D20414C4241EE
:1016500020424C55005445535420382F3334202D0C
:1016600020414C4241205645524445005445535474
:1016700020372F3334202D20414C424120524F53EC
:10168000534F005445535420362F3334202D2054CB
:1016900052414D4F4E544F20424C550054455354E7
:1016A00020352F3334202D205452414D4F4E544F6E
:1016B000205645524445005445535420342F33346A
:1016C000202D205452414D4F4E544F20524F5353D2
:1016D0004F005445535420332F3334202D20434999
:1016E000454C4F20424C55005445535420322F3323
:1016F00034202D204349454C4F2056455244450047
:101700005445535420312F3334202D204349454C28
:101710004F20524F53534F00202D20005F30002F99
:101720003334202D204772705F30005445535420CD
:101730000054455354203D207465737420737563C1
:101740006365737369766F2C205354415254203D66
:101750002065736369003D3D3D204D4F44414C4938
:101760005441272054455354203D3D3D00415641AE
:101770004E5449202D3E20005249505245534100BD
:10178000504155534100555343495441204D4F4416
:10179000414C495441272054455354000000210036
:1017A000240027002A002D00300033000101000032
:1017B000040107010A01000020002300260029007F
:1017C0002C002F0032000001000003010601090176
:1017D00000000A0B02090C0D0E08070304010000AB
:1017E00000000000000000000000000000000000F9
:1017F00000000000000000000000000012111000B6
:1018000000000000000000000000000000000000D8
:101810000000000000007C3C3E5E2B3D3F2F5B5DE6
:101820003B2C2A225C002200FF2102010210202012
:101830000808102040102040800201020108040224
:10184000010102040810204080804020100804029A
:1018500001800402018040201008040201080402F3
:1018600001010204081020408001020408102040F9
:101870008000002200250028002B002E00310034BB
:101880000002010000050108010B0105050505071F
:101890000508080808020202020A0A0808040404EB
:1018A0000401010101010101010303030303030317
:1018B00003040707070C0C0C0C0C0C0C0C020202A6
:1018C0000206060606060606060B0B0B0B0B0B0B99
:1018D0000B003454526A11241FBECFEFD1E2DEBF99
:1018E000CDBF00E00CBF15E0A0E0B2E0EAEAF4EE04
:1018F00000E00BBF02C007900D92A637B107D9F7E1
:1019000020E1A6E7B5E001C01D92AA3AB207E1F7CF
:101910001CE0CAE6DCE000E006C021970109802F48
:10192000FE010E94B170C936D10780E00807A9F70F
:101930000E94DE540C9443720C94000020913C0FE2
:1019400030913D0F2F5F3F4F30933D0F20933C0F61
:1019500020913E0F30913F0F232B21F490933F0FA6
:1019600080933E0F08954F925F926F927F928F9275
:101970009F92AF92BF92CF92DF92EF92FF920F931E
:101980001F93CF93DF93CDB7DEB7AC970FB6F89424
:10199000DEBF0FBECDBF4A015B011D8A1E8A1F8AB2
:1019A000188E4090FD0A5090FE0A6090FF0A7090D9
:1019B000000B498E5A8E6B8E7C8E0091010B10911C
:1019C000020B2091030B3091040B0D8F1E8F2F8F74
:1019D00038A3C090050BD090060BE090070BF09059
:1019E000080BC9A2DAA2EBA2FCA24091090B50910C
:1019F0000A0B60910B0B70910C0B49A75AA76BA7B0
:101A00007CA74DA35EA36FA378A740E050E068ECED
:101A100072E4498B5A8B6B8B7C8B49825A826B8226
:101A20007C820D831E832F833887C986DA86EB86F6
:101A3000FC8629A53AA54BA55CA52D873E874F8737
:101A4000588B853008F084E034E0839FF001112446
:101A500041E050E04C0F5D1FE40FF51FC488D588AE
:101A6000E688F788A7019601608171818281938160
:101A70000E946A6FA50194010E94366E20E030E05A
:101A800048EC52E40E94D76FA70196010E946B6F49
:101A9000AC960FB6F894DEBF0FBECDBFDF91CF91ED
:101AA0001F910F91FF90EF90DF90CF90BF90AF907C
:101AB0009F908F907F906F905F904F9008952F929E
:101AC0003F924F925F926F927F928F929F92AF92CE
:101AD000BF92CF92DF92EF92FF920F931F93CF931B
:101AE000DF93E82FF0E0E55FF04FC081C11118C02F
:101AF000D0E0212C80E06D2F722DDF91CF911F91CE
:101B00000F91FF90EF90DF90CF90BF90AF909F909C
:101B10008F907F906F905F904F903F902F9008959F
:101B200024EB829F800111240151134FC13029F40D
:101B3000F801D68127808085DECF4A015B017801DC
:101B400022242A94D0E0F701428153816481758177
:101B500080810E94B30CA50194010E94D06D1816DB
:101B60000CF02D2E81E08D0FF9E0EF0EF11CC81363
:101B700024C027FE24C02D2EF80189E0D802E00DF4
:101B8000F11D1124428153816481758180810E94FD
:101B9000B30C20E030E048EC52E40E946A6F2B0165
:101BA0003C01F801428153816481758180810E94EA
:101BB000B30C6B017C01C0E02CC0D82FC4CFD9E09E
:101BC000F801222D2D02E00DF11D112442815381D7
:101BD0006481758180810E94B30C2B013C01822DB0
:101BE000022C000C990B0196C817190609F00CF489
:101BF000E4C0C1E0C20DF801CD9FE00DF11D11243C
:101C0000428153816481758180810E94B30C6B0194
:101C10007C01A7019601C301B2010E94D06D87FF2C
:101C2000DFC0A3019201C501B4010E946A6F4B019C
:101C30005C01A3019201C701B6010E946A6F9B017A
:101C4000AC01C501B4010E94D76F6B017C0120E09B
:101C500030E0A9010E94D06D87FDBEC020E030E0D9
:101C600040E85FE3C701B6010E947F7018160CF4CC
:101C7000B7C0C801E9E0CE9F800D911D1124EC0191
:101C8000898181111EC0A7019601C701B6010E947A
:101C9000366E2B013C01A7019601C701B6010E94D7
:101CA0006B6F9B01AC0160E070E080E490E40E9407
:101CB0006A6F9B01AC01C301B2010E94366E6B01D9
:101CC0007C013884F22D29E0F202000D111D11244F
:101CD000F801B08420E030E0A901C701B6010E94FC
:101CE000D06D87FD84C020E030E040E85FE3C701AD
:101CF000B6010E947F70181634F4C12CD12C80E8F4
:101D0000E82E8FE3F82E6B2D70E090E080E00E94CB
:101D1000D76D4B015C01F801678170E090E080E0D5
:101D20000E94D76D2B013C016F8170E090E080E054
:101D30000E94D56DA30192010E946A6FA7019601CE
:101D40000E94366EA30192010E946B6F0E94507038
:101D5000262EF801668170E090E080E00E94D76D49
:101D60002B013C016E8170E090E080E00E94D56D17
:101D7000A30192010E946A6FA70196010E94366E2C
:101D8000A30192010E946B6F0E945070D62F632DA9
:101D900070E090E080E00E94D56DA50194010E9462
:101DA0006A6FA70196010E94366EA50194010E94F8
:101DB0006B6F0E945070862F9ECEF8014281538136
:101DC0006481758180810E94B30C20E030E048EC92
:101DD00052E40E946B6FEDCEC12CD12C760149CF1D
:101DE000C12CD12C90E8E92E9FE3F92E42CFC12CD3
:101DF000D12C760188CF08958150823108F05AC0E5
:101E0000E82FF0E08827E85FF04F8F4F0C94B17017
:101E1000280F2C0F1A0F200F240F5A0F2F0F350FDA
:101E2000390F3F0F430F470F4D0F510F5A0F550FEB
:101E30005B0F5F0F809180008F7780938000089503
:101E4000809180008F7DF9CF80918000877FF5CFD2
:101E500084B58F7784BD089584B58F7DFBCF809145
:101E6000B0008F778093B00008958091B0008F7D8F
:101E7000F9CF809190008F778093900008958091A2
:101E800090008F7DF9CF80919000877FF5CF809172
:101E9000A0008F778093A00008958091A0008F7D8F
:101EA000F9CF8091A000877FF5CF809120018F77B7
:101EB000809320010895809120018F7DF9CF80913A
:101EC0002001877FF5CFCF93DF93282F30E0F901F2
:101ED000E053F84E8491F901E55DF74ED491F90194
:101EE000E557F74EC491CC23A1F081110E94FC0E5E
:101EF000EC2FF0E0EE0FFF1FEA54F84EA591B491DD
:101F0000EC91ED2381E090E009F480E0DF91CF9146
:101F1000089580E090E0FACF1F93CF93DF93282FAE
:101F200030E0F901E053F84E8491F901E55DF74E98
:101F3000D491F901E557F74EC491CC23A9F0162F9F
:101F400081110E94FC0EEC2FF0E0EE0FFF1FEF5806
:101F5000F74EA591B4918FB7F894EC91111108C088
:101F6000D095DE23DC938FBFDF91CF911F91089531
:101F7000DE2BF8CFCF93DF9390E0FC01E55DF74EC9
:101F800024918557974EFC0184918823C9F090E0F5
:101F9000880F991FFC01E456F84EA591B491FC01FD
:101FA000EF58F74EC591D49161110DC09FB7F894C9
:101FB0008C91209582238C938881282328839FBF2E
:101FC000DF91CF910895623051F49FB7F8943C911E
:101FD000822F809583238C93E8812E2BEFCF8FB7B0
:101FE000F894EC912E2B2C938FBFEACF8F929F9277
:101FF000AF92BF92CF92DF92EF92FF92CF936C019C
:1020000080911B02863069F08F3F09F477C0CF9131
:10201000FF90EF90DF90CF90BF90AF909F908F9008
:102020000895EAE2F8E1C491C7FDF1CF61E086E0EE
:102030000E94BA0FCC2319F0C23009F0C8C1F12CAC
:10204000E12C60E072E18AE790E0A70196010E942E
:10205000296F49015A01BA01A90141505109610989
:1020600071094F3F51056105710509F00CF494C1E8
:1020700060E472E48FE090E0A70196010E94296F6E
:10208000BA01A9014150510961097109C23009F031
:1020900009C182E04F3F51056105710509F00CF45B
:1020A00046C160E970ED83E090E0A70196010E94CF
:1020B000296FBA01A901415051096109710983E0F1
:1020C0004F3F51056105710509F00CF430C168E41A
:1020D00078EE81E090E0A70196010E94296FBA0195
:1020E000A90141505109610971094F3F510561052D
:1020F000710511F00CF02CC184E019C186E08093C9
:102100001B02EAE2F8E1C4918C2FCF3F09F47FCFA4
:10211000C23009F468C060F4CC2379F1C13009F40D
:1021200044C087FD74CF61E086E00E94BA0F84CF7F
:10213000C43009F499C008F478C0C53091F7109202
:10214000200110922101809121018860809321015A
:1021500080912101816080932101E1E9F8E1E4911E
:10216000F0E0EE0FFF1FEF58F74E85919491E1E3F9
:10217000F8E1E491E093CB0A59CF14BC15BC84B5C7
:10218000826084BD85B5816085BDE1E9F8E1E491B7
:10219000F0E0EE0FFF1FEF58F74E85919491E1E3C9
:1021A000F8E1E491E093D20A41CF109280001092BE
:1021B00081008091810088608093810080918100FE
:1021C000816080938100E1E9F8E1E491F0E0EE0FB5
:1021D000FF1FEF58F74E85919491E1E3F8E1E49108
:1021E000E093D10A23CF1092B0001092B1008091F9
:1021F000B00082608093B0008091B10081608093D4
:10220000B100E1E9F8E1E491F0E0EE0FFF1FEF58D3
:10221000F74E859194919093D00A8093CF0AE1E391
:10222000F8E1E491E093CE0A01CF10929000109271
:10223000910080919100886080939100809191003D
:10224000816080939100E1E9F8E1E491F0E0EE0F24
:10225000FF1FEF58F74E85919491E1E3F8E1E49187
:10226000E093CD0AC3E0E2CE1092A0001092A1004C
:102270008091A10088608093A1008091A10081607D
:102280008093A100E1E9F8E1E491F0E0EE0FFF1F97
:10229000EF58F74E85919491E1E3F8E1E491E093F2
:1022A000CC0AC4CE4F3F51056105710509F00CF40D
:1022B0008CC068E478EE81E090E0A70196010E946E
:1022C000296FBA01A9014150510961097109CC2353
:1022D00009F449C14F3F51056105710509F00CF43E
:1022E0000BCF62E17AE780E090E0A70196010E94BF
:1022F000296FBA01A9014150510961097109CC2323
:1023000009F41AC186E04F3F51056105710579F066
:1023100070F0B501A4019AE07595679557954795BA
:102320009A95D1F7415051096109710987E090915F
:10233000B100987F892B8093B100C23009F4E9C0C5
:102340000CF0E0C0CC2379F1C13009F060CE6DC053
:1023500064E274EF80E090E0A70196010E94296F8B
:10236000BA01A901415051096109710985E04F3F46
:10237000510561057105D9F2D0F262E17AE780E09A
:1023800090E0A70196010E94296FBA01A90141506E
:10239000510961097109B6CF81E0C111C8CF95B566
:1023A000987F892B85BD47BD8FEF9FEFDC01809320
:1023B000E70A9093E80AA093E90AB093EA0A8091A9
:1023C0006E00826080936E0022CE82E0E6CFF12C18
:1023D000E12C60E072E18AE790E0A70196010E949B
:1023E000296FBA01A901415051096109710991E0B0
:1023F0004115510581E0680771057CF068E478EECD
:1024000081E090E0A70196010E94296FBA01A9011D
:10241000415051096109710993E0C130D9F48091AB
:102420008100887F892B809381005093890040939D
:1024300088008FEF9FEFDC018093E30A9093E40A1A
:10244000A093E50AB093E60A80916F0082608093C2
:102450006F00DDCDC330D9F480919100887F892B46
:102460008093910050939900409398008FEF9FEFD5
:10247000DC018093DB0A9093DC0AA093DD0AB09321
:10248000DE0A80917100826080937100C0CDC430FB
:10249000D9F48091A100887F892B8093A10050936B
:1024A000A9004093A8008FEF9FEFDC018093D70A2B
:1024B0009093D80AA093D90AB093DA0A8091720057
:1024C000826080937200A3CDC53009F036CF809131
:1024D0002101887F892B809321015093290140930A
:1024E00028018FEF9FEFDC018093D30A9093D40AE9
:1024F000A093D50AB093D60A80917300826080932E
:10250000730085CDC43059F20CF4ACCFC53029F33B
:102510007ECD4093B3008FEF9FEFDC018093DF0A05
:102520009093E00AA093E10AB093E20A80917000D0
:102530008260809370006BCD84E04F3F5105610550
:10254000710509F008F42BCFB501A4018AE0759557
:102550006795579547958A95D1F74150510961097B
:10256000710985E01CCF83E04F3F5105610571057E
:1025700009F00CF414CFB5CE865320917B00982F30
:10258000987F277F922B90937B0087708064809345
:102590007C0080917A00806480937A0080917A0038
:1025A00086FDFCCF809178009091790008953FB727
:1025B000F8948091C0089091C108A091C208B09190
:1025C000C30826B5A89B05C02F3F19F00196A11D91
:1025D000B11D3FBFBA2FA92F982F8827BC01CD016D
:1025E000620F711D811D911D42E0660F771F881FCC
:1025F000991F4A95D1F708958F929F92AF92BF92FB
:10260000CF92DF92EF92FF926B017C010E94D71272
:102610004B015C01C114D104E104F104B9F00E9442
:10262000D712681979098A099B09683E73408105A8
:10263000910580F321E0C21AD108E108F10888EE83
:10264000880E83E0981EA11CB11CE4CFFF90EF9090
:10265000DF90CF90BF90AF909F908F9008952FB74D
:10266000F8946091BC087091BD088091BE0890916B
:10267000BF082FBF08950895089590911B028913F4
:102680000DC0EAE2F8E1E4919FEF90931B02E23083
:10269000E1F038F4EE2381F0E13089F060E00C9451
:1026A0008C0FE43049F110F1E530C1F790917300DF
:1026B0009D7F90937300F2CF10926E00EFCF9091B8
:1026C0006F009D7F90936F00E9CF909170009D7F88
:1026D0009093700091E09093B0009091B100987F3A
:1026E00094609093B1001092B300D8CF9091710094
:1026F0009D7F90937100D2CF909172009D7F9093B7
:102700007200CCCFDC01ED91FC910190F081E02DC5
:102710001994EF92FF920F931F93CF93DF938C0145
:102720007B01D0E0C0E0F701EC0FFD1F6491662350
:1027300061F0D801ED91FC910190F081E02DC8018C
:102740001995892B11F02196EECFCE01DF91CF9113
:102750001F910F91FF90EF900895AF92BF92CF928B
:10276000DF92EF92FF920F931F93CF93DF936C0151
:102770007B018B01040F151FEB015E01AE18BF0832
:10278000C017D10759F06991D601ED91FC910190E4
:10279000F081E02DC6011995892B79F7C501DF91EC
:1027A000CF911F910F91FF90EF90DF90CF90BF904E
:1027B000AF900895FC01538D448D252F30E0842F78
:1027C00090E0821B930B541710F0CF960895019759
:1027D0000895FC01918D828D981761F0A28DAE0F46
:1027E000BF2FB11D5D968C91928D9F5F9F73928FCD
:1027F00090E008958FEF9FEF0895FC01918D828DF9
:10280000981731F0828DE80FF11D858D90E00895C5
:102810008FEF9FEF0895FC01918D228D892F90E01D
:10282000805C9F4F821B91098F739927089584E4E0
:102830009FE00E940B1421E0892B09F420E0822FF5
:102840000895FC01A48DA80FB92FB11DA35ABF4F45
:102850002C91848D90E001968F739927848FA6899F
:10286000B7892C93A089B1898C91837080648C93F3
:10287000938D848D981306C00288F389E02D8081A2
:102880008F7D80830895EF92FF920F931F93CF93D4
:10289000DF93EC0181E0888F9B8D8C8D98131AC09B
:1028A000E889F989808185FF15C09FB7F894EE8982
:1028B000FF896083E889F9898081837080648083DF
:1028C0009FBF81E090E0DF91CF911F910F91FF902A
:1028D000EF900895F62E0B8D10E00F5F1F4F0F73D2
:1028E0001127E02E8C8D8E110CC00FB607FCFACF8D
:1028F000E889F989808185FFF5CFCE010E942114F6
:10290000F1CFEB8DEC0FFD2FF11DE35AFF4FF0825D
:102910009FB7F8940B8FEA89FB8980818062CFCFC3
:10292000CF93DF93EC01888D8823B9F0AA89BB8906
:10293000E889F9898C9185FD03C0808186FD0DC0F1
:102940000FB607FCF7CF8C9185FFF2CF808185FF12
:10295000EDCFCE010E942114E9CFDF91CF910895F0
:1029600080E090E0892B29F00E94171481110E94C9
:10297000000080E090E0892B49F080E090E0892B16
:1029800029F00E94000081110E94000080E090E088
:10299000892B49F080E090E0892B29F00E9400000B
:1029A00081110E94000080E090E0892B49F080E0D6
:1029B00090E0892B29F00E94000081110C94000006
:1029C0000895FC01DB0112968D919C9113979383DE
:1029D000828389EF92E09183808314968C9114977F
:1029E000848315968C911597858316964D915D91EC
:1029F0006D917C91199746835783608771871A96EA
:102A00004D915D916D917C911D97428753876487AD
:102A100075871E964D915D916D917C91519746877A
:102A20005787608B718B52968C915297828B5396FD
:102A30004D915D916D917C915697438B548B658B35
:102A4000768B57964D915D916D917C915A97478BFE
:102A5000508F618F728F5B968D919C91948F838F35
:102A60000895DC015996ED91FC913097B9F0838976
:102A70009489A589B6894285538564857585841BAB
:102A8000950BA60BB70B811520E89207A105B105A0
:102A900038F08FEF9FE7A0E0B0E0089590E080E08D
:102AA0000895DC0159968D919C91009739F0DC01D5
:102AB000ED91FC910480F581E02D199490E080E087
:102AC0000895CF93DF931F92CDB7DEB76983DC0102
:102AD000ED91FC910280F381E02D41E050E0BE01D8
:102AE0006F5F7F4F19950F90DF91CF910895EF920F
:102AF000FF920F931F93CF93DF93EC01EC80FD8047
:102B00006E157F050CF070C057FF04C0240F351FF1
:102B100050E040E08E819F81FA01E20FF31F8E1793
:102B20009F071CF49C01241B350B121613060CF096
:102B30005BC0922F842F8695869586958E9DD001B9
:102B40008F9DB00D11246A0F7B1FAF8DB8A1A60F0A
:102B5000B71F477049F188E0841B482F682F70E049
:102B6000FB01E75CF54FE491281708F063C0621B96
:102B700071092FEF30E002C0359527956A95E2F78D
:102B8000E2230130110539F0B0F10230110561F591
:102B90008C91E82702C08C91E82BEC93941720F1DC
:102BA0002C813D81A20FB31FE92FE41BE83078F0A0
:102BB0000230110521F58E2F9C9190959C932C81CC
:102BC0003D81A20FB31F88508830B0F7E770EE2325
:102BD00059F0F0E0EF5CF54FE49101301105F9F0A8
:102BE00010F10230110519F1DF91CF911F910F9172
:102BF000FF90EF900895E0958C91E823CECF81E08F
:102C00000115110509F480E081959E2F8C932C818C
:102C10003D81A20FB31F98509830C0F7D7CF8C9149
:102C2000E82BEC93E1CFE0958C91E823FACF8C91DF
:102C3000E827F7CF0130110509F4ADCFE0F20230FB
:102C4000110509F4A5CFAE0DBF1DAECF0F931F9395
:102C5000CF93DF9377FF04C0260F371F70E060E04B
:102C6000DC011496CD91DC91FB01E20FF31FCE172E
:102C7000DF071CF49E01261B370B121613064CF5BA
:102C8000FA0157FD3796A3E0F595E795AA95E1F788
:102C9000EC9FD001ED9FB00DFC9FB00D11246A0F89
:102CA0007B1FDC015F96ED91FC91E60FF71F4770EB
:102CB000552781E090E001C0880F4A95EAF7482F38
:102CC0000130110559F0A8F02E0F3F1F02301105F9
:102CD000E1F0DF91CF911F910F9108952E0F3F1FCB
:102CE000E217F307B1F38191DF011197842B8C93E5
:102CF000F7CF80952E0F3F1FE217F30751F3919105
:102D0000DF01119798239C93F7CFE217F30709F39C
:102D10008191DF01119784278C93F7CF0F931F9335
:102D2000FA01DC0156964C9156974230E9F0433057
:102D3000A1F1413061F514964D915C91DA01AE1B21
:102D4000BF0BFD01E21BF30B77FD0BC0DC011696F8
:102D50004D915C916417750724F4AB01BF010E948B
:102D600026161F910F91089514964D915C91DA01EA
:102D7000A61BB70BBD0161507109DC0116964D9180
:102D80005C91DA01AE1BBF0BFD01E21BF30B77FD7B
:102D9000E8CFAF010E947715E4CF16964D915C9174
:102DA000DA01A61BB70BBD0161507109CDCF0F939E
:102DB0001F93FA01DC0156964C9156974230A9F0C8
:102DC000433091F1413019F514964D915C91DA013F
:102DD000AE1BBF0BFD013197F7FD04C0AB01BF0176
:102DE0000E9477151F910F91089514964D915C9153
:102DF000DA01A61BB70BBD01DC0116964D915C9163
:102E0000DA01AE1BBF0BFD013197621B730BF7FD9F
:102E1000E9CFDC0116964D915C91E417F50714F7A4
:102E2000AF010E942616DECF16964D915C91DA0115
:102E3000A61BB70BBD01621B730BCECFFC0177FD48
:102E400064C080859185681779070CF05EC057FDD6
:102E50005CC082859385481759070CF056C0868957
:102E60008230B1F0833029F1813041F48481958141
:102E7000841B950BAB01BC016150710921303105F8
:102E800009F108F443C02230310509F463C0089504
:102E900084819581DC01A61BB70BBD0161507109CE
:102EA00086819781DC01A41BB50BAD01415051090E
:102EB000E5CF86819781861B970BBA01AC01415003
:102EC0005109DCCFCA0157FD0796A3E09595879578
:102ED000AA95E1F7A481B5818A9F90018B9F300D5F
:102EE0009A9F300D1124620F731F078CF0A1E02D03
:102EF000E60FF71F4770552721E030E001C0220F91
:102F00004A95EAF78081822B80830895CA0157FD94
:102F1000079633E0959587953A95E1F7A481B581B9
:102F20008A9F90018B9F300D9A9F300D1124620F64
:102F3000731F078CF0A1E02DE60FF71F4770552790
:102F400081E090E001C0880F4A95EAF78095908172
:102F50008923DACFCA0157FD079623E09595879517
:102F60002A95E1F7A481B5818A9F90018B9F300D4E
:102F70009A9F300D1124620F731F078CF0A1E02D72
:102F8000E60FF71F4770552721E030E001C0220F00
:102F90004A95EAF780818227B7CFCF93CFB7F894CD
:102FA00080917207811127C0E0ECF8E18491E0E69E
:102FB000F8E19491E82FF0E0EE0FFF1FE456F84E91
:102FC000A591B491EC91E92321F461E085E30E949D
:102FD0008C0F61E085E30E94BA0F8CB580618CBDD7
:102FE0008CB580648CBD61E084E30E94BA0F61E01F
:102FF00083E30E94BA0F809172078F5F80937207FC
:10300000CFBFCF910895089561E0FC0184810E94B3
:103010008C0F8091730781111092730708958EBDF4
:1030200000000DB407FEFDCF8EB508958FEF0C9410
:103030000F180F931F93CF93DF93EC010E942F1370
:103040008B010E9416188F3F69F00E942F13601B9E
:10305000710B6C177D07A8F380E0DF91CF911F9172
:103060000F91089581E0F9CF8CBD9DBD0895CF9358
:10307000DF93EC0180917307811109C081E0809397
:1030800073078091E10F9091E20F0E94341860E085
:103090008C81DF91CF910C948C0F8F929F92AF9285
:1030A000BF92FF920F931F93CF93DF93EC01F62E05
:1030B00049015A018E81882389F08F8198859C016E
:1030C0002F5F3F4F38872F838230924018F40E9441
:1030D0001618F3CFCE010E9404181E82CE010E9462
:1030E00037188CE291E00E9419188F2D80640E949D
:1030F0000F1808E110E0D501C401002E04C0B695F8
:10310000A795979587950A94D2F70E940F180850B3
:103110001109083F8FEF180771F785E9FF2021F0AB
:1031200028E087E8F2128FEF0E940F1810E00E944B
:1031300016188A8787FF04C01F3F11F01F5FF7CF63
:10314000DF91CF911F910F91FF90BF90AF909F9013
:103150008F900895AF92BF92CF92DF92EF92FF923D
:103160000F931F93CF93DF93EC016901C801820F86
:10317000931F8130924050F58E81882379F08881A9
:103180009981AA81BB8184179507A607B70731F4F7
:103190008F819885C816D90608F042C048835983A4
:1031A0006A837B838B85833039F089E0440F551F18
:1031B000661F771F8A95D1F79A01AB0161E1CE01B5
:1031C0000E944D18882389F083E08D83CE010E94F0
:1031D000041880E0DF91CF911F910F91FF90EF9045
:1031E000DF90CF90BF90AF9008950E942F135B01A6
:1031F0000E9416188A878F3F69F40E942F136A195C
:103200007B096D327140A0F38FE08D83CE010E9467
:103210000418DCCF8E3F89F418861F8281E08E83EC
:103220008F8198858C159D0550F40E9416188F810A
:103230009885019698878F83F3CF8DE0E6CF67015D
:10324000E00EF11E0E941618F60181936F01EE1533
:10325000FF05C1F78F819885080F191F18870F8305
:103260008985882319F001151240A0F08E818823EA
:1032700089F08F8198859C012F5F3F4F38872F837E
:103280008230924018F40E941618F3CFCE010E94AB
:1032900004181E8281E09ECFCF92DF92EF92FF92C0
:1032A0000F93CF93DF93EC01690182E14115510542
:1032B0006105710599F08B85833039F089E0440F01
:1032C000551F661F771F8A95D1F79A01AB0168E1F8
:1032D000CE010E944D18882319F084E08D832DC003
:1032E0008EEF0E940F1876018EEFD81AF7018191A8
:1032F0007F010E940F18EC14FD04C1F78FEF0E94AC
:103300000F188FEF0E940F180E9416188A878F716E
:10331000853071F4011116C0CE010E94041881E0BD
:10332000DF91CF910F91FF90EF90DF90CF900895B4
:1033300081E18D83CE010E940418CE010E94041801
:1033400080E0EECF88E592E00E941918811102C05A
:1033500085E1C4CF20E030E0A9016DE0CE010E94FC
:103360004D18882311F084E1B9CF0E9416188111FD
:10337000FACFD2CF0F9340917407509175076091A7
:10338000760770917707411551056105710599F030
:10339000082F27EC38E08091C4089091C5080E945E
:1033A0004C19882349F010927407109275071092F7
:1033B00076071092770781E00F9108950F93CF93CE
:1033C000C82F8091C608811105C0C1E08C2FCF9114
:1033D0000F910895409117025091180260911902BF
:1033E00070911A020C2F27EC38E08091C40890915C
:1033F000C5080E944C19811102C0C0E0E7CFCC2360
:1034000021F381E00E94BA198823B9F31092C6080B
:10341000DDCF8F929F92AF92BF92EF92FF920F9368
:103420001F93CF934B015C01C42F809117029091A1
:103430001802A0911902B0911A0288159905AA05DF
:10344000BB0551F181E00E94DE1981110BC080E0C3
:10345000CF911F910F91FF90EF90BF90AF909F90F1
:103460008F90089587ECE82E88E0F82E00E012E0B7
:1034700030E020E0B501A4018091C4089091C50816
:103480000E94AA18882319F38092170290921802BA
:10349000A0921902B0921A024091C6084C2B409398
:1034A000C60881E0D5CF8F929F92AF92BF92CF9204
:1034B000DF92EF92FF92CF9323EE3FE03093C50867
:1034C0002093C408882309F46DC040E060E070E0F8
:1034D000CB010E94091A81110BC080E0CF91FF90AF
:1034E000EF90DF90CF90BF90AF909F908F90089516
:1034F0008091850A8F7789F78091910A9091920A3D
:10350000A091930AB091940A84369105A105B10562
:1035100020F3C0908D0AD0908E0AE0908F0AF09030
:10352000900AC114D104E104F104B9F240E0C701EA
:10353000B6010E94091A882381F28091D2089091E5
:10354000D3088115924049F6A091D708AA2329F201
:103550006091D5087091D6086115710509F4BDCF49
:103560002091D408222309F4B8CFA093011020930E
:10357000F30F90E080E030E0E1E0F0E0C82FAF0131
:10358000082E02C0440F551F0A94E2F7241735078E
:1035900069F041E0480F01968930910579F7409331
:1035A000FC0F9BCFC12CD12C7601C0CF8093FC0F98
:1035B0002091DD083091DE0850E040E02115310512
:1035C00041F42091EB083091EC084091ED085091C6
:1035D000EE082093F40F3093F50F4093F60F5093BD
:1035E000F70F46015701860E971EA11CB11C809251
:1035F000021090920310A0920410B0920510E09176
:10360000D808F091D908F0930810E0930710B0E0C3
:103610000E94486FDC01CB01880D991DAA1DBB1DBE
:103620008093091090930A10A0930B10B0930C1084
:1036300025E0EE0FFF1F2A95E1F7E150FE4FEF2F37
:10364000FF27E6958E0F9F1FA11DB11D8093FD0FD3
:103650009093FE0FA093FF0FB09300108090DA08B4
:103660009090DB08B12CA12C8114910441F480903E
:10367000E7089090E808A090E908B090EA08C81A16
:10368000D90AEA0AFB0AC80CD91CEA1CFB1C04C0B4
:10369000F694E794D794C794CA95D2F7C092F80FDE
:1036A000D092F90FE092FA0FF092FB0F85EFC81657
:1036B0008FE0D806E104F10428F48CE08093061032
:1036C00081E00CCF80E125EFC2162FEFD206E10496
:1036D000F104A0F38091F3089091F408A091F5080B
:1036E000B091F6088093091090930A10A0930B10E4
:1036F000B0930C1080E2E2CF4F925F926F927F9274
:103700008F929F92AF92BF92CF92DF92EF92FF92F1
:103710000F931F93CF93DF93EC0142305105610566
:10372000710590F480E0DF91CF911F910F91FF9090
:10373000EF90DF90CF90BF90AF909F908F907F9051
:103740006F905F904F90089589859A85AB85BC8571
:103750000196A11DB11D84179507A607B70710F3A1
:10376000CB88DC88ED88FE888F89803109F042C0E3
:10377000BB27A72F962F852F480159012A013B010E
:10378000C80ED91EEA1EFB1E8091170290911802E6
:10379000A0911902B0911A02C816D906EA06FB06D2
:1037A00099F58F898031C1F5B301A20155276627AC
:1037B0007727440F551F4953574FFA019182808252
:1037C0008091C60881608093C6088A89823080F023
:1037D0008D819E81AF81B8858C0D9D1DAE1DBF1D55
:1037E0008093740790937507A0937607B09377073B
:1037F00081E099CFDB01CA01E7E0B695A7959795DF
:103800008795EA95D1F7B8CF40E0C701B6010E948D
:10381000091A8111C6CF86CFB301A2014F77552770
:1038200066277727440F551F440F551F4953574F9D
:10383000FA0180829182A282B382C2CF8F929F923C
:10384000AF92BF92CF92DF92EF92FF920F931F93AE
:10385000CF93DF93FC0181859285A385B485019682
:10386000A11DB11D84179507A607B70770F480E066
:10387000DF91CF911F910F91FF90EF90DF90CF904C
:10388000BF90AF909F908F90089583889488A5886B
:10389000B6888789803189F5BB27A72F962F852F7A
:1038A000E9016A017B018F01BC01CD01680D791D21
:1038B0008A1D9B1D8090170290901802A0901902FB
:1038C000B0901A0286169706A806B90601F5F80107
:1038D0008789803111F5DD24EE24FF24F601EE0FF7
:1038E000FF1FE953F74F80819181B0E0A0E088830A
:1038F0009983AA83BB8381E0BBCFDB01CA01C7E008
:10390000B695A79597958795CA95D1F7C9CF40E009
:103910000E94091A8111DBCFAACFE894C7F8DD24F1
:10392000EE24FF24F601EE0FFF1FEE0FFF1FE953F9
:10393000F74F80819181A281B381BF70D8CF4F9220
:103940005F926F927F92AF92BF92CF92DF92EF928F
:10395000FF920F931F93CF93DF9300D01F92CDB7A9
:10396000DEB78C0149835A836B837C835901C12C58
:10397000D12C7601412C82E0582E612C712C49818A
:103980005A816B817C819E012F5F3F4FC8010E944D
:103990001E1C882339F1F8018585A301920104C01A
:1039A000220F331F441F551F8A95D2F7DA01C90130
:1039B000C80ED91EEA1EFB1E49815A816B817C818B
:1039C0008789803111F188EF9FEFAFEFBFE0481793
:1039D00059076A077B0798F2F501C082D182E2821B
:1039E000F38281E00F900F900F900F90DF91CF91B5
:1039F0001F910F91FF90EF90DF90CF90BF90AF900D
:103A00007F906F905F904F90089588EF9FEFA0E0B8
:103A1000B0E0DDCFCF93DF93FC012581222321F09D
:103A200080E0DF91CF910895EC0180910610803104
:103A300059F582E08583178A108E118E128E80913F
:103A4000071090910810B0E0A0E025E0880F991FC2
:103A5000AA1FBB1F2A95D1F7838B948BA58BB68B9E
:103A60008FEE9FE09C8F8B8F81E08C831E821F8264
:103A7000188619861A861B861C861D861E861F863A
:103A8000188A198A1A8ACDCF803251F683E085834D
:103A90004091091050910A1060910B1070910C1018
:103AA000478B508F618F728F9F012D5E3F4F8FEE3E
:103AB0009FE00E949F1C8111D3CFB2CF8F929F9223
:103AC000AF92BF92CF92DF92EF92FF920F931F932C
:103AD000CF93DF93EC018D8181110EC080E0DF91E7
:103AE000CF911F910F91FF90EF90DF90CF90BF90FB
:103AF000AF909F908F9008950B891C892D893E89E6
:103B0000041715072607370748F34A015B0182307F
:103B100031F48A869B86AC86BD8681E0E0CF811435
:103B20009104A104B10449F41E821F8218861986EB
:103B30001A861B861C861D86F0CF0A851B852C8560
:103B40003D85EB8DFC8D858590E00996B901A80136
:103B50004150510961097109082E04C07695679595
:103B6000579547950A94D2F775016401E1E0CE1AA2
:103B7000D108E108F10804C0F694E794D794C794FB
:103B80008A95D2F7C416D506E606F70620F0012B73
:103B9000022B032B11F58F89988DA98DBA8D8E83F9
:103BA0009F83A887B9878E010A5F1F4FC114D10474
:103BB000E104F10409F4ADCF4E815F816885798518
:103BC00098018B8D9C8D0E941E1C91E0C91AD10812
:103BD000E108F1088111EACF81CFC41AD50AE60ABB
:103BE000F70AE1CF3F924F925F926F927F928F924E
:103BF0009F92AF92BF92CF92DF92EF92FF920F937C
:103C00001F93CF93DF93CDB7DEB72C970FB6F89401
:103C1000DEBF0FBECDBF5C01DC015B968D909C903A
:103C20005C9716964D905D906D907C90199741141D
:103C300051046104710409F468C0BFEF4B1A5B0AB8
:103C40006B0A7B0A312CF40181859285A385B485AA
:103C50009C01AD012F5F3F4F4F4F5F4F29873A8740
:103C60004B875C87730162011D821E821F8218864A
:103C7000F40181859285A385B4852D813E814F8194
:103C80005885281739074A075B0708F056C0898509
:103C90009A85AB85BC858C159D05AE05BF0550F496
:103CA00082E0C82ED12CE12CF12C92E0492E512C2F
:103CB000612C712C9E012F5F3F4FB701A601C401FB
:103CC0000E941E1C8823C9F189819A81AB81BC8125
:103CD000892B8A2B8B2B09F1260137019FEF491A7B
:103CE000590A690A790A2D813E814F8158852F5FD3
:103CF0003F4F4F4F5F4F2D833E834F8358873FEF9A
:103D0000C31AD30AE30AF30AB3CFF4014080518007
:103D1000628073803324339496CFC414D504E604B0
:103D2000F70409F70FEF1FEF2FEF3FE0B701A601F0
:103D3000C4010E947C1B811119C080E02C960FB633
:103D4000F894DEBF0FBECDBFDF91CF911F910F91D1
:103D5000FF90EF90DF90CF90BF90AF909F908F90AB
:103D60007F906F905F904F903F900895D501169689
:103D70004D915D916D917C911997411551056105AA
:103D8000710539F097018601C4010E947C1B8823CC
:103D9000A1F2D5011696CD92DD92ED92FC92199783
:103DA000332051F0D701C6010196A11DB11DF401C8
:103DB00080839183A283B383F5018789908DA18D40
:103DC000B28D892B8A2B8B2B39F48481C78AD08EB4
:103DD000E18EF28E80688483F50184818062848321
:103DE00081E0ACCF2F923F924F925F926F927F9281
:103DF0008F929F92AF92BF92CF92DF92EF92FF92FB
:103E00000F931F93CF93DF9300D0CDB7DEB7FC01A4
:103E10008581811118C08FEF9FEF0F900F900F9049
:103E2000DF91CF911F910F91FF90EF90DF90CF9096
:103E3000BF90AF909F908F907F906F905F904F90CA
:103E40003F902F900895848180FFE5CF4389548966
:103E50006589768982859385A485B585312C212C49
:103E6000481759076A077B0719F022242394312C3D
:103E70006F012101CE0101963C01DF011696BB8343
:103E8000AA834114510409F4C5C0F6014285538543
:103E9000648575854A01F1E09F22D6015B968D917C
:103EA0009C915C978A019B01E9E0369527951795CF
:103EB0000795EA95D1F71596EC91E230E9F5FC010A
:103EC000628D738D848D958D600F711F821F931F7E
:103ED000A12C22E0B22EA818B9084A145B0408F4F9
:103EE0005201F601248126FD04C0A114F2E0BF06B0
:103EF00071F400911702109118022091190230916B
:103F00001A02061717072807390709F05EC040E0B4
:103F10000E94091A882309F47ECFC4018953974F60
:103F2000D3019C012A0D3B1DFC012E173F0709F40C
:103F30006CC041914D93F9CFDC011496BC90BA94BA
:103F4000B0228114910479F4B1100DC0452B462B99
:103F5000472B69F5F6018789908DA18DB28D8683F7
:103F60009783A087B187D6015B96ED91FC915C9712
:103F700016966D917D918D919C9119976250710962
:103F800081099109258504C0660F771F881F991F35
:103F90002A95D2F70685178520893189600F711F10
:103FA000821F931F6B0D711D811D911D91CFD60135
:103FB00016964D915D916D917C9119972A813B8167
:103FC0000E941E1C8111CFCF26CF73018501940161
:103FD000AB01BC018091C4089091C5080E94AA1849
:103FE000882309F418CF6A0C7B1CF601828593851F
:103FF000A485B5858A0D9B1DA11DB11D8287938760
:10400000A487B5874A185B083CCF281B390B620E82
:10401000731EEBCF2A94232809F0FDCE898190E00E
:10402000FCCEFC01818D928D009711F00C94F21E54
:104030008FEF9FEF08950F931F93CF93DF93EC01C2
:10404000898D9A8D10E000E0009799F00E94F21E91
:104050008C010F3F100769F0898D9A8DFC01428514
:1040600053856485758541505109610971090E9424
:104070005E1DC801DF91CF911F910F9108951F938D
:10408000CF93DF93FC0125812223D1F1162FEC0180
:10409000848187FF2AC0668577858089918941E080
:1040A0000E94091A882361F1EA8980E2E89FF00101
:1040B0001124E953F74F309719F18D81823040F484
:1040C0008B899C89AD89BE89848F958FA68FB78F88
:1040D0008F89988D938F828F8F89988DA98DBA8DB6
:1040E000B58BA48B8C818F778C83111103C08C814D
:1040F0008F7E8C83812FDF91CF911F910C94DE19DD
:1041000080E0DF91CF911F910895FF920F931F934D
:10411000CF93DF93EC018D81813041F090E080E01E
:10412000DF91CF911F910F91FF9008958C8181FFB6
:10413000F5CF82FD1BC00091C4081091C508C801CD
:104140000E9437180E941618F82EC8010E94041801
:104150008FEFF812E3CF8C8185FF1BC060E0CE01AA
:104160000E943F208C818F7D8C83D8CF4B895C89C6
:104170006D897E898A859B85AC85BD858417950769
:10418000A607B707C1F2CE010E945E1D8111D3CFF1
:10419000C5CF409174075091750760917607709173
:1041A0007707452B462B472B21F080E00E94BA1958
:1041B000B5CF80618C832A853B85317080E092E0A9
:1041C000821B930BADCFCF93DF93EC0161E00E9494
:1041D0003F20882311F01D8281E0DF91CF91089567
:1041E000FC01818D928D009719F061E00C943F20C5
:1041F00008952F923F924F925F926F927F928F928B
:104200009F92AF92BF92CF92DF92EF92FF920F9365
:104210001F93CF93DF9300D01F921F92CDB7DEB7CD
:104220007C015B01342E5D83DC0115968C91159722
:10423000813009F0CEC014962C9021FECAC022FC19
:10424000B4C0C32CDD8022947FE027222094B22DBD
:10425000B1702B2ED7011A964D915D916D917C9185
:104260001D97C114D10409F428C15B968D919C91CE
:104270005C97FC0174807A948A019B0169E0369511
:104280002795179507956A95D1F770228A011170C5
:10429000711020C001151105E9F416964D915D913C
:1042A0006D917C911997411551056105710509F0D2
:1042B00099C057968D919D910D90BC91A02D00971E
:1042C000A105B10509F0B0C0C7010E94F21D882305
:1042D00009F47FC080E092E0801B910B46018C15B1
:1042E0009D0508F44C01D7015B964D915C915C975C
:1042F00016968D919D910D90BC91A02D0297A109CC
:10430000B109FA01258504C0880F991FAA1FBB1F98
:104310002A95D2F74685578560897189840F951F44
:10432000A61FB71F9C01AD01270D311D411D511D59
:1043300029013A01811432E0930609F07BC0809193
:10434000170290911802A0911902B0911A028415D7
:104350009505A605B70559F48FEF9FEFDC01809313
:10436000170290931802A0931902B0931A02022D1B
:104370009501B301A2018091C4089091C5080E94E3
:104380004C19882331F19EEFB91AC818D908F701E2
:1043900082859385A485B585880D991DA11DB11DC4
:1043A00082879387A487B58755CFF70143895489BE
:1043B0006589768982859385A485B58548175907CF
:1043C0006A077B0709F43DCFC7010E945E1D81117A
:1043D00038CF81E090E0D70113969C938E9312978B
:1043E00080E007C09E012F5F3F4F0E941E1C81117D
:1043F00002C090E079C089819A81AB81BC81F701CC
:10440000238D348DF901278948EF5FEF60E070E07C
:10441000203121F048EF5FEF6FEF7FE084179507C1
:10442000A607B70708F050CFF70186839783A087C8
:10443000B18750CF0115110599F5D7011A964D9105
:104440005D916D917C911D9753968D919D910D90ED
:10445000BC91A02D481759076A077B0708F181E036
:104460000E94DE19882309F4B4CF409217025092BB
:1044700018026092190270921A028091C608816037
:104480008093C608C8018953974FD5019C01280D18
:10449000391DFC012E173F0759F04D914193FACF7A
:1044A00041E0C301B2010E94091A8111EBCF91CF03
:1044B000281B390BA20EB31E68CFF701838994899C
:1044C000A589B68984179507A607B70738F48481AC
:1044D000438B548B658B768B80688483F701848152
:1044E00083FD1AC0832D9D810F900F900F900F9028
:1044F0000F90DF91CF911F910F91FF90EF90DF9080
:10450000CF90BF90AF909F908F907F906F905F9073
:104510004F903F902F90089561E0C7010E943F2087
:10452000882309F456CFDECFCF93DF931F92CDB708
:10453000DEB7698341E050E0BE016F5F7F4F0E94AC
:10454000F9200F90DF91CF910895CF93DF93EC0185
:10455000E98DFA8D309749F481E090E09B838A835E
:1045600090E080E0DF91CF91089513821282898DCF
:104570009A8D0E94F920E98DFA8D22813381232BB7
:1045800059F7F0CF0895FC016370668B84819581A3
:1045900026813781613039F0633029F09187808737
:1045A00033872287089531872087938782870895EC
:1045B0002F923F924F925F926F927F928F929F9233
:1045C000AF92BF92CF92DF92EF92FF920F931F9321
:1045D000CF93DF93CDB7DEB76A970FB6F894DEBFFF
:1045E0000FBECDBF9A8F898F7A8369834A01D22EFD
:1045F00018870F833701BC2CDC0159962D913C9113
:104600005A972115310509F015C118968D919C9185
:104610001997681779070CF0D7C11A968D919C915C
:10462000481759070CF0D0C14C2C512CB6E0CB9E4A
:10463000600D711D11247C876B87161617060CF010
:10464000C3C1EA2DF0E0FA87E98793E0EE0FFF1F80
:104650009A95E1F7F88BEF87CF01840F951F181615
:1046600019060CF0B1C1A98DBA8D58968C918111A3
:1046700004C0BFEABD1508F4D394A98DBA8DED919D
:10468000FC9111970284F385E02DCD011995B5E0D9
:10469000DB9EC0011124E981FA81FC83EB83312C7C
:1046A000212C9C012F5C3A4F388F2F8B4A2D50E0E4
:1046B0005E8B4D8BEF89F88DE20DF31D44919E8248
:1046C0008D82D12CC12C69817A81620D731D7A8B08
:1046D000698B842F90E09C8B8B8BE98DFA8DA08168
:1046E000B18140FF82C0F1E0BF126FC0AF126DC058
:1046F0001C96ED91FC912F813885A4014C0D5D1D18
:1047000069897A89898D9A8D1995EB89FC89F59546
:10471000E7954E2F5FEFC51AD50A6D817E818D8991
:104720009E89680F791F7E836D8398E0C916D10436
:1047300081F6AFEF2A1A3A0AEB81FC81E40DF51DF0
:10474000FC83EB83F5E02F16310409F0B3CF2F8102
:10475000388526153705B9F0A98DBA8DED91FC91F4
:10476000B1E0BB1257C0AB1255C069817A816B5F53
:104770007F4F0088F189E02D830128E030E0A4011B
:10478000898D9A8D1995A98DBA8DED91FC9111970E
:104790000688F789E02DCD016A960FB6F894DEBF42
:1047A0000FBECDBFDF91CF911F910F91FF90EF9082
:1047B000DF90CF90BF90AF909F908F907F906F9041
:1047C0005F904F903F902F9019941E96ED91FC9121
:1047D000EF80F88409851A8592014D815E816B8195
:1047E0007C81898D9A8D199590CF2F8138852615DA
:1047F000370509F48ACF31E0B31207C0A31205C010
:104800001C96ED91FC91930178CF1E96ED91FC9151
:104810007301E0CF6B857C85641975090684F78583
:10482000E02D73010F8518899201A401898D9A8D5D
:104830001995A9CFF90134969491329745915491E5
:10484000D91AB7E0DB9E400D511D1124F9012591C5
:1048500034913C8B2B8BFA0125903490FA013296DF
:10486000749031963491398B32966490319644909D
:1048700041E04C1518F04A1508F07FC0662D062C53
:10488000000C770B7C836B83842D042C000C990B1C
:104890009E838D83A98DBA8DED91FC911197028431
:1048A000F385E02DCD011995512CD12CC12CEA2D89
:1048B000F0E0FA87E9872B2D30E03C872B87A401B5
:1048C000440D511D47FC5A95588F4F8B69817A8151
:1048D000660D711D67FC7A957E876D877989C7168D
:1048E00008F051CF2C2D30E04D815E81420F531FD7
:1048F000A985BA854A9FC0014B9F900D5A9F900D84
:104900001124FC01E80DF91DF88BEF87852D612C32
:104910004F89588D420F531F5E8B4D8B671408F0E3
:1049200050C044244394480E877041F4C10101965D
:10493000EB89FC89E20DF31DD4901C01D7FE19C050
:10494000A98DBA8DED91FC91662D70E0B1E0BB129E
:1049500019C0AB1217C02D853E85620F731F0484EA
:10496000F585E02D2F8138854D895E89898D9A8D59
:104970001995DD0C6394842DD1CF1E821D821C827B
:104980001B8288CF4B815C81640F751FAB85BC8512
:104990006A9FC0016B9F900D7A9F900D11246981D1
:1049A0007A81680F791F0684F785E02DEF80F884FF
:1049B00009851A859D014F855889898D9A8D19958C
:1049C000D8CF570CC3948ACF6A960FB6F894DEBF3F
:1049D0000FBECDBFDF91CF911F910F91FF90EF9050
:1049E000DF90CF90BF90AF909F908F907F906F900F
:1049F0005F904F903F902F9008958F929F92AF922B
:104A0000CF92EF92FF920F931F93CF93DF93EC011E
:104A1000262F898D9A8D009709F051C06A30D1F404
:104A20001D861C868D8948E0849F900111248E8507
:104A30009F85820F931F9F878E8781E090E0DF9193
:104A4000CF911F910F91FF90EF90CF90AF909F90DB
:104A50008F9008956D3089F3CC88AD888F89882335
:104A6000C1F08C859D8536E0C39E800D911D11247B
:104A7000488559854817590764F44E855F851D861A
:104A80001C8638E0A39EC0011124840F951F9F87C8
:104A90008E87EA88FB88088919894E855F856C8531
:104AA0007D85CE010E94D8222C898C859D8546E08B
:104AB000249F800D911D11249D878C87BECF6A3065
:104AC00069F41D861C86FC013896E4912D898E853B
:104AD0009F85E29F800D911D1124ADCF6D3009F4AB
:104AE000ACCFFC0134963491631708F4A6CF32960C
:104AF000E491E61708F4A1CFFC01329685909490DA
:104B0000462F431B342F47E0349F800C911C112407
:104B1000F401329634913196E4913323A9F1EE23D6
:104B200099F1CC88F4013596E491AD884F894423FE
:104B300001F10E2E000CFF0BE30FF11DCE9EA00124
:104B4000CF9E500D11246C857D85460F571F6885BB
:104B50007985641775076CF44E855F851D861C8604
:104B6000FC013896E491AE9E400D511D11245F87E3
:104B70004E87EA88FB88088919894E855F856C8590
:104B80007D85CE010E94D822F4013496E4912C89CF
:104B90008C859D85E29F800D911D11248DCF6F9294
:104BA0007F928F929F92AF92BF92CF92DF92EF92BD
:104BB000FF920F931F93CF93DF93EC016B015A0188
:104BC00039014801E881F9810284F385E02D1995C6
:104BD000E881F9810288F389E02D87019301A5011D
:104BE000B601CE011995A501480D591D4150510935
:104BF000E881F9810288F389E02D9301B601CE01A5
:104C00001995E881F9810088F189E02D9401A501C9
:104C1000B601CE011995C60CD71CB60161507109B9
:104C2000E881F9810088F189E02D9401A501CE0188
:104C30001995E881F9810688F789E02DCE01DF9189
:104C4000CF911F910F91FF90EF90DF90CF90BF9089
:104C5000AF909F908F907F906F9019946F927F92FA
:104C60008F929F92AF92BF92CF92DF92EF92FF927C
:104C70000F931F93CF93DF935C01EB016A0149010E
:104C800038018701DC01ED91FC916217730719F57A
:104C9000641675062CF0962D872D3A01C92ED82E54
:104CA0009601261937092F5F3F4F048CF58DE02DB3
:104CB000A301BE01C5011995DF91CF911F910F91FD
:104CC000FF90EF90DF90CF90BF90AF909F908F902C
:104CD0007F906F9008954615570591F42617370772
:104CE00024F0892D4B01C22FD82F9E012819390994
:104CF0002F5F3F4F068CF78DE02DA601B401DACF70
:104D00000284F385E02D1995D501ED91FC9104887D
:104D1000F589E02D83019401A601BE01C501199515
:104D2000D501ED91FC910688F789E02DC501DF9151
:104D3000CF911F910F91FF90EF90DF90CF90BF9098
:104D4000AF909F908F907F906F901994EF92FF9209
:104D50000F931F93DC011A960D911C911B971896C7
:104D60002D913C911997ED91FC9100A0F1A1E02DBE
:104D70007B0150E040E070E060E019951F910F91D9
:104D8000FF90EF9008954F925F926F927F928F9273
:104D90009F92AF92BF92CF92DF92EF92FF920F93CA
:104DA0001F93CF93DF936C012B015A013901480106
:104DB000DC01ED91FC910284F385E02D1995E2016F
:104DC000640C751CD601ED91FC91C615D7055CF4F9
:104DD0000088F189E02D87019401A501BE01C6017B
:104DE00019952196EFCF0688F789E02DC601DF914E
:104DF000CF911F910F91FF90EF90DF90CF90BF90D8
:104E0000AF909F908F907F906F905F904F9019948C
:104E10008F929F92AF92BF92CF92DF92EF92FF92CA
:104E20000F931F93CF93DF93EC015B014A0169015C
:104E3000E881F9810284F385E02D199595012C0D07
:104E40003D1D21503109E881F9810488F589E02D63
:104E500078018401A401B501CE011995E881F98199
:104E60000688F789E02DCE01DF91CF911F910F9138
:104E7000FF90EF90DF90CF90BF90AF909F908F907A
:104E800019948F929F92AF92BF92CF92DF92EF923E
:104E9000FF920F931F93CF93DF93EC015B014A01C5
:104EA00069017801E881F9810284F385E02D199583
:104EB000C80CD91C860101501109E881F9810488C8
:104EC000F589E02D9501A401B501CE011995E88180
:104ED000F9810688F789E02DCE01DF91CF911F91EE
:104EE0000F91FF90EF90DF90CF90BF90AF909F9089
:104EF0008F901994EF92FF920F931F93DC01ED9125
:104F0000FC9100A0F1A1E02D19951F910F91FF9048
:104F1000EF9008950F931F93DC01ED91FC91068CA7
:104F2000F78DE02D19951F910F9108950F931F9301
:104F3000DC01ED91FC91048CF58DE02D19951F910C
:104F40000F910895DC01ED91FC910084F185E02D35
:104F500019943F924F925F926F927F928F929F929D
:104F6000AF92BF92CF92DF92EF92FF920F931F9377
:104F7000CF93DF935C017B014A016901390187E02E
:104F8000680E711C93E0759467949A95E1F72B0174
:104F9000400E511E10E000E0312CD0E0C0E0CE0108
:104FA00087709927330C892B59F4FE0183E0F5951E
:104FB000E7958A95E1F7E00FF11FE80DF91D3490B0
:104FC00037FE0AC021E030E0A701B5016C0F7D1F5C
:104FD00088E390E10E94A2272196CC16DD06F9F61F
:104FE0008FEFE81AF80A060D171DE414F504A9F668
:104FF000DF91CF911F910F91FF90EF90DF90CF90B5
:10500000BF90AF909F908F907F906F905F904F90E8
:105010003F9008952F923F924F925F926F927F92AE
:105020008F929F92AF92BF92CF92DF92EF92FF92B8
:105030000F931F93CF93DF9300D000D0CDB7DEB78F
:105040003C016A013E832D83FC82EB825801A41A45
:10505000B50AB7FE03C0B194A194B1088D809E80BB
:10506000861A970A97FE03C09194819491088A1436
:105070009B045CF0902F812F0D811E819D838E8378
:105080009C2D8D2D6B01692F782F0C151D055CF063
:105090009D818E817E836D83692F782F902F812F44
:1050A0008601C92ED82E1601201A310A2B012D8116
:1050B0003E81421A530A57FE03C05194419451084D
:1050C000710137FE03C03FEFE31AF30AF594E7944A
:1050D0008D819E81861797075CF5A1E0B0E0BA83C9
:1050E000A983C016D1064CF1D301ED91FC91048443
:1050F000F585E02D2B813C81A8016D817E818A148C
:105100009B041CF04D815E81B801C3011995E41820
:10511000F508F7FE0AC02D813E8189819A81280F0A
:10512000391F3E832D83E20CF31C0F5F1F4FD9CF35
:105130002FEF3FEF3A832983D4CF26960FB6F8940A
:10514000DEBF0FBECDBFDF91CF911F910F91FF90BA
:10515000EF90DF90CF90BF90AF909F908F907F9017
:105160006F905F904F903F902F90089508952091F9
:105170002807260F3327331F21323105ECF4209105
:105180004C07FC0190E080E0243069F082E0089553
:10519000A09128072191AC01485F584FA40FB52F6B
:1051A000B11D2C930196861798F380912807680FFC
:1051B0006093280780E0089581E0089510924C07DD
:1051C00081E080934E0710924D0761E084E10E94D8
:1051D0008C0F61E085E10E948C0FE9EBF0E08081AB
:1051E0008E7F808380818D7F808388E48093B80068
:1051F00085E48093BC000895CF93DF9391E0909372
:1052000007078823B9F0C091B800D091BA00809107
:10521000BC008A7B8093BC0060E084E10E948C0F1C
:1052200060E085E10E948C0F0E94DE28D093BA00D6
:10523000C093B800DF91CF910895E0917D078091F0
:105240007C07E81730F4F0E0EE51F94F808190E0F0
:1052500008958FEF9FEF089590917D0780917C07CF
:105260002FEF3FEF981748F4E92FF0E0EE51F94F98
:10527000208130E09F5F90937D07C9010895809160
:105280007C0790917D07891B990B0895CF92DF923F
:10529000EF92FF920F931F93CF93DF937C01CB018B
:1052A0008A012091CA0A222389F0EB016B01C40E06
:1052B000D51ECC15DD0569F06991D701ED91FC9102
:1052C0000190F081E02DC7011995F3CF642F0E9462
:1052D000B728C801DF91CF911F910F91FF90EF90F8
:1052E000DF90CF900895CF93DF931F92CDB7DEB7B5
:1052F00069832091CA0A2223F9F02091C70A20323B
:1053000058F021E030E0FC013383228390E080E01C
:105310000F90DF91CF9108958091C80AE82FF0E0B7
:10532000EE53F94F998190838F5F8093C80A8093E1
:10533000C70A81E090E0ECCF61E0CE0101960E94C7
:10534000B728F7CFCF92DF92EF92FF920F931F9380
:10535000CF93DF93D091C70A81E0D13208F09CC08F
:10536000C091C90A0E94D7126B017C0180914C0741
:1053700081116CC082E080934C0781E080934E07DE
:105380008FEF80934B0710927007D0936F07A2ECBA
:10539000B6E0EFE4F7E080E0D8138DC0109271071B
:1053A00080917107CC0FC82BC093710780914D0776
:1053B000813009F084C010924D070E94D7126B0112
:1053C0007C01809171078093BB00809103079091CD
:1053D0000407A0910507B0910607892B8A2B8B2B18
:1053E000A1F00E94D71200910307109104072091A9
:1053F0000507309106076C197D098E099F0906176C
:1054000017072807390708F442C08091BC0083FDC4
:10541000D8CF85EC8093BC000E94D7126B017C0131
:1054200080914C07823009F44CC080914B078F3F2C
:1054300009F469C080914B07803209F466C08091FD
:105440004B07803309F463C084E026C080910307D2
:1054500090910407A0910507B0910607892B8A2B2C
:105460008B2B09F483CF0E94D71200910307109170
:10547000040720910507309106076C197D098E09F4
:105480009F09061717072807390708F06FCF809183
:1054900002070E94FC2885E01092C80A1092C70AF1
:1054A0001092CA0ADF91CF911F910F91FF90EF9058
:1054B000DF90CF9008959D9191938F5F6DCF85EE92
:1054C000A9CF8091030790910407A0910507B0919F
:1054D0000607892B8A2B8B2B09F4A2CF0E94D712A7
:1054E00000910307109104072091050730910607EA
:1054F0006C197D098E099F090617170728073907B8
:1055000008F08ECFC4CF80E0C7CF82E0C5CF83E064
:10551000C3CFEF92FF920F931F93CF93DF937C0142
:10552000C62F8091551090915610009709F459C0DC
:105530002091591031E03093CA0A2093C90A109281
:10554000C80A1092C70ADC01ED91FC910190F0812C
:10555000E02D60E019958701EE24E394F12CD1E071
:10556000C1508091551090915610CF3F91F1B0E20B
:10557000EB16F104D8F00E94A22980915510909169
:10558000561020915910D093CA0A2093C90A10923C
:10559000C80A1092C70ADC01ED91FC910190F081DC
:1055A000E02D60E01995EE24E394F12C80915510E4
:1055B00090915610F8016491DC01ED91FC910190FD
:1055C000F081E02D1995BFEFEB1AFB0A0F5F1F4F1B
:1055D000C7CFDF91CF911F910F91FF90EF900C9467
:1055E000A229E0916510F0916610908180916B1076
:1055F0008095892380838701C15008F438C0F80161
:1056000084912091531030915410232B29F00E9443
:105610000F180F5F1F4FF0CF28E030E040E8E09117
:105620006110F091621090916910582F5423D9F0B5
:105630005081952B9083E0916310F09164109081DC
:1056400050916A10952B9083E0916310F091641053
:10565000508190916A1090959523908346952150A2
:105660003109E9F6D6CF508190959523E3CFDF91AC
:10567000CF911F910F91FF90EF9008951F93CF93BB
:10568000DF93EC018D8D9E8D009721F1162F29A1BE
:1056900031E03093CA0A2093C90A1092C80A1092C6
:1056A000C70ADC01ED91FC910190F081E02D60E0F2
:1056B00019958D8D9E8DDC01ED91FC910190F0810D
:1056C000E02D612F19958D8D9E8DDF91CF911F91CA
:1056D0000C94A229ADA5BEA59C918BA98095892388
:1056E0008C938B8D9C8D892B31F0862FDF91CF9100
:1056F0001F910C940F1828E030E080E8A9A5BAA506
:1057000099A9462F4823C1F04C91942B9C93ABA5AB
:10571000BCA59C914AA9942B9C93ABA5BCA54C918C
:105720009AA9909594239C9386952150310931F73D
:10573000DF91CF911F9108954C9190959423E6CFDE
:10574000DF92EF92FF920F931F93CF93DF9380919D
:10575000551090915610892B09F4A5C020916D1019
:1057600030916E1040916F105091701060E074E2B3
:1057700084EF90E00E94076F2051310941095109DF
:1057800056954795379527952093B80064E086E2B3
:1057900098E10E94892A80913C1090913D108034BC
:1057A000910509F097C060E288E390E10E943E2BEA
:1057B00060913C10615E88E390E10E943E2B209155
:1057C0003E1030913F10C901079697FD079633E0D0
:1057D000959587953A95E1F720913C1030913D10D1
:1057E000829F8001839F100D929F100D1124C09104
:1057F0005710D091581080915510909156100C0F61
:105800001D1F009709F498C02091591031E0309382
:10581000CA0A2093C90A1092C80A1092C70ADC016A
:10582000ED91FC910190F081E02D60E41995EE245A
:10583000E394F12CDD24D39480915510909156106F
:105840000C171D0709F44FC0B0E2EB16F104D8F0B5
:105850000E94A229809155109091561020915910C4
:10586000D092CA0A2093C90A1092C80A1092C70A95
:10587000DC01ED91FC910190F081E02D60E419953F
:10588000EE24E394F12C809155109091561069917B
:10589000DC01ED91FC910190F081E02D1995BFEFB5
:1058A000EB1AFB0AC9CF8091531090915410892BA9
:1058B00031F080917610909177100E943418E09129
:1058C0006710F0916810908180916C108095892309
:1058D00080835CCF60E088E390E10E943E2B609182
:1058E0003C10615068CF0E94A22980915510909180
:1058F0005610892B09F461C02091711030917210FB
:10590000409173105091741060E074E284EF90E065
:105910000E94076F20513109410951095695479559
:10592000379527952093B800DF91CF911F910F9164
:10593000FF90EF90DF900895E0916510F091661070
:10594000808190916B10892B80830C171D0769F261
:1059500089912091531030915410232B19F00E94FB
:105960000F18F3CF28E030E040E8E0916110F091AB
:10597000621090916910582F5423D9F05081952BC3
:105980009083E0916310F0916410908150916A10BF
:10599000952B9083E0916310F09164105081909169
:1059A0006A10909595239083469521503109E9F628
:1059B000CCCF508190959523E3CFE0916710F09183
:1059C0006810808190916C10892B8083ADCF1F93DC
:1059D000CF93DF93EC01162F8D8D9E8D892BB1F126
:1059E0002DA93EA94FA958AD60E074E284EF90E084
:1059F0000E94076F20513109410951095695479579
:105A0000379527952093B80066EA111167EACE0111
:105A10000E943E2B8D8D9E8D892B41F129AD3AAD93
:105A20004BAD5CAD60E074E284EF90E00E94076FE4
:105A300020513109410951095695479537952795C8
:105A40002093B800DF91CF911F9108958B8D9C8D8D
:105A5000892B21F08EAD9FAD0E943418EFA5F8A9D7
:105A600090818CA9809589238083CECFEFA5F8A95A
:105A700080819CA9892B8083E5CF90E080E0089508
:105A80008F929F92AF92BF92CF92DF92EF92FF924E
:105A90001F93CF93DF93FC0182819381681779076D
:105AA000A8F54A01AA24BB24C82DC32ED42EE52E66
:105AB000FF241C2DD22F8085882361F0889E400111
:105AC0001124C92D8C9D600111241D2D829FD001B0
:105AD0001124DB2FA685E184F2849385A91322C0CB
